:0400000007EF00F016
:100008005F8280ED04F0F4EF1FF000019051800B47
:10001800996F905190259B6F8FAF15EF00F017EFF8
:1000280000F018EF00F09B819B51D8B41EEF00F050
:1000380020EF00F035EF00F09B29D8A426EF00F060
:1000480028EF00F030EF00F0000E8D6F000E8E6F7D
:10005800000E8F6F000E906F8F8F000E906F3DEF28
:1000680000F0000E8D6F000E8E6F000E8F6F000E69
:10007800906F9451800B9A6F99519A19D8B447EFA1
:1000880000F049EF00F04AEF00F0998D9451942563
:100098009A6F93AF52EF00F054EF00F055EF00F075
:1000A8009A819A51D8B45BEF00F05DEF00F072EFDF
:1000B80000F09A29D8A463EF00F065EF00F06DEF27
:1000C80000F0000E916F000E926F000E936F000EFD
:1000D800946F938F000E946F7AEF00F0000E916F7B
:1000E800000E926F000E936F000E946F9B519A5DF5
:1000F800D8B081EF00F083EF00F0AAEF00F099ADDF
:1001080088EF00F08AEF00F08CEF00F0800E991B6A
:100118009BC09CF09AC09BF09CC09AF08DC09CF04C
:1001280091C08DF09CC091F08EC09CF092C08EF072
:100138009CC092F08FC09CF093C08FF09CC093F04D
:1001480090C09CF094C090F09CC094F0000E9C6FFE
:100158009B519AC095F0966B955F000E965B96BF83
:10016800BFEF00F0965109E11A0E955DD8A0BFEFD8
:1001780000F0C1EF00F0F8EF00F08D518E118F11F3
:100188009011D8A4CAEF00F0CDEF00F0010ECEEF29
:1001980000F0000E9C6F000E8D6F000E8E6F000E2B
:1001A8008F6F000E906F9AC09BF001EF01F09CA139
:1001B800E0EF00F0E2EF00F0E8EF00F0D8909C31BB
:1001C80001099C6FEAEF00F0D8909C338DA1EFEF06
:1001D80000F0F1EF00F0F2EF00F09C8F90359033D3
:1001E8008F338E338D339B2B9A519B5DD8A0FFEFB5
:1001F80000F001EF01F0DBEF00F099BD06EF01F030
:1002080008EF01F048EF01F09B51D8A40EEF01F080
:1002180010EF01F01AEF01F0000E8D6F000E8E6FD7
:10022800000E8F6F000E906F69EF02F091518D27CD
:1002380092518E2393518F239451902390A127EFAD
:1002480001F029EF01F0D5EF01F09CA12EEF01F0AC
:1002580030EF01F036EF01F0D8909C3101099C6F26
:1002680038EF01F0D8909C338DA13DEF01F03FEFBE
:1002780001F040EF01F09C8F903590338F338E332F
:100288008D339B2BD5EF01F091518D5D92518E5995
:1002980093518F599051800A956F9451800A9559BE
:1002A800D8B059EF01F05BEF01F086EF01F08D5106
:1002B800915D956F8E519259966F8F519359976FA3
:1002C80090519459986FFF0E95258D6FFF0E9621CA
:1002D8008E6FFF0E97218F6FFF0E9821906F800E03
:1002E800991B9C6D9C51D8A47CEF01F07EEF01F026
:1002F8008EEF01F0010E8D27000E8E238F239023A1
:100308008EEF01F091518D5F92518E5B93518F5B0F
:100318009451905B8D518E118F119011D8A497EF45
:1003280001F099EF01F0CEEF01F09C51D8A49FEFB6
:1003380001F0A1EF01F0CEEF01F0000E8D6F000E7D
:100348008E6F000E8F6F000E906F69EF02F0D890DD
:100358008D378E378F3790379CAFB5EF01F0B7EFF9
:1003680001F0B8EF01F08D819CA1BDEF01F0BFEF66
:1003780001F0C3EF01F0D8809C37C5EF01F0D890A9
:100388009C379B51D8B4CBEF01F0CDEF01F0CEEF05
:1003980001F09B078FAFD3EF01F0D5EF01F0ABEF82
:1003A80001F0000E9A6F9CAFDCEF01F0DEEF01F078
:1003B800F6EF01F09CC095F07F0E9517D8B4E7EFE3
:1003C80001F0E9EF01F0EDEF01F0010E9A6FF6EFA1
:1003D80001F08DA1F2EF01F0F4EF01F0F6EF01F07A
:1003E800E9EF01F09A51D8B4FCEF01F0FEEF01F00B
:1003F80029EF02F0010E8D27000E8E238F23902304
:1004080090A109EF02F00BEF02F029EF02F08DC086
:1004180095F08EC096F08FC097F090C098F0983500
:10042800983397339633953395C08DF096C08EF0F8
:1004380097C08FF098C090F09B29D8B426EF02F0AF
:1004480028EF02F029EF02F09B2B9B29D8B42FEF5D
:1004580002F031EF02F039EF02F09B51D8A437EFE8
:1004680002F039EF02F04BEF02F0000E8D6F000E34
:100478008E6F000E8F6F000E906F9B51D8A447EFC0
:1004880002F049EF02F04BEF02F0000E996F9BA1CA
:1004980050EF02F052EF02F055EF02F08F8F56EF57
:1004A80002F08F9FD8909B31906F99AF5EEF02F06A
:1004B80060EF02F061EF02F0908F8DC08DF08EC07A
:1004C8008EF08FC08FF090C090F01200000177512D
:1004D800800B806F77517725866F76AF76EF02F0C5
:1004E80078EF02F079EF02F086818651D8B47FEF79
:1004F80002F081EF02F094EF02F08629D8A487EF8A
:1005080002F089EF02F091EF02F0000E746F000E16
:10051800756F000E766F000E776F768F9CEF02F086
:10052800000E746F000E756F000E766F000E776FF9
:100538007B51800B801B7B517B25856F7AAFA7EFA2
:1005480002F0A9EF02F0AAEF02F085818551D8B434
:10055800B0EF02F0B2EF02F0C5EF02F08529D8A49F
:10056800B8EF02F0BAEF02F0C2EF02F0000E786FB7
:10057800000E796F000E7A6F000E7B6F7A8FCDEFC9
:1005880002F0000E786F000E796F000E7A6F000E81
:100598007B6F8551D8B4D3EF02F0D5EF02F0DDEFD1
:1005A80002F08651D8A4DBEF02F0DDEF02F0E7EFAE
:1005B80002F0000E746F000E756F000E766F000E5D
:1005C800776F7FEF04F07A517403F3CF8BF0F4CF99
:1005D8008CF08B51816F826B836B846B8C51876F2E
:1005E800886B896B8A6B79517503F3CF8BF0F4CFE5
:1005F8008CF08B518127000E8223832384238C5116
:100608008727000E882389238A2378517603F3CF1E
:100618008BF0F4CF8CF08B518127000E822383233B
:1006280084238C518727000E882389238A2383C03B
:1006380084F082C083F081C082F0816B78517503A9
:10064800F3CF8BF0F4CF8CF08B5181278C51822320
:10065800000E8323000E842379517403F3CF8BF0AB
:10066800F4CF8CF08B5181278C518223000E832389
:10067800000E842383C084F082C083F081C082F09E
:10068800816B78517403F3CF8BF0F4CF8CF08B51DE
:1006980081278C518223000E8323000E84237A51F4
:1006A8007503F3CF8BF0F4CF8CF08B5187278C51E7
:1006B8008823000E8923000E8A2379517603F3CF0D
:1006C8008BF0F4CF8CF08B5187278C518823000E48
:1006D8008923000E8A237A517603F3CF8BF0F4CF67
:1006E8008CF08B517C6F8C517D6F7E6B7F6B7EC0E5
:1006F8007FF07DC07EF07CC07DF07C6B7C518727CD
:100708007D5188237E5189237F518A2381C07CF0C3
:1007180082C07DF083C07EF084C07FF0190E9AEF0E
:1007280003F0D8907F337E337D337C33E82E95EF0A
:1007380003F07C5187277D5188237E5189237F517F
:100748008A2383C084F082C083F081C082F0816BE9
:10075800855186C07CF07D6B7C27000E7D23820E40
:100768007C258B6FFF0E7D218C6FD0EF03F0D89026
:100778008737883789378A3784AFC5EF03F0C7EFE3
:1007880003F0C8EF03F08781D89081378237833729
:1007980084378B07D8A08C0789AFD5EF03F0D7EF44
:1007A80003F0BBEF03F0000E856F84AFDEEF03F0BC
:1007B800E0EF03F004EF04F0FF0E81157C6FFF0EED
:1007C80082157D6FFF0E83157E6F7F0E84157F6FF8
:1007D8007C517D117E117F11D8B4F5EF03F0F7EF4E
:1007E80003F0FBEF03F0010E856F04EF04F087A11F
:1007F80000EF04F002EF04F004EF04F0F7EF03F069
:100808008551D8B40AEF04F00CEF04F030EF04F08F
:10081800010E8727000E882389238A238AA117EFD0
:1008280004F019EF04F030EF04F087C07CF088C0C2
:100838007DF089C07EF08AC07FF07F357F337E33BC
:100848007D337C337CC087F07DC088F07EC089F022
:100858007FC08AF08B4B8C2B8CBF3BEF04F08C5104
:1008680008E18B29D8A03BEF04F03DEF04F047EFF7
:1008780004F0000E876F000E886F800E896F7F0E60
:100888008A6F75EF04F08CBF54EF04F08C5106E1C9
:100898008B05D8B052EF04F054EF04F060EF04F089
:1008A800000E876F000E886F000E896F000E8A6F2A
:1008B800000E806F75EF04F08BC086F0FF0E87176F
:1008C800FF0E88177F0E8917000E8A1786A16FEF13
:1008D80004F071EF04F072EF04F0898FD89086313C
:1008E8008A6F80518A1387C074F088C075F089C0F8
:1008F80076F08AC077F012000600F3CF43F0F4CF09
:1009080044F0F2A28AEF04F08CEF04F098EF04F0C0
:100918005D50D8B492EF04F094EF04F098EF04F02F
:100928000001F34BF42BF292F2A49DEF04F09FEF39
:1009380004F015EF05F05D50D8B4A5EF04F0A7EF6B
:1009480004F015EF05F00B0ED76EDC0ED66EF3C073
:1009580001F0F4C002F0000E046E1E0E036E53EC9C
:1009680021F001C0F1F002C0F2F0000E0001F46FB6
:10097800000EF36FED07D8A0EE07EF51F011D8A4E1
:10098800C8EF04F0CAEF04F0E8EF04F04F5050103D
:10099800D8A4D1EF04F0D3EF04F0E8EF04F0ED5160
:1009A800EE11D8A4DAEF04F0DCEF04F0E8EF04F07D
:1009B8005C04D8A4E2EF04F0E4EF04F0E8EF04F0FC
:1009C800010EF76F14EF05F0EEBFEFEF04F0EDEF57
:1009D80004F014EF05F05C04D8A4F5EF04F0F7EF89
:1009E80004F014EF05F04F06D8A05006000EEE6F85
:1009F8003B0EED6F50BE05EF05F003EF05F014EF69
:100A080005F05C04D8A40BEF05F00DEF05F014EF2A
:100A180005F0EF07D8A0F007000E506E3B0E4F6EA2
:100A2800F294F0A01AEF05F01CEF05F07EEF05F048
:100A38005C50D8A422EF05F024EF05F054EF05F040
:100A4800010E5C6E0001F0BF34EF05F0F05106E1D5
:100A5800EF05D8B032EF05F034EF05F04EEF05F0B2
:100A680050BE3FEF05F0505008E14F04D8A03FEFCB
:100A780005F041EF05F07DEF05F054BE4CEF05F0B1
:100A8800545008E15304D8A04CEF05F04EEF05F0A0
:100A98007DEF05F0A7EC21F0A9EC21F07DEF05F042
:100AA8005C04D8A45AEF05F05CEF05F069EF05F097
:100AB800A5EC21F0000EA9EC1EF0A3EC21F0000E2D
:100AC8005D6E000E5C6E7DEF05F0040E5C18D8A418
:100AD80070EF05F072EF05F07DEF05F05E04D8A425
:100AE80078EF05F07AEF05F07DEF05F05B50A9ECA3
:100AF8001EF0F090F0A283EF05F085EF05F035EFDA
:100B080006F05C50D8A48BEF05F08DEF05F091EF5F
:100B180005F0020E5C6E2DEF06F0020E5C18D8A4EC
:100B280098EF05F09AEF05F0D8EF05F045C001F011
:100B380046C002F0030E046EE80E036E53EC21F07B
:100B480001C03DF002C03EF047C001F048C002F0CD
:100B5800000E046E640E036E53EC21F001503D2428
:100B68003F6E02503E20406E49C001F04AC002F07C
:100B7800000E046E0A0E036E53EC21F001503F2460
:100B8800416E02504020426E4B504124536E4C50EF
:100B98004220546E53C004F054C005F013EC21F009
:100BA800030E5C6E2DEF06F0030E5C18D8A4DFEF81
:100BB80005F0E1EF05F0F5EF05F0000E026E030E0B
:100BC800016E4DC003F029EC21F0000E026E020EFA
:100BD800016E51C003F029EC21F0040E5C6E2DEF7C
:100BE80006F0040E5C18D8A4FCEF05F0FEEF05F043
:100BF80008EF06F0000E5B6EA5EC21F0000E5E6EAD
:100C0800050E5C6E2DEF06F0050E5C18D8A40FEFEC
:100C180006F011EF06F02DEF06F0000E026E040E3E
:100C2800016E59C003F029EC21F0000E026E050E8A
:100C3800016E57C003F029EC21F0000E026E060E7B
:100C4800016E55C003F029EC21F0000E5C6E2DEF0B
:100C580006F0F092820E3D6EDE0EE82EFED73D2E97
:100C6800FCD7F2A03AEF06F03CEF06F056EF06F09C
:100C780081B841EF06F043EF06F056EF06F01A0E82
:100C88003D6EF80EE82EFED73D2EFCD700D081B879
:100C980050EF06F052EF06F055EF06F0010E000196
:100CA800F96FF290F2A05BEF06F05DEF06F077EFD8
:100CB80006F081BA62EF06F064EF06F077EF06F00F
:100CC8001A0E3D6EF80EE82EFED73D2EFCD700D04A
:100CD80081BA71EF06F073EF06F076EF06F0010EB9
:100CE8000001F86FF29044C0F4FF43C0F3FF5F9235
:100CF8001100010E7EEC21F0120E0001D56F5BEFA2
:100D080008F0300E0001BB6F010EBC6F5A0EBD6FAC
:100D18007F0EBE6F45C0BFF046C0C0F047C0C1F0EF
:100D280048C0C2F049C0C3F04AC0C4F04BC0C5F0C7
:100D38004CC0C6F01DEC20F0010E0001686F300EAB
:100D4800696F010E6A6F020EBCEC1FF0D5C064F02B
:100D5800020E3EEC1FF00E0E7EEC21F0C30E0001D9
:100D6800D46FCD0EE82EFED7D42FFCD70C0E7EEC18
:100D780021F068EF07F0300E0001BB6F010EBC6F69
:100D88005A0EBD6F7F0EBE6F45C0BFF046C0C0F0A3
:100D980047C0C1F048C0C2F049C0C3F04AC0C4F05F
:100DA8004BC0C5F04CC0C6F01DEC20F0010E000190
:100DB800686F300E696F010E6A6F020EBCEC1FF08F
:100DC800120E0001D519D8A4ECEF06F0EEEF06F0EC
:100DD80004EF07F04B4A4C2A4CBEFCEF06F04C508F
:100DE80009E10A0E4B5CD8A0FCEF06F0FEEF06F016
:100DF8005FEF07F0000E4C6E000E4B6E5FEF07F0D2
:100E0800110ED519D8A40BEF07F00DEF07F023EF5B
:100E180007F0494A4A2A4ABE1BEF07F04A5009E13F
:100E28000A0E495CD8A01BEF07F01DEF07F05FEF33
:100E380007F0000E4A6E000E496E5FEF07F0100EC5
:100E4800D519D8A42AEF07F02CEF07F042EF07F0E6
:100E5800474A482A48BE3AEF07F0485009E10A0EC7
:100E6800475CD8A03AEF07F03CEF07F05FEF07F0D8
:100E7800000E486E000E476E5FEF07F00F0ED51993
:100E8800D8A449EF07F04BEF07F05FEF07F0454AAA
:100E9800462A46BE59EF07F0465009E10A0E455C5E
:100EA800D8A059EF07F05BEF07F05FEF07F0000EEF
:100EB800466E000E456E410E0001D46FEE0EE82E10
:100EC800FED7D42FFCD700F081A86DEF07F06FEFA5
:100ED80007F0BFEF06F002EF08F0300E0001BB6F1D
:100EE800010EBC6F5A0EBD6F7F0EBE6F45C0BFF0BE
:100EF80046C0C0F047C0C1F048C0C2F049C0C3F006
:100F08004AC0C4F04BC0C5F04CC0C6F01DEC20F080
:100F1800010E0001686F300E696F010E6A6F020ED4
:100F2800BCEC1FF0120E0001D519D8A49EEF07F0F3
:100F3800A0EF07F0B0EF07F04B06D8A04C064CBE68
:100F4800AAEF07F0A8EF07F0F9EF07F0000E4C6ED4
:100F5800090E4B6EF9EF07F0110ED519D8A4B7EFAB
:100F680007F0B9EF07F0C9EF07F04906D8A04A061D
:100F78004ABEC3EF07F0C1EF07F0F9EF07F0000E24
:100F88004A6E090E496EF9EF07F0100ED519D8A46C
:100F9800D0EF07F0D2EF07F0E2EF07F04706D8A04E
:100FA800480648BEDCEF07F0DAEF07F0F9EF07F084
:100FB800000E486E090E476EF9EF07F00F0ED519AF
:100FC800D8A4E9EF07F0EBEF07F0F9EF07F04506D3
:100FD800D8A0460646BEF5EF07F0F3EF07F0F9EFA5
:100FE80007F0000E466E090E456E410E0001D46FE3
:100FF800EE0EE82EFED7D42FFCD700F081AA07EF1B
:1010080008F009EF08F071EF07F081B60EEF08F06D
:1010180010EF08F01EEF08F0120E0001D519D8A441
:1010280018EF08F01AEF08F01EEF08F0110ED56F50
:101038005BEF08F081B623EF08F025EF08F033EFF7
:1010480008F0110E0001D519D8A42DEF08F02FEFE4
:1010580008F033EF08F0100ED56F5BEF08F081B69B
:1010680038EF08F03AEF08F048EF08F0100E0001EA
:10107800D519D8A442EF08F044EF08F048EF08F07B
:101088000F0ED56F5BEF08F081B64DEF08F04FEF0C
:1010980008F05BEF08F00F0E0001D519D8A457EF40
:1010A80008F059EF08F05BEF08F080EF06F0020E49
:1010B8005C18D8B462EF08F064EF08F085EF06F02A
:1010C80012000001A851800BB56FA851A825BC6F6C
:1010D800A7AF71EF08F073EF08F074EF08F0BC8168
:1010E800BC51D8B47AEF08F07CEF08F091EF08F023
:1010F800BC29D8A482EF08F084EF08F08CEF08F040
:10110800000EA56F000EA66F000EA76F000EA86F49
:10111800A78F000EA86F99EF08F0000EA56F000EBC
:10112800A66F000EA76F000EA86FAC51800BB51B01
:10113800AC51AC25BD6FABAFA4EF08F0A6EF08F03B
:10114800A7EF08F0BD81BD51D8B4ADEF08F0AFEFFF
:1011580008F0C4EF08F0BD29D8A4B5EF08F0B7EF40
:1011680008F0BFEF08F0000EA96F000EAA6F000E7E
:10117800AB6F000EAC6FAB8F000EAC6FCCEF08F00E
:10118800000EA96F000EAA6F000EAB6F000EAC6FB9
:10119800A951AA11AB11AC11D8A4D5EF08F0D7EF1B
:1011A80008F0EFEF08F0000EA56F000EA66F000E16
:1011B800A76F000EA86F800EA7137F0EA813B55156
:1011C800A813A5C0A5F0A6C0A6F0A7C0A7F0A8C000
:1011D800A8F032EF0AF0BC51D8A4F5EF08F0F7EF09
:1011E80008F001EF09F0000EA56F000EA66F000EC3
:1011F800A76F000EA86F32EF0AF0BD51BCC0ADF06A
:10120800AE6BAD5F000EAE5B7F0EAD25B66F000E08
:10121800AE21B76FA5C0B1F0A6C0B2F0A7C0B3F0B9
:10122800A8C0B4F0000EA56F000EA66F000EA76F41
:10123800000EA86F000EB86F000EB96F000EBA6FDF
:10124800000EBB6F000EBD6F62EF09F0BD51D8B440
:1012580030EF09F032EF09F049EF09F0D890B137D3
:10126800B237B337B437D890A537A637A737A837DA
:10127800BBAF41EF09F043EF09F044EF09F0A58156
:10128800D890B837B937BA37BB37A951B15DAA5129
:10129800B259AB51B359AC51B459D8A056EF09F073
:1012A80058EF09F061EF09F0BB8DA951B15FAA5160
:1012B800B25BAB51B35BAC51B45BBD2B190EBD65D2
:1012C80068EF09F06AEF09F02AEF09F0B151B2119D
:1012D800B311B411D8B473EF09F075EF09F08DEFBD
:1012E80009F0B8818DEF09F0D890A537A637A73750
:1012F800A837BBAF82EF09F084EF09F085EF09F05A
:10130800A581D890B837B937BA37BB37B607D8A050
:10131800B707A7AF92EF09F094EF09F078EF09F05B
:10132800000EBD6FBBAF9BEF09F09DEF09F0C1EF59
:1013380009F0FF0EB815AD6FFF0EB915AE6FFF0EB1
:10134800BA15AF6F7F0EBB15B06FAD51AE11AF11AF
:10135800B011D8B4B2EF09F0B4EF09F0B8EF09F062
:10136800010EBD6FC1EF09F0A5A1BDEF09F0BFEFF8
:1013780009F0C1EF09F0B4EF09F0BD51D8B4C7EFD7
:1013880009F0C9EF09F0EDEF09F0010EA527000EED
:10139800A623A723A823A8A1D4EF09F0D6EF09F024
:1013A800EDEF09F0A5C0ADF0A6C0AEF0A7C0AFF054
:1013B800A8C0B0F0B035B033AF33AE33AD33ADC045
:1013C800A5F0AEC0A6F0AFC0A7F0B0C0A8F0B64B6D
:1013D800B72BB7BFF8EF09F0B75108E1B629D8A085
:1013E800F8EF09F0FAEF09F005EF0AF0000EB76F11
:1013F800B669000EA56F000EA66F000EA76F000E4F
:10140800A86FB7BF12EF0AF0B75106E1B605D8B01A
:1014180010EF0AF012EF0AF020EF0AF0000EB76F93
:10142800000EB66F000EA56F000EA66F000EA76F18
:10143800000EA86F000EB56FB6C0BCF0BCA127EFB8
:101448000AF029EF0AF02CEF0AF0A78F2DEF0AF027
:10145800A79FD890BC31A86FE3EF08F0120018508E
:10146800800B256E185018242C6E17AE3EEF0AF02C
:1014780040EF0AF041EF0AF02C802C50D8B447EF27
:101488000AF049EF0AF05EEF0AF02C28D8A44FEFD3
:101498000AF051EF0AF059EF0AF0000E156E000E2F
:1014A800166E000E176E000E186E178E000E186E50
:1014B80066EF0AF0000E156E000E166E000E176E1F
:1014C800000E186E1C50800B251A1C501C242D6E03
:1014D8001BAE71EF0AF073EF0AF074EF0AF02D807B
:1014E8002D50D8B47AEF0AF07CEF0AF091EF0AF0A9
:1014F8002D28D8A482EF0AF084EF0AF08CEF0AF0C6
:10150800000E196E000E1A6E000E1B6E000E1C6E79
:101518001B8E000E1C6E99EF0AF0000E196E000E5D
:101528001A6E000E1B6E000E1C6E19501A101B103E
:101538001C10D8A4A2EF0AF0A4EF0AF0BCEF0AF03E
:10154800000E156E000E166E000E176E000E186E49
:10155800800E17127F0E18122550181215C015F09C
:1015680016C016F017C017F018C018F0FFEF0BF0F0
:101578002C50D8A4C2EF0AF0C4EF0AF0CEEF0AF05C
:10158800000E156E000E166E000E176E000E186E09
:10159800FFEF0BF02D502CC01DF01E6A1D5E000ED3
:1015A8001E5A7F0E1D24266E000E1E20276E15C0A3
:1015B80021F016C022F017C023F018C024F0000E46
:1015C800156E000E166E000E176E000E186E000EC9
:1015D800286E000E296E000E2A6E000E2B6E000E6D
:1015E8002D6E2FEF0BF02D50D8B4FDEF0AF0FFEF62
:1015F8000AF016EF0BF0D89021362236233624361F
:10160800D89015361636173618362BAE0EEF0BF067
:1016180010EF0BF011EF0BF01580D8902836293613
:101628002A362B361950215C1A5022581B50235841
:101638001C502458D8A023EF0BF025EF0BF02EEF09
:101648000BF02B8C1950215E1A50225A1B50235A2A
:101658001C50245A2D2A190E2D6435EF0BF037EF44
:101668000BF0F7EF0AF02150221023102410D8B401
:1016780040EF0BF042EF0BF05AEF0BF028805AEFD7
:101688000BF0D89015361636173618362BAE4FEFA6
:101698000BF051EF0BF052EF0BF01580D890283675
:1016A80029362A362B362606D8A0270617AE5FEF2E
:1016B8000BF061EF0BF045EF0BF0000E2D6E2BAE2B
:1016C80068EF0BF06AEF0BF08EEF0BF0FF0E2814AB
:1016D8001D6EFF0E29141E6EFF0E2A141F6E7F0E3C
:1016E8002B14206E1D501E101F102010D8B47FEF31
:1016F8000BF081EF0BF085EF0BF0010E2D6E8EEFE6
:101708000BF015A08AEF0BF08CEF0BF08EEF0BF0BF
:1017180081EF0BF02D50D8B494EF0BF096EF0BF04F
:10172800BAEF0BF0010E1526000E1622172218220A
:1017380018A0A1EF0BF0A3EF0BF0BAEF0BF015C058
:101748001DF016C01EF017C01FF018C020F020347E
:1017580020321F321E321D321DC015F01EC016F079
:101768001FC017F020C018F0264A272A27BEC5EF49
:101778000BF0275008E12628D8A0C5EF0BF0C7EFDB
:101788000BF0D2EF0BF0000E276E2668000E156ED8
:10179800000E166E000E176E000E186E27BEDFEFD5
:1017A8000BF0275006E12604D8B0DDEF0BF0DFEF91
:1017B8000BF0EDEF0BF0000E276E000E266E000EFC
:1017C800156E000E166E000E176E000E186E000EC7
:1017D800256E26C02CF02CA0F4EF0BF0F6EF0BF0E2
:1017E800F9EF0BF0178EFAEF0BF0179ED8902C300C
:1017F800186EB0EF0AF01200010E7EEC21F0140E04
:101808000001D56F85EF0DF0300E0001BB6F010EA2
:10181800BC6F420EBD6F7F0EBE6F59C0BFF05AC07D
:10182800C0F057C0C1F058C0C2F055C0C3F056C090
:10183800C4F01DEC20F0010E0001686F300E696FD6
:10184800010E6A6F020EBCEC1FF0D5C064F0020EE8
:101858003EEC1FF00E0E7EEC21F0C30E0001D46F9B
:10186800CD0EE82EFED7D42FFCD70C0E7EEC21F03F
:10187800C4EF0CF0300E0001BB6F010EBC6F420EBE
:10188800BD6F7F0EBE6F59C0BFF05AC0C0F057C0C1
:10189800C1F058C0C2F055C0C3F056C0C4F01DEC2A
:1018A80020F0010E0001686F300E696F010E6A6F3B
:1018B800020EBCEC1FF0140E0001D519D8A467EF76
:1018C8000CF069EF0CF07FEF0CF0554A562A56BE23
:1018D80077EF0CF0565009E1650E555CD8A077EF0C
:1018E8000CF079EF0CF0BBEF0CF0000E566E000E0A
:1018F800556EBBEF0CF00D0ED519D8A486EF0CF081
:1019080088EF0CF09EEF0CF0574A582A58BE96EF15
:101918000CF0585009E1650E575CD8A096EF0CF012
:1019280098EF0CF0BBEF0CF0000E586E000E576EDF
:10193800BBEF0CF0060ED519D8A4A5EF0CF0A7EF55
:101948000CF0BBEF0CF0594A5A2A5ABEB5EF0CF00E
:101958005A5009E1650E595CD8A0B5EF0CF0B7EF05
:101968000CF0BBEF0CF0000E5A6E000E596E410ED3
:101978000001D46FEE0EE82EFED7D42FFCD700F06E
:1019880081A8C9EF0CF0CBEF0CF03EEF0CF041EF63
:101998000DF0300E0001BB6F010EBC6F420EBD6F23
:1019A8007F0EBE6F59C0BFF05AC0C0F057C0C1F01B
:1019B80058C0C2F055C0C3F056C0C4F01DEC20F0AA
:1019C800010E0001686F300E696F010E6A6F020E1A
:1019D800BCEC1FF0140E0001D519D8A4F6EF0CF0DA
:1019E800F8EF0CF008EF0DF05506D8A0560656BED5
:1019F80002EF0DF000EF0DF038EF0DF0000E566E0F
:101A0800640E556E38EF0DF00D0ED519D8A40FEFF2
:101A18000DF011EF0DF021EF0DF05706D8A0580684
:101A280058BE1BEF0DF019EF0DF038EF0DF0000E5A
:101A3800586E640E576E38EF0DF0060ED519D8A4FF
:101A480028EF0DF02AEF0DF038EF0DF05906D8A069
:101A58005A065ABE34EF0DF032EF0DF038EF0DF0A4
:101A6800000E5A6E640E596E410E0001D46FEE0ED0
:101A7800E82EFED7D42FFCD700F081AA46EF0DF050
:101A880048EF0DF0CDEF0CF081B64DEF0DF04FEFB4
:101A98000DF05DEF0DF0140E0001D519D8A457EF25
:101AA8000DF059EF0DF05DEF0DF00D0ED56F85EFD0
:101AB8000DF081B662EF0DF064EF0DF072EF0DF0EE
:101AC8000D0E0001D519D8A46CEF0DF06EEF0DF0D6
:101AD80072EF0DF0060ED56F85EF0DF081B677EF3A
:101AE8000DF079EF0DF085EF0DF0060E0001D51918
:101AF800D8A481EF0DF083EF0DF085EF0DF003EF23
:101B08000CF0050E5C18D8B48CEF0DF08EEF0DF0CC
:101B180008EF0CF01200000E0001CA6F000ECB6F28
:101B2800C80ECC6F420ECD6F000ECE6F000ECF6F79
:101B3800000ED06F000ED16F000ED26F000ED36F63
:101B4800800ED46F3F0ED56FBE51535CC06FBF512E
:101B58005458C16FC0C066F0C1C067F0000E67BFBF
:101B6800FF0E686F696F010E9AEC16F066C0E3F01D
:101B780067C0E4F068C0E5F069C0E6F059C066F0F7
:101B88005AC067F00001000E67BFFF0E686F696FEB
:101B9800010E9AEC16F066C074F067C075F068C064
:101BA80076F069C077F0E3C078F0E4C079F0E5C07A
:101BB8007AF0E6C07BF06AEC02F074C008F175C0F8
:101BC80009F176C00AF177C00BF1D2C078F0D3C022
:101BD80079F0D4C07AF0D5C07BF057C066F058C011
:101BE80067F00001000E67BFFF0E686F696F010E96
:101BF8009AEC16F066C074F067C075F068C076F0AD
:101C080069C077F06AEC02F074C0C2F075C0C3F026
:101C180076C0C4F077C0C5F0E3C078F0E4C079F0CE
:101C2800E5C07AF0E6C07BF0C2C074F0C3C075F0BE
:101C3800C4C076F0C5C077F06AEC02F074C08DF0CD
:101C480075C08EF076C08FF077C090F004C191F027
:101C580005C192F006C193F007C194F009EC00F0B9
:101C68008DC0DFF08EC0E0F08FC0E1F090C0E2F0F0
:101C78000CC1A1F00DC1A2F00EC1A3F00FC1A4F0D8
:101C8800E3C09DF0E4C09EF0E5C09FF0E6C0A0F080
:101C9800B7EC20F09DC078F09EC079F09FC07AF034
:101CA800A0C07BF055C066F056C067F00001000E7A
:101CB80067BFFF0E686F696F010E9AEC16F066C079
:101CC80074F067C075F068C076F069C077F06AECA8
:101CD80002F074C0A5F075C0A6F076C0A7F077C072
:101CE800A8F0D2C0A9F0D3C0AAF0D4C0ABF0D5C038
:101CF800ACF065EC08F0A5C000F1A6C001F1A7C0E2
:101D080002F1A8C003F1DFC091F0E0C092F0E1C099
:101D180093F0E2C094F008C18DF009C18EF00AC1B9
:101D28008FF00BC190F009EC00F08DC0C6F08EC0AA
:101D3800C7F08FC0C8F090C0C9F0C6C08DF0C7C04A
:101D48008EF0C8C08FF0C9C090F000C191F001C1F9
:101D580092F002C193F003C194F009EC00F08DC039
:101D6800DBF08EC0DCF08FC0DDF090C0DEF0CAC0C2
:101D780060F0CBC061F0CCC062F0CDC063F0DBC0D6
:101D880064F0DCC065F0DDC066F0DEC067F03CECF6
:101D98001CF00001D8B0D3EF0EF0D5EF0EF0DDEF58
:101DA8000EF0CAC0DBF0CBC0DCF0CCC0DDF0CDC09B
:101DB800DEF0DBC060F0DCC061F0DDC062F0DEC0E8
:101DC80063F0CEC064F0CFC065F0D0C066F0D1C07B
:101DD80067F03CEC1CF00001D8B0F5EF0EF0F7EF1F
:101DE8000EF0FFEF0EF0CEC0DBF0CFC0DCF0D0C0BD
:101DF800DDF0D1C0DEF0DFC004F1E0C005F1E1C0E4
:101E080006F1E2C007F1E3C00CF1E4C00DF1E5C052
:101E18000EF1E6C00FF1120051C0EFF052C0F0F021
:101E28004DC04FF04EC050F0000E0001EE6F000E96
:101E3800ED6F010E7EEC21F0410E0001D66FEE0E23
:101E4800E82EFED7D62FFCD700F054BE34EF0FF0A3
:101E5800545008E15304D8A034EF0FF036EF0FF0D8
:101E680055EF0FF00001F0BF44EF0FF0F05106E11D
:101E7800EF05D8B042EF0FF044EF0FF051EF0FF03D
:101E880050BE4FEF0FF0505008E14F04D8A04FEF6D
:101E98000FF051EF0FF055EF0FF0010E5D6E62EF8E
:101EA80010F0010E7EEC21F0410E0001D66FEE0E0F
:101EB800E82EFED7D62FFCD700F0010E0001686F80
:101EC8009B0E696F7F0E6A6F020EBCEC1FF0060E48
:101ED8000001D76F130ED66FAD0EE82EFED7D62FA2
:101EE800FCD7D72FFAD700D062EF10F00001F70522
:101EF800D8A481EF0FF083EF0FF0DBEF0FF0010EA6
:101F08007EEC21F0410E0001D66FEE0EE82EFED7D2
:101F1800D62FFCD700F0010E0001686FAF0E696F75
:101F28007F0E6A6F020EBCEC1FF0000E0001D96F25
:101F3800000ED86F8B80030E0001D76F8A0ED66F04
:101F4800550EE82EFED7D62FFCD7D72FFAD700D0BC
:101F58008B90030E0001D76F8A0ED66F550EE82EB0
:101F6800FED7D62FFCD7D72FFAD700D00001D84BF1
:101F7800D92BD9BFC9EF0FF0D95109E10A0ED85DA5
:101F8800D8A0C9EF0FF0CBEF0FF09EEF0FF0A1EC48
:101F980021F0000E58EC1EF09FEC21F0000E00011D
:101FA800F76F000E5D6E000E5C6E72EF10F0300E73
:101FB800BB6F010EBC6FC00EBD6F7F0EBE6FF1C050
:101FC800BFF0F2C0C0F01DEC20F0010E0001686FF8
:101FD800300E696F010E6A6F010EBCEC1FF0300EF7
:101FE8000001BB6F010EBC6FD00EBD6F7F0EBE6FC0
:101FF80053C0BFF054C0C0F01DEC20F0010E00012A
:10200800686F300E696F010E6A6F020EBCEC1FF02C
:10201800300E0001BB6F010EBC6FF50EBD6F7E0E5A
:10202800BE6FEFC0BFF0F0C0C0F04FC0C1F050C0ED
:10203800C2F0EDC0C3F0EEC0C4F01DEC20F0010EFC
:102048000001686F300E696F010E6A6F030EBCECF9
:102058001FF0300E0001BB6F010EBC6F0F0EBD6F7D
:102068007F0EBE6F51C0BFF052C0C0F04DC0C1F06E
:102078004EC0C2F0000EC46F000EC36F1DEC20F0FE
:10208800010E0001686F300E696F010E6A6F040E51
:10209800BCEC1FF0F1C0BEF0F2C0BFF08FEC0DF049
:1020A800DBC0BEF0DCC0BFF0DDC0C0F0DEC0C1F0F8
:1020B800B8EC1BF00001BE5158EC1EF05C04D8A42B
:1020C80068EF10F06AEF10F072EF10F05D50D8A4CE
:1020D80070EF10F072EF10F07AEF0FF012007DC081
:1020E80093F07EC094F07FC095F080C096F081C0D8
:1020F80097F082C098F083C099F084C09AF00001EC
:102108009ABF89EF10F08CEF10F0010E8DEF10F0F0
:10211800000E9D6F9D51D8B494EF10F096EF10F01B
:10212800A6EF10F09A1F991F981F971F961F951FCB
:10213800941F936D000E9423952396239723982339
:1021480099239A23EABFABEF10F0ADEF10F0AEEF92
:1021580010F0F593EABFBBEF10F0EA5106E1E9058C
:10216800D8B0B9EF10F0BBEF10F0C1EF10F0000ECF
:10217800906F010E8F6FC5EF10F0E9C08FF0EAC0C5
:1021880090F0E7C091F0E8C092F09D51D8B4CFEF3D
:1021980010F0D1EF10F0E8EF10F09107D8A09207F7
:1021A8009D51D8A4DAEF10F0DCEF10F0E2EF10F058
:1021B800000E8E6F2B0E8D6FE6EF10F0000E8E6FF7
:1021C8002D0E8D6F8DC09DF0000E9C6F1F0E9B6FA6
:1021D800000E01012F6F6EEF11F09B07D8A09C072E
:1021E800100E9B25D96E010E9C21DA6E93C060F00B
:1021F80094C061F095C062F096C063F097C064F037
:1022080098C065F099C066F09AC067F00A0E686FCA
:10221800000E696F000E6A6F000E6B6F000E6C6F18
:10222800000E6D6F000E6E6F000E6F6F15EC19F0DB
:1022380060C085F061C086F062C087F063C088F036
:1022480064C089F065C08AF066C08BF067C08CF006
:1022580085C072F086C073F0DBEC20F0000172518B
:10226800300FDF6E8F07D8A090079107D8A092078C
:1022780093C060F094C061F095C062F096C063F0BE
:1022880097C064F098C065F099C066F09AC067F08E
:102298000A0E686F000E696F000E6A6F000E6B6F92
:1022A800000E6C6F000E6D6F000E6E6F000E6F6F7C
:1022B80050EC18F060C093F061C094F062C095F0E3
:1022C80063C096F064C097F065C098F066C099F056
:1022D80067C09AF000019CBF7AEF11F09C5108E1A9
:1022E8009B05D8A07AEF11F07CEF11F0ACEF11F05C
:1022F80093519411951196119711981199119A115A
:10230800D8A489EF11F08BEF11F0F1EF10F090BF26
:1023180098EF11F0905106E18F05D8B096EF11F0C3
:1023280098EF11F0F1EF10F092BFA3EF11F0925176
:1023380008E19105D8A0A3EF11F0A5EF11F0ACEFDB
:1023480011F0F5B3AAEF11F0ACEF11F0F1EF10F0C6
:102358009D51D8B4B2EF11F0B4EF11F0BFEF11F006
:102368009B07D8A09C07100E9B25D96E010E9C21B7
:10237800DA6E9DC0DFFF7BC070F07CC071F0100E7C
:102388009B25726F010E9C21736F91C074F092C0EF
:1023980075F0A8EC1DF01200A0C0D9FFA1C0DAFFAB
:1023A800DECFF6FFDDCFF7FF0800F550250AD8A4E9
:1023B800E0EF11F0E2EF11F00AEF13F0A0C0D9FF3F
:1023C800A1C0DAFFDE2A000EDD22000E0001E86F50
:1023D800000EE76FE7C0F5F0E969EA69000EB06F33
:1023E800000EAF6F22EF12F0F583A0C0D9FFA1C095
:1023F800DAFFDE2A000EDD2222EF12F0000EB06FA7
:10240800010EAF6F22EF12F0A0C0D9FFA1C0DAFF12
:10241800DECFF6FFDDCFF7FF0800F550A46FA56B00
:10242800A551000AD8B41BEF12F002EF12F0A45124
:10243800300AD8B4F8EF11F002EF12F0AF51B01132
:10244800D8B429EF12F02BEF12F008EF12F0A0C069
:10245800D9FFA1C0DAFFDECFF6FFDDCFF7FF080016
:10246800F5502A0AD8A43BEF12F03DEF12F066EFC0
:1024780012F0A0C0D9FFA1C0DAFFDE2A000EDD22CB
:10248800A2C0D9FFA3C0DAFFDFCFA4F0020EDE2678
:10249800DFCFA5F0000EDD22A4C0D9FFA5C0DAFF6A
:1024A800DECFE7F0DDCFE8F0E8BF5FEF12F05DEFD9
:1024B80012F09AEF12F0F581E76DE81FD8B0E82B1B
:1024C8009AEF12F0A0C0D9FFA1C0DAFFDECF66F004
:1024D800DDCF67F078EC1AF066C0E7F067C0E8F087
:1024E8007DEF12F0A0C0D9FFA1C0DAFFDE2A000EEE
:1024F800DD22A0C0D9FFA1C0DAFFDECFF6FFDDCF15
:10250800F7FF0800F5CFA4F0D00E0001A425A56FB1
:10251800A66BFF0EA623A65109E10A0EA55DD8A059
:1025280098EF12F09AEF12F076EF12F0A0C0D9FFF0
:10253800A1C0DAFFDECFB1F0DDCFB2F0B1C0F6FF57
:10254800B2C0F7FF0800F550640AD8B4AEEF12F035
:10255800B0EF12F0BEEF12F0B1C0F6FFB2C0F7FF55
:102568000800F550690AD8A4BCEF12F0BEEF12F0CB
:1025780001EF13F0A2C0D9FFA3C0DAFFDFCFA4F0A8
:10258800020EDE26DFCFA5F0000EDD22A4C0D9FFA3
:10259800A5C0DAFFDECFA7F0DDCFA8F0000EA8BFF8
:1025A800FF0EA96FAA6FAB6FAC6FAD6FAE6F010E68
:1025B800B125A46F000EB221A56FA0C0D9FFA1C09C
:1025C800DAFFA4C0DEFFA5C0DDFF9EC07BF09FC080
:1025D8007CF0A7C07DF0A8C07EF0A9C07FF0AAC09B
:1025E80080F0ABC081F0ACC082F0ADC083F0AEC06B
:1025F80084F073EC10F01FEF13F0A0C0D9FFA1C056
:10260800DAFFDE2A000EDD221FEF13F0A0C0D9FF8B
:10261800A1C0DAFFDECFF6FFDDCFF7FF0800F550E7
:102628000001606F616B9EC062F09FC063F042EC76
:102638001DF001EF13F01200010E7EEC21F00F0ED9
:102648000001D56F58EF14F0300E0001BB6F010E7A
:10265800BC6F290EBD6F7F0EBE6F51C0BFF052C058
:10266800C0F04DC0C1F04EC0C2F0000EC46F000EE5
:10267800C36F1DEC20F0010E0001686F300E696F0A
:10268800010E6A6F020EBCEC1FF0D5C064F0020E9A
:102698003EEC1FF00E0E7EEC21F0C30E0001D46F4D
:1026A800CD0EE82EFED7D42FFCD70C0E7EEC21F0F1
:1026B800C5EF13F0300E0001BB6F010EBC6F290E81
:1026C800BD6F7F0EBE6F51C0BFF052C0C0F04DC08D
:1026D800C1F04EC0C2F0000EC46F000EC36F1DECF7
:1026E80020F0010E0001686F300E696F010E6A6FED
:1026F800020EBCEC1FF00F0E0001D519D8A487EF0D
:1027080013F089EF13F09FEF13F04D4A4E2A4EBE97
:1027180097EF13F04E5009E13C0E4D5CD8A097EFAF
:1027280013F099EF13F0BCEF13F0000E4E6E000E8D
:102738004D6EBCEF13F00C0ED519D8A4A6EF13F00C
:10274800A8EF13F0BCEF13F0514A522A52BEB6EF6D
:1027580013F0525009E1040E515CD8A0B6EF13F003
:10276800B8EF13F0BCEF13F0000E526E000E516E6E
:10277800410E0001D46FEE0EE82EFED7D42FFCD701
:1027880000F081A8CAEF13F0CCEF13F05EEF13F05E
:1027980029EF14F0300E0001BB6F010EBC6F290E3B
:1027A800BD6F7F0EBE6F51C0BFF052C0C0F04DC0AC
:1027B800C1F04EC0C2F0000EC46F000EC36F1DEC16
:1027C80020F0010E0001686F300E696F010E6A6F0C
:1027D800020EBCEC1FF00F0E0001D519D8A4F7EFBC
:1027E80013F0F9EF13F009EF14F04D06D8A04E06D8
:1027F8004EBE03EF14F001EF14F020EF14F0000EBA
:102808004E6E3B0E4D6E20EF14F00C0ED519D8A469
:1028180010EF14F012EF14F020EF14F05106D8A0C6
:10282800520652BE1CEF14F01AEF14F020EF14F009
:10283800000E526E030E516E410E0001D46FEE0E63
:10284800E82EFED7D42FFCD700F081AA2EEF14F083
:1028580030EF14F0CEEF13F081B635EF14F037EF08
:1028680014F045EF14F00F0E0001D519D8A43FEF6E
:1028780014F041EF14F045EF14F00C0ED56F58EF3B
:1028880014F081B64AEF14F04CEF14F058EF14F03E
:102898000C0E0001D519D8A454EF14F056EF14F01B
:1028A80058EF14F023EF13F0030E5C18D8B45FEF61
:1028B80014F061EF14F028EF13F012009494000E56
:1028C8000001A56F000EA66F800EA76F3F0EA86FC0
:1028D800C8C066F0C9C067F0000E67BFFF0E686F1A
:1028E800696F010E9AEC16F066C0A9F067C0AAF0ED
:1028F80068C0ABF069C0ACF065EC08F0A5C0D1F0D9
:10290800A6C0D2F0A7C0D3F0A8C0D4F0BD0E000175
:10291800D56F370ED66F860ED76F340ED86FCAC0F4
:10292800D9F0000E786F000E796F800E7A6F400E26
:102938007B6FD5C074F0D6C075F0D7C076F0D8C01C
:1029480077F06AEC02F074C0CDF075C0CEF076C0B6
:10295800CFF077C0D0F0000E0001916F000E926F9B
:10296800800E936FBF0E946FD951666F676B686B5B
:10297800696B010E9AEC16F066C078F067C079F0C2
:1029880068C07AF069C07BF0CDC074F0CEC075F035
:10299800CFC076F0D0C077F06AEC02F074C0A9F02E
:1029A80075C0AAF076C0ABF077C0ACF0D1C0A5F086
:1029B800D2C0A6F0D3C0A7F0D4C0A8F065EC08F048
:1029C800A5C08DF0A6C08EF0A7C08FF0A8C090F06B
:1029D80009EC00F08DC0BEF08EC0BFF08FC0C0F013
:1029E80090C0C1F0B8EC1BF00001BE51CB6ED5C051
:1029F80078F0D6C079F0D7C07AF0D8C07BF0D9513A
:102A0800666F676B686B696B010E9AEC16F066C0AF
:102A180074F067C075F068C076F069C077F06AEC4A
:102A280002F074C0A9F075C0AAF076C0ABF077C008
:102A3800ACF0D1C0A5F0D2C0A6F0D3C0A7F0D4C0E6
:102A4800A8F065EC08F0A5C0BEF0A6C0BFF0A7C00E
:102A5800C0F0A8C0C1F0B8EC1BF0BEC0FBF0BFC00E
:102A6800FCF0FBC0CBF0FCC0CCF00001CC35CC3383
:102A7800CB33CC35CC33CB33CB51BE6EFBC0CBF094
:102A8800030ECB17CB3BBD50CB19CF0BCB19BD6E6B
:102A9800000ECA6E60EF15F0FC0ECA1679EF15F03D
:102AA800CA50FC0B0109CA6E79EF15F0CA50FC0B2D
:102AB8000209CA6E79EF15F0D951CB6FCC6BCC51A6
:102AC800000AD8B46AEF15F079EF15F0CB51010A76
:102AD800D8B450EF15F0050AD8B454EF15F0140A1D
:102AE800D8B45AEF15F079EF15F0000ECC6EBD5042
:102AF800F00B0C09BD6E120066EC21F00F0EC16ED2
:102B0800936894908B909368270E0001C96F100EFC
:102B1800C86F100ECA6F62EC14F090EC21F000EC54
:102B28001EF00C0E7EEC21F0000E0001616F030E0A
:102B3800606F98EC21F00001DA6FDA514D6E4E6A41
:102B48004EBEB2EF15F04E5007E13C0E4D5CD8B0CA
:102B5800B0EF15F0B2EF15F0B9EF15F04EBEB9EFC2
:102B680015F0B7EF15F0BDEF15F0000E4E6E000E24
:102B78004D6E000E616F020E606F98EC21F000013F
:102B8800DA6FDA51516E526A52BED6EF15F05250D2
:102B980007E1040E515CD8B0D4EF15F0D6EF15F06C
:102BA800DDEF15F052BEDDEF15F0DBEF15F0E1EFCC
:102BB80015F0000E526E000E516E51C0EFF052C06B
:102BC800F0F04DC04FF04EC050F0000EEE6F000E0A
:102BD800ED6F000E616F040E606F98EC21F000013C
:102BE800DA6FDA51596E5A6A5ABE04EF16F05A5023
:102BF80009E1650E595CD8A004EF16F006EF16F04F
:102C08000AEF16F0000E5A6E000E596E000E616F34
:102C1800050E606F98EC21F00001DA6FDA51576EFB
:102C2800586A58BE21EF16F0585009E1650E575CF6
:102C3800D8A021EF16F023EF16F027EF16F0000EBC
:102C4800586E000E576E000E616F060E606F98EC9E
:102C580021F00001DA6FDA51556E566A56BE3EEF22
:102C680016F0565009E1650E555CD8A03EEF16F0F7
:102C780040EF16F044EF16F0000E566E000E556E3B
:102C880083EC1FF062C053F063C054F05C50D8A4CA
:102C980050EF16F052EF16F056EF16F0F6EC1EF065
:102CA8004AEF16F05C04D8A45CEF16F05EEF16F05D
:102CB80062EF16F010EC0FF04AEF16F0020E5C18F7
:102CC800D8A469EF16F06BEF16F06FEF16F07DECF5
:102CD80006F04AEF16F0030E5C18D8A476EF16F04B
:102CE80078EF16F07CEF16F020EC13F04AEF16F0B0
:102CF800040E5C18D8A483EF16F085EF16F089EF60
:102D080016F0C8EC19F04AEF16F0050E5C18D8A4B6
:102D180090EF16F092EF16F096EF16F000EC0CF02C
:102D28004AEF16F04AEF16F007EF00F000016E6F59
:102D380000016E51D8B4A3EF16F0A5EF16F0C7EF57
:102D480016F069BFACEF16F0AAEF16F0C7EF16F051
:102D580066C06AF067C06BF068C06CF069C06DF05F
:102D68006A1F6B1F6C1F6D1F6A2B000E6B236C2371
:102D78006D236AC070F06BC071F06CC072F06DC0EA
:102D880073F0CFEF16F066C070F067C071F068C0DE
:102D980072F069C073F06651671168116911D8A49F
:102DA800D8EF16F0DAEF16F0E4EF16F0000E666FC3
:102DB800000E676F000E686F000E696F75EF17F0F1
:102DC800960E6F6FEEEF16F06F2BD8907333723349
:102DD80071337033000E70156A6F000E71156B6FCA
:102DE800000E72156C6FFE0E73156D6F6A516B11C4
:102DF8006C116D11D8A403EF17F005EF17F0E8EF89
:102E080016F013EF17F06F2B010E7027000E7123C9
:102E180072237323D8907333723371337033000E77
:102E280070156A6F000E71156B6F000E72156C6F5E
:102E3800FF0E73156D6F6A516B116C116D11D8A46B
:102E480028EF17F02AEF17F007EF17F032EF17F017
:102E58006F07D890703771377237733772BF37EF93
:102E680017F039EF17F041EF17F0020E6F613FEFDF
:102E780017F041EF17F02CEF17F06FB146EF17F08E
:102E880048EF17F049EF17F0729FD8906F336FC073
:102E98006AF06B6B6C6B6D6B6AC06DF06C6B6B6B17
:102EA8006A6B6A5170136B5171136C5172136D51C7
:102EB80073136E51D8B463EF17F065EF17F06DEF29
:102EC80017F069BF6CEF17F06AEF17F06DEF17F0A6
:102ED800738F70C066F071C067F072C068F073C01D
:102EE80069F012000F6E0F50D8B47DEF17F07FEF26
:102EF80017F0A1EF17F00ABE86EF17F084EF17F06E
:102F0800A1EF17F007C00BF008C00CF009C00DF0D6
:102F18000AC00EF00B1E0C1E0D1E0E1E0B2A000EF4
:102F28000C220D220E220BC011F00CC012F00DC0A5
:102F380013F00EC014F0A9EF17F007C011F008C085
:102F480012F009C013F00AC014F007500810091055
:102F58000A10D8A4B2EF17F0B4EF17F0BEEF17F0CD
:102F6800000E076E000E086E000E096E000E0A6E47
:102F78004FEF18F0960E106EC8EF17F0102AD89081
:102F88001432133212321132000E11140B6E000E6D
:102F980012140C6E000E13140D6EFE0E14140E6E29
:102FA8000B500C100D100E10D8A4DDEF17F0DFEF4A
:102FB80017F0C2EF17F0EDEF17F0102A010E1126E7
:102FC800000E122213221422D89014321332123215
:102FD8001132000E11140B6E000E12140C6E000E3E
:102FE80013140D6EFF0E14140E6E0B500C100D10F2
:102FF8000E10D8A402EF18F004EF18F0E1EF17F064
:103008000CEF18F01006D890113612361336143615
:1030180013BE11EF18F013EF18F01BEF18F0020EA3
:10302800106019EF18F01BEF18F006EF18F010B049
:1030380020EF18F022EF18F023EF18F0139ED89025
:10304800103210C00BF00C6A0D6A0E6A0BC00EF03D
:103058000D6A0C6A0B6A0B5011120C5012120D50AB
:1030680013120E5014120F50D8B43DEF18F03FEF62
:1030780018F047EF18F00ABE46EF18F044EF18F0C2
:1030880047EF18F0148E11C007F012C008F013C0F3
:1030980009F014C00AF01200000E0001716F6FBF32
:1030A8005AEF18F058EF18F06CEF18F06F1F6E1FFA
:1030B8006D1F6C1F6B1F6A1F691F686D000E6923E7
:1030C8006A236B236C236D236E236F23010E716FAC
:1030D80067BF73EF18F071EF18F085EF18F0671FEE
:1030E800661F651F641F631F621F611F606D000EEE
:1030F8006123622363236423652366236723010E08
:10310800711B20EE72F0070EDE6AE806FDE26851D8
:1031180069116A116B116C116D116E116F11D8B4B0
:1031280098EF18F09AEF18F0ECEF18F0010E706FA6
:10313800A8EF18F0D890683769376A376B376C375B
:103148006D376E376F37702B6FAFADEF18F0AFEF8D
:1031580018F09EEF18F0D8907237733774377537B8
:1031680076377737783779376851605D69516159B3
:103178006A5162596B5163596C5164596D51655963
:103188006E5166596F516759D8A0CDEF18F0CFEF3F
:1031980018F0E0EF18F06851605F6951615B6A519F
:1031A800625B6B51635B6C51645B6D51655B6E5127
:1031B800665B6F51675B7281D8906F336E336D3386
:1031C8006C336B336A3369336833702FAFEF18F0A1
:1031D8007151D8B4F2EF18F0F4EF18F004EF19F0C9
:1031E800791F781F771F761F751F741F731F726DE5
:1031F800000E73237423752376237723782379238A
:1032080072C060F073C061F074C062F075C063F0A2
:1032180076C064F077C065F078C066F079C067F072
:103228001200000E0001716F67BF1FEF19F01DEF4C
:1032380019F031EF19F0671F661F651F641F631FC0
:10324800621F611F606D000E612362236323642384
:10325800652366236723010E716F6FBF38EF19F07E
:1032680036EF19F048EF19F06F1F6E1F6D1F6C1FB6
:103278006B1F6A1F691F686D000E69236A236B2321
:103288006C236D236E236F23685169116A116B11CA
:103298006C116D116E116F11D8B455EF19F057EF0D
:1032A80019F09FEF19F0010E706F65EF19F0D890C3
:1032B800683769376A376B376C376D376E376F37F2
:1032C800702B6FAF6AEF19F06CEF19F05BEF19F024
:1032D8006851605D695161596A5162596B5163590E
:1032E8006C5164596D5165596E5166596F516759E2
:1032F800D8A081EF19F083EF19F093EF19F0685116
:10330800605F6951615B6A51625B6B51635B6C51D1
:10331800645B6D51655B6E51665B6F51675BD890FE
:103328006F336E336D336C336B336A3369336833A1
:10333800702F6CEF19F07151D8B4A5EF19F0A7EF01
:1033480019F0B7EF19F0671F661F651F641F631F29
:10335800621F611F606D000E612362236323642373
:1033680065236623672360C060F061C061F062C0B6
:1033780062F063C063F064C064F065C065F066C065
:1033880066F067C067F01200010E7EEC21F0410E76
:103398000001D46FEE0EE82EFED7D42FFCD700F034
:1033A800010E5E6E6EEF1AF0010E0001686FE00EFE
:1033B800696F7F0E6A6F020EBCEC1FF0300E0001C1
:1033C800BB6F010EBC6F860EBD6F7F0EBE6F5BC0FC
:1033D800BFF0C06B1DEC20F0010E0001686F300ECD
:1033E800696F010E6A6F030EBCEC1FF0130E00012B
:1033F800646F030E3EEC1FF00E0E7EEC21F0C30E40
:103408000001D46FCD0EE82EFED7D42FFCD70C0EBA
:103418007EEC21F03CEF1AF0300E0001BB6F010E7C
:10342800BC6F860EBD6F7F0EBE6F5BC0BFF0C06BFA
:103438001DEC20F0010E0001686F300E696F010E5F
:103448006A6F030EBCEC1FF05B2A640E5B642FEFFF
:103458001AF031EF1AF033EF1AF0000E5B6E410EDE
:103468000001D46FEE0EE82EFED7D42FFCD700F063
:1034780081A841EF1AF043EF1AF010EF1AF067EF46
:103488001AF0300E0001BB6F010EBC6F860EBD6FC7
:103498007F0EBE6F5BC0BFF0C06B1DEC20F0010E4D
:1034A8000001686F300E696F010E6A6F030EBCEC85
:1034B8001FF05B06410E0001D46FEE0EE82EFED71A
:1034C800D42FFCD700F081AA6CEF1AF06EEF1AF037
:1034D80045EF1AF0040E5C18D8B475EF1AF077EFC0
:1034E8001AF0D8EF19F01200000E00016E6F000EEE
:1034F8006D6F000E6C6F000E6B6F85EF1AF0664BE8
:10350800672B66C0F6FF67C0F7FF0800F550200A72
:10351800D8B491EF1AF093EF1AF083EF1AF066C05F
:10352800F6FF67C0F7FF0800F5CF68F0F70E6825CB
:10353800696F6A6BFF0E6A236A5109E1050E695DBE
:10354800D8A0A9EF1AF0ABEF1AF083EF1AF0B5EF95
:103558001AF0000E6C6F010E6B6F664B672BEBEF6A
:103568001AF066C0F6FF67C0F7FF0800F550686FED
:10357800696B6951000AD8B4C4EF1AF0EBEF1AF07E
:1035880068512B0AD8B4B1EF1AF0060AD8B4ADEFD7
:103598001AF0EBEF1AF06DC060F06EC061F0000E2B
:1035A800636F0A0E626F3FEC21F066C0F6FF67C0DA
:1035B800F7FF0800F5500001605F000E615B300EF8
:1035C80060256D6F000E61216E6FB1EF1AF066C055
:1035D800F6FF67C0F7FF0800F5CF68F0D00E682542
:1035E800696F6A6BFF0E6A236A5109E10A0E695D09
:1035F800D8A001EF1BF003EF1BF0CFEF1AF06B51CF
:103608006C11D8A40AEF1BF00CEF1BF01AEF1BF09B
:103618006DC068F06EC069F0681F691F684B692B40
:1036280068C066F069C067F01EEF1BF06DC066F0F9
:103638006EC067F012000001626F9598959A959C8C
:10364800959E8C988C9A8C9C8C9E8C92210EE82E40
:10365800FED700F062C060F00001603B0F0E6017FB
:10366800010E6017603B8C506019EF0B60198C6E6F
:1036780062C060F0050E616FD8906033612F40EF33
:103688001BF0010E6017603B60478C506019DF0B20
:1036980060198C6E62C060F0060E616FD89060335E
:1036A800612F52EF1BF0010E6017603B60476047C7
:1036B8008C506019BF0B60198C6E606B62AF01D0C3
:1036C800602B010E6017603360338C5060197F0BDC
:1036D80060198C6E8C82210EE82EFED700F08C9239
:1036E80062C060F0010E00016017603B8C506019E9
:1036F800EF0B60198C6E62C060F0D8906033070ED3
:103708006017603B60478C506019DF0B60198C6E46
:1037180062C060F0D8906033D8906033030E6017B1
:10372800603B604760478C506019BF0B60198C6E16
:1037380062C060F0D8906033D8906033D89060331E
:10374800010E6017603360338C5060197F0B60196D
:103758008C6E8C82210EE82EFED700F08C92958814
:10376800958A958C958E12000001C035C135C76FBA
:10377800C751D8A4C2EF1BF0C4EF1BF0CEEF1BF06B
:10378800000EBE6F000EBF6F000EC06F000EC16F3F
:103798003BEF1CF0BEC0C2F0BFC0C3F0C0C0C4F055
:1037A800C1C0C5F0200EDEEF1BF0D890C533C4337E
:1037B800C333C233E82ED9EF1BF0C251C66FC08F96
:1037C800FF0EBE17FF0EBF17FF0EC017000EC11762
:1037D800960EC75FC7BFF5EF1BF0F3EF1BF00BEFBB
:1037E8001CF0C751800A970FD8B0FDEF1BF0FFEF10
:1037F8001BF001EF1CF0C4EF1BF0D890C133C033AD
:10380800BF33BE33C73F01EF1CF023EF1CF01F0E80
:10381800C76511EF1CF013EF1CF01BEF1CF0C4EF91
:103828001BF0D890BE37BF37C037C137C707C7515D
:10383800D8A421EF1CF023EF1CF015EF1CF0C651A3
:10384800D8B429EF1CF02BEF1CF033EF1CF0C11F8C
:10385800C01FBF1FBE6D000EBF23C023C123BEC043
:10386800BEF0BFC0BFF0C0C0C0F0C1C0C1F0120000
:10387800000E00016015686F000E6115696F800EFB
:1038880062156A6F7F0E63156B6F685169116A1153
:103898006B11D8A452EF1CF054EF1CF05CEF1CF035
:1038A800000E606F000E616F000E626F000E636F96
:1038B800000E6415686F000E6515696F800E661539
:1038C8006A6F7F0E67156B6F685169116A116B110A
:1038D800D8A471EF1CF073EF1CF07BEF1CF0000E06
:1038E800646F000E656F000E666F000E676F63AF42
:1038F80080EF1CF082EF1CF08BEF1CF0606D611FF5
:10390800D8B0612B621FD8B0622B800E635767AFA7
:1039180090EF1CF092EF1CF09BEF1CF0646D651F9C
:10392800D8B0652B661FD8B0662B800E6757000E7F
:10393800601B000E611B000E621B800E631B000ED5
:10394800641B000E651B000E661B800E671B64510E
:10395800605D655161596651625967516359D8B0C4
:10396800B8EF1CF0BAEF1CF0BDEF1CF0D890BEEF1A
:103978001CF0D880120030343134376E3750D8A458
:10398800C8EF1CF0CAEF1CF0D4EF1CF0000E2E6E2E
:10399800000E2F6E000E306E000E316E41EF1DF0DE
:1039A8002EC032F02FC033F030C034F031C035F0C3
:1039B800200EE4EF1CF0D8903532343233323232F4
:1039C800E82EDFEF1CF03250366E308EFF0E2E16CA
:1039D800FF0E2F16FF0E3016000E3116960E375EAC
:1039E80037BEFBEF1CF0F9EF1CF011EF1DF037505C
:1039F800800A970FD8B003EF1DF005EF1DF007EF11
:103A08001DF0CAEF1CF0D890313230322F322E32EE
:103A1800373E07EF1DF029EF1DF01F0E376417EF33
:103A28001DF019EF1DF021EF1DF0CAEF1CF0D89022
:103A38002E362F363036313637063750D8A427EF92
:103A48001DF029EF1DF01BEF1DF03650D8B42FEFF5
:103A58001DF031EF1DF039EF1DF0311E301E2F1E05
:103A68002E6C000E2F22302231222EC02EF02FC0B5
:103A78002FF030C030F031C031F012000001625137
:103A88006311D8B44AEF1DF04CEF1DF055EF1DF04F
:103A980062516311D8A453EF1DF055EF1DF05AEF92
:103AA8001DF06051ABEC21F0A7EF1DF020EE09F0FE
:103AB8006251D9266351DA22DE50DE10D8B467EF9E
:103AC8001DF069EF1DF084EF1DF020EE09F0625142
:103AD800D9266351DA2210EE03F06251E1266351D0
:103AE800E222DE50E65CE650800A686FDE50800A0B
:103AF8006859D8B082EF1DF084EF1DF0A7EF1DF0D4
:103B080020EE03F06251D9266351DA22DECF64F049
:103B1800DDCF65F062C0D9FF63C0DAFFDECF66F0A3
:103B2800DDCF67F064516625D96E65516721DA6E7D
:103B380060C0DFFF20EE03F06251D9266351DA221C
:103B4800DE2A000EDD2212000001F5A1AEEF1DF005
:103B5800B0EF1DF0BAEF1DF072C069F073C06AF0E3
:103B680070C06BF071C06CF06FEC20F0000175BF95
:103B7800C0EF1DF0C2EF1DF0C8EF1DF074C079F062
:103B880075C07AF0CCEF1DF0000E7A6F000E796FD9
:103B9800000E786F000E776FDFEF1DF0000E616F7B
:103BA800200E606F70C062F071C063F042EC1DF0CF
:103BB8000001774B782B7951775D7851800A766FC1
:103BC8007A51800A7659D8A0ECEF1DF0EEEF1DF07F
:103BD800D2EF1DF0F5B1F3EF1DF0F5EF1DF0FFEF9B
:103BE8001DF072C069F073C06AF070C06BF071C0EC
:103BF8006CF06FEC20F01200959095929598959A3C
:103C0800959C959E8C90140E0001636F790EE82E9A
:103C1800FED7632FFCD700D0300E1FEC1BF0070E29
:103C28000001636F7D0EE82EFED7632FFCD7300EA0
:103C38001FEC1BF0210EE82EFED700F0320E1FEC11
:103C48001BF0210EE82EFED700F0210EE82EFED73D
:103C580000F02B0E1FEC1BF0210EE82EFED700F013
:103C6800080E1FEC1BF0210EE82EFED700F00F0EF9
:103C78001FEC1BF0210EE82EFED700F0010E1FEC02
:103C88001BF0210EE82EFED700F0060E1FEC1BF0ED
:103C9800210EE82EFED700F00F0E1FEC1BF0210EB0
:103CA800E82EFED700F012000001CA6F000E0001D6
:103CB800A96F000EAA6FC80EAB6F420EAC6FCAC0D8
:103CC80060F0616BFBC062F0FCC063F03FEC21F078
:103CD800000160C066F061C067F0000E67BFFF0EAC
:103CE800686F696F010E9AEC16F066C0A5F067C0A0
:103CF800A6F068C0A7F069C0A8F065EC08F0A5C0F8
:103D0800BEF0A6C0BFF0A7C0C0F0A8C0C1F0B8EC14
:103D18001BF0BEC0CBF0BFC0CCF0CBC0C8F0CCC04D
:103D2800C9F00001C935C933C833C935C933C833E7
:103D3800C851BE6ECBC0C8F0030EC817C83BBD50F3
:103D4800C819CF0BC819BD6E12003A6E000E196E55
:103D5800000E1A6EC80E1B6E420E1C6E3AC001F0A1
:103D6800026AFBC003F0FCC004F053EC21F001C070
:103D780007F002C008F0000E08BEFF0E096E0A6EBA
:103D8800010E76EC17F007C015F008C016F009C050
:103D980017F00AC018F033EC0AF015C02EF016C060
:103DA8002FF017C030F018C031F0BFEC1CF02EC057
:103DB8003BF02FC03CF03BC038F03CC039F0393400
:103DC800393238323934393238323850BE6E3BC025
:103DD80038F0030E3816383ABD503818CF0B38185B
:103DE800BD6E1200010E7EEC21F035EF1FF0300E93
:103DF8000001BB6F010EBC6FEF0EBD6F7F0EBE6F73
:103E080053C0BFF054C0C0F01DEC20F0010E0001FB
:103E1800686F300E696F010E6A6F020EBCEC1FF0FE
:103E2800300E0001BB6F010EBC6F290EBD6F7F0EF7
:103E3800BE6F51C0BFF052C0C0F04DC0C1F04EC0FF
:103E4800C2F0000EC46F000EC36F1DEC20F0010E0F
:103E58000001686F300E696F010E6A6F030EBCECCB
:103E68001FF05C50D8B43BEF1FF03DEF1FF0FBEFA5
:103E78001EF012000001676F5AEF1FF064517F0FA8
:103E88007EEC21F078EF1FF06451BF0F7EEC21F03B
:103E980078EF1FF06451930F7EEC21F078EF1FF05C
:103EA8006451D30F7EEC21F078EF1FF000016751C9
:103EB800656F666B6651000AD8B465EF1FF078EF3E
:103EC8001FF06551010AD8B442EF1FF0030AD8B4B5
:103ED80048EF1FF0010AD8B44EEF1FF0070AD8B414
:103EE80054EF1FF078EF1FF0820E0001656FDD0EB2
:103EF800E82EFED7652FFCD700D08C901200000E5C
:103F08000001696F000E616F000E606F98EC21F080
:103F18000001686F000E616F010E606F98EC21F070
:103F28000001696F6829D8A49CEF1FF09EEF1FF06D
:103F3800ACEF1FF06929D8A4A4EF1FF0A6EF1FF07B
:103F4800ACEF1FF0020E676F260E666FB7EF1FF01B
:103F5800685169C064F0656B64C065F0646B641196
:103F6800666F6551676F66C062F067C063F01200E4
:103F780000016B6F68C064F000016B513EEC1FF0EC
:103F8800DBEF1FF069C0F6FF6AC0F7FFF86A070E9B
:103F9800F76403D00800F55005D0F6CFE1FFF7CF5E
:103FA800E2FFE75087EC21F00001694B6A2B69C0FA
:103FB800F6FF6AC0F7FFF86A070EF76403D0080037
:103FC800F55005D0F6CFE1FFF7CFE2FFE750000943
:103FD800D8A4F1EF1FF0F3EF1FF0C6EF1FF01200A7
:103FE800E80EF66E420EF76E000EF86E01EE30F037
:103FF80010EE14F00900F5CFEEFFE550E150FAE1BC
:1040080001EE00F0300EEE6AE806FDE100EEDBF0AE
:10401800200EEE6AE806FDE100EE45F01A0EEE6AA3
:10402800E806FDE15F905F92000EF86E000180EFF8
:1040380015F0BF0E0001C76F000EC86FBBC0C9F0F6
:10404800BCC0CAF0000ECD6F000ECC6F000ED36F4F
:10405800000ED26FC90EB36F000EB46FBDC0B5F0BD
:10406800BEC0B6F0C70EB76F000EB86F46EC20F0B2
:104078000001CC51BB25D96ECD51BC21DA6E000EA2
:10408800DF6E1200B5C0B9F0B6C0BAF05BEF20F031
:10409800B3C09EF0B4C09FF0B90E0001A06F000E2F
:1040A800A16FB7C0A2F0B8C0A3F0D0EC11F0B9C0AE
:1040B800F6FFBAC0F7FF0800F5500009D8A467EF6B
:1040C80020F069EF20F04CEF20F0000E0001B46FF3
:1040D800000EB36F1200000E00016F6F000E6E6FBE
:1040E80082EF20F06DC060F0616B6BC062F06CC055
:1040F80063F042EC1DF000016E4B6F2B6E51692589
:10410800D96E6F516A21DA6EDF506D6F6D51D8A488
:1041180090EF20F092EF20F076EF20F01200010EE1
:104128000001646F200E60196111D8B49EEF20F071
:10413800A0EF20F0B3EF20F0F70E6025626FFF0EBE
:104148006121636F635109E1050E625DD8A0AFEF8D
:1041580020F0B1EF20F0B3EF20F0000E646F64C0E0
:1041680060F0616B1200000E0001A11B000EA21B83
:10417800000EA31B800EA41B9DC08DF09EC08EF068
:104188009FC08FF0A0C090F0A1C091F0A2C092F0A3
:10419800A3C093F0A4C094F009EC00F08DC09DF08A
:1041A8008EC09EF08FC09FF090C0A0F0120000015A
:1041B80073BFE9EF20F0735106E17205D8B0E7EF5D
:1041C80020F0E9EF20F0F7EF20F072C074F073C030
:1041D80075F0741F751F744B752B74C072F075C021
:1041E80073F0FBEF20F072C072F073C073F012002E
:1041F800D00E00016025626FFF0E6121636F63516D
:104208000AE10A0E625DD8A00CEF21F00FEF21F051
:10421800010E10EF21F0000E606F616B120004C0F8
:1042280006F005500F0B076E000E026E000E016EB1
:1042380006C003F029EC21F0000E026E010E016E9B
:1042480007C003F029EC21F0120001C0A9FF03C048
:10425800A8FFA69EA69CA684550EA76EAA0EA76EBA
:10426800A682A1A83AEF21F03CEF21F035EF21F02A
:10427800A198A6941200000160516203F3CF64F084
:10428800F4CF65F060516303F35065276151620311
:10429800F350652764C060F065C061F012000150FA
:1042A8000302F3CF05F0F4CF06F001500402F350F7
:1042B800062602500302F350062605C001F006C088
:1042C80002F01200F28EF28CF296F290F292F288DC
:1042D800F18CF090F086F19AF092F088F198120043
:1042E80020000000000000000000000000000000A6
:1042F800000000000001636F8C90000163511FEC07
:104308001BF08C9012000001636F8C8000016351D8
:104318001FEC1BF08C901200030ED56E0B0ED76E9F
:10432800DC0ED66EF28A120060C0A9FFA69EA69C7B
:10433800A680A8501200D59E1200CA941200D59EDD
:104348001200CA941200D58E1200CA8412001200FC
:107EF4000054696D655F5056202D3E202530326454
:107F04003A253032643A253032640054696D655F35
:107F14005356202D3E20253032643A253032643ABF
:107F24002530326400202054696D65202D3E2025C3
:107F34003032643A253032643A25303264006B7052
:107F44003D25303364206B693D25303364206B64F8
:107F54003D25303364002020205365742052504D59
:107F6400202D3E20256425642564256400202020DE
:107F740020202020202020202020202020202020FD
:107F84002000202044757479204379636C65202D8A
:107F94003E20253033640052504D206F72205469C6
:107FA4006D65206973207A65726F00202020204659
:107FB400696E204465204369636C6F0052504D5FC5
:107FC400505620202D3E20253034640052504D5F01
:107FD400535620202D3E20253034640020202020BC
:107FE4002020546573742050574D00202052504D6A
:0B7FF40020202D3E20253034640000CA
:020000040020DA
:08000000FFFFFFFFFFFFFFFF00
:020000040030CA
:0E0000000000181EFF8181FF0FC00FE00F40AF
:00000001FF
