:0400000007EF00F016
:100008005F8263ED08F0CEEF14F00001A351800B7E
:10001800AC6FA351A325AE6FA2AF15EF00F017EF99
:1000280000F018EF00F0AE81AE51D8B41EEF00F02A
:1000380020EF00F035EF00F0AE29D8A426EF00F04D
:1000480028EF00F030EF00F0000EA06F000EA16F57
:10005800000EA26F000EA36FA28F000EA36F3DEFDC
:1000680000F0000EA06F000EA16F000EA26F000E30
:10007800A36FA751800BAD6FAC51AD19D8B447EF42
:1000880000F049EF00F04AEF00F0AC8DA751A7252A
:10009800AD6FA6AF52EF00F054EF00F055EF00F04F
:1000A800AD81AD51D8B45BEF00F05DEF00F072EFB9
:1000B80000F0AD29D8A463EF00F065EF00F06DEF14
:1000C80000F0000EA46F000EA56F000EA66F000EC4
:1000D800A76FA68F000EA76F7AEF00F0000EA46F2F
:1000E800000EA56F000EA66F000EA76FAE51AD5D96
:1000F800D8B081EF00F083EF00F0AAEF00F0ACADCC
:1001080088EF00F08AEF00F08CEF00F0800EAC1B57
:10011800AEC0AFF0ADC0AEF0AFC0ADF0A0C0AFF0B4
:10012800A4C0A0F0AFC0A4F0A1C0AFF0A5C0A1F0DA
:10013800AFC0A5F0A2C0AFF0A6C0A2F0AFC0A6F0B5
:10014800A3C0AFF0A7C0A3F0AFC0A7F0000EAF6F79
:10015800AE51ADC0A8F0A96BA85F000EA95BA9BFFE
:10016800BFEF00F0A95109E11A0EA85DD8A0BFEFB2
:1001780000F0C1EF00F0F8EF00F0A051A111A211BA
:10018800A311D8A4CAEF00F0CDEF00F0010ECEEF16
:1001980000F0000EAF6F000EA06F000EA16F000EF2
:1001A800A26F000EA36FADC0AEF001EF01F0AFA1DA
:1001B800E0EF00F0E2EF00F0E8EF00F0D890AF31A8
:1001C8000109AF6FEAEF00F0D890AF33A0A1EFEFCD
:1001D80000F0F1EF00F0F2EF00F0AF8FA335A3339A
:1001E800A233A133A033AE2BAD51AE5DD8A0FFEF43
:1001F80000F001EF01F0DBEF00F0ACBD06EF01F01D
:1002080008EF01F048EF01F0AE51D8A40EEF01F06D
:1002180010EF01F01AEF01F0000EA06F000EA16FB1
:10022800000EA26F000EA36F69EF02F0A451A02781
:10023800A551A123A651A223A751A323A3A127EF28
:1002480001F029EF01F0D5EF01F0AFA12EEF01F099
:1002580030EF01F036EF01F0D890AF310109AF6F00
:1002680038EF01F0D890AF33A0A13DEF01F03FEF98
:1002780001F040EF01F0AF8FA335A333A233A133D0
:10028800A033AE2BD5EF01F0A451A05DA551A15923
:10029800A651A259A351800AA86FA751800AA8594C
:1002A800D8B059EF01F05BEF01F086EF01F0A051F3
:1002B800A45DA86FA151A559A96FA251A659AA6F0B
:1002C800A351A759AB6FFF0EA825A06FFF0EA92158
:1002D800A16FFF0EAA21A26FFF0EAB21A36F800EA4
:1002E800AC1BAF6DAF51D8A47CEF01F07EEF01F0ED
:1002F8008EEF01F0010EA027000EA123A223A32355
:100308008EEF01F0A451A05FA551A15BA651A25B9D
:10031800A751A35BA051A111A211A311D8A497EFD3
:1003280001F099EF01F0CEEF01F0AF51D8A49FEFA3
:1003380001F0A1EF01F0CEEF01F0000EA06F000E6A
:10034800A16F000EA26F000EA36F69EF02F0D890A4
:10035800A037A137A237A337AFAFB5EF01F0B7EF9A
:1003680001F0B8EF01F0A081AFA1BDEF01F0BFEF40
:1003780001F0C3EF01F0D880AF37C5EF01F0D89096
:10038800AF37AE51D8B4CBEF01F0CDEF01F0CEEFDF
:1003980001F0AE07A2AFD3EF01F0D5EF01F0ABEF5C
:1003A80001F0000EAD6FAFAFDCEF01F0DEEF01F052
:1003B800F6EF01F0AFC0A8F07F0EA817D8B4E7EFAA
:1003C80001F0E9EF01F0EDEF01F0010EAD6FF6EF8E
:1003D80001F0A0A1F2EF01F0F4EF01F0F6EF01F067
:1003E800E9EF01F0AD51D8B4FCEF01F0FEEF01F0F8
:1003F80029EF02F0010EA027000EA123A223A323B8
:10040800A3A109EF02F00BEF02F029EF02F0A0C060
:10041800A8F0A1C0A9F0A2C0AAF0A3C0ABF0AB3568
:10042800AB33AA33A933A833A8C0A0F0A9C0A1F060
:10043800AAC0A2F0ABC0A3F0AE29D8B426EF02F050
:1004480028EF02F029EF02F0AE2BAE29D8B42FEF37
:1004580002F031EF02F039EF02F0AE51D8A437EFD5
:1004680002F039EF02F04BEF02F0000EA06F000E21
:10047800A16F000EA26F000EA36FAE51D8A447EF74
:1004880002F049EF02F04BEF02F0000EAC6FAEA1A4
:1004980050EF02F052EF02F055EF02F0A28F56EF44
:1004A80002F0A29FD890AE31A36FACAF5EEF02F01E
:1004B80060EF02F061EF02F0A38FA0C0A0F0A1C02E
:1004C800A1F0A2C0A2F0A3C0A3F0120000017151D4
:1004D800800B7A6F71517125806F70AF76EF02F0E3
:1004E80078EF02F079EF02F080818051D8B47FEF85
:1004F80002F081EF02F094EF02F08029D8A487EF90
:1005080002F089EF02F091EF02F0000E6E6F000E1C
:100518006F6F000E706F000E716F708F9CEF02F09E
:10052800000E6E6F000E6F6F000E706F000E716F11
:100538007551800B7A1B755175257F6F74AFA7EFC6
:1005480002F0A9EF02F0AAEF02F07F817F51D8B440
:10055800B0EF02F0B2EF02F0C5EF02F07F29D8A4A5
:10056800B8EF02F0BAEF02F0C2EF02F0000E726FBD
:10057800000E736F000E746F000E756F748FCDEFE1
:1005880002F0000E726F000E736F000E746F000E93
:10059800756F7F51D8B4D3EF02F0D5EF02F0DDEFDD
:1005A80002F08051D8A4DBEF02F0DDEF02F0E7EFB4
:1005B80002F0000E6E6F000E6F6F000E706F000E6F
:1005C800716F7FEF04F074516E03F3CF85F0F4CFB1
:1005D80086F085517B6F7C6B7D6B7E6B8651816F5E
:1005E800826B836B846B73516F03F3CF85F0F4CF09
:1005F80086F085517B27000E7C237D237E23865140
:100608008127000E82238323842372517003F3CF42
:1006180085F0F4CF86F085517B27000E7C237D235F
:100628007E2386518127000E8223832384237DC065
:100638007EF07CC07DF07BC07CF07B6B72516F03D9
:10064800F3CF85F0F4CF86F085517B2786517C2344
:10065800000E7D23000E7E2373516E03F3CF85F0C9
:10066800F4CF86F085517B2786517C23000E7D23AD
:10067800000E7E237DC07EF07CC07DF07BC07CF0C8
:100688007B6B72516E03F3CF85F0F4CF86F0855102
:100698007B2786517C23000E7D23000E7E23745118
:1006A8006F03F3CF85F0F4CF86F08551812786510B
:1006B8008223000E8323000E842373517003F3CF2B
:1006C80085F0F4CF86F08551812786518223000E6C
:1006D8008323000E842374517003F3CF85F0F4CF85
:1006E80086F08551766F8651776F786B796B78C015
:1006F80079F077C078F076C077F0766B76518127FD
:100708007751822378518323795184237BC076F0F3
:100718007CC077F07DC078F07EC079F0190E9AEF32
:1007280003F0D8907933783377337633E82E95EF22
:1007380003F07651812777518223785183237951A9
:1007480084237DC07EF07CC07DF07BC07CF07B6B19
:100758007F5180C076F0776B7627000E7723820E64
:100768007625856FFF0E7721866FD0EF03F0D8903E
:1007780081378237833784377EAFC5EF03F0C7EF01
:1007880003F0C8EF03F08181D8907B377C377D3741
:100798007E378507D8A0860783AFD5EF03F0D7EF5C
:1007A80003F0BBEF03F0000E7F6F7EAFDEEF03F0C8
:1007B800E0EF03F004EF04F0FF0E7B15766FFF0EF9
:1007C8007C15776FFF0E7D15786F7F0E7E15796F1C
:1007D8007651771178117911D8B4F5EF03F0F7EF66
:1007E80003F0FBEF03F0010E7F6F04EF04F081A12B
:1007F80000EF04F002EF04F004EF04F0F7EF03F069
:100808007F51D8B40AEF04F00CEF04F030EF04F095
:10081800010E8127000E82238323842384A117EFEE
:1008280004F019EF04F030EF04F081C076F082C0D4
:1008380077F083C078F084C079F0793579337833EC
:100848007733763376C081F077C082F078C083F052
:1008580079C084F0854B862B86BF3BEF04F0865128
:1008680008E18529D8A03BEF04F03DEF04F047EFFD
:1008780004F0000E816F000E826F800E836F7F0E72
:10088800846F75EF04F086BF54EF04F0865106E1DB
:100898008505D8B052EF04F054EF04F060EF04F08F
:1008A800000E816F000E826F000E836F000E846F42
:1008B800000E7A6F75EF04F085C080F0FF0E811787
:1008C800FF0E82177F0E8317000E841780A16FEF2B
:1008D80004F071EF04F072EF04F0838FD890803148
:1008E800846F7A51841381C06EF082C06FF083C028
:1008F80070F084C071F012001250800B1B6E125001
:100908001224216E11AE8BEF04F08DEF04F08EEF00
:1009180004F021802150D8B494EF04F096EF04F04D
:10092800A9EF04F02128D8A49CEF04F09EEF04F06E
:10093800A6EF04F0000E0F6E000E106E000E116E82
:10094800000E126E118EB1EF04F0000E0F6E000E45
:10095800106E000E116E000E126E1650800B1B1AD0
:1009680016501624206E15AEBCEF04F0BEEF04F04E
:10097800BFEF04F020802050D8B4C5EF04F0C7EFD3
:1009880004F0DAEF04F02028D8A4CDEF04F0CFEF7C
:1009980004F0D7EF04F0000E136E000E146E000E74
:1009A800156E000E166E158EE2EF04F0000E136E33
:1009B800000E146E000E156E000E166E2050D8B480
:1009C800E8EF04F0EAEF04F0F2EF04F02150D8A4C5
:1009D800F0EF04F0F2EF04F0FCEF04F0000E0F6EFD
:1009E800000E106E000E116E000E126E94EF06F0DF
:1009F80015500F02F3CF26F0F4CF27F026501C6EC7
:100A08001D6A1E6A1F6A2750226E236A246A256A95
:100A180014501002F3CF26F0F4CF27F026501C26EE
:100A2800000E1D221E221F2227502226000E2322DE
:100A38002422252213501102F3CF26F0F4CF27F0F9
:100A480026501C26000E1D221E221F222750222659
:100A5800000E2322242225221EC01FF01DC01EF0D6
:100A68001CC01DF01C6A13501002F3CF26F0F4CFFF
:100A780027F026501C2627501D22000E1E22000E8D
:100A88001F2214500F02F3CF26F0F4CF27F0265080
:100A98001C2627501D22000E1E22000E1F221EC0DB
:100AA8001FF01DC01EF01CC01DF01C6A13500F0261
:100AB800F3CF26F0F4CF27F026501C2627501D220E
:100AC800000E1E22000E1F2215501002F3CF26F032
:100AD800F4CF27F02650222627502322000E242266
:100AE800000E252214501102F3CF26F0F4CF27F080
:100AF8002650222627502322000E2422000E2522CB
:100B080015501102F3CF26F0F4CF27F02650176EB8
:100B18002750186E196A1A6A19C01AF018C019F005
:100B280017C018F0176A1750222618502322195098
:100B380024221A5025221CC017F01DC018F01EC010
:100B480019F01FC01AF0190EAFEF05F0D8901A323D
:100B5800193218321732E82EAAEF05F0175022265C
:100B680018502322195024221A5025221EC01FF083
:100B78001DC01EF01CC01DF01C6A205021C017F0BB
:100B8800186A1726000E1822820E1724266EFF0EEA
:100B98001820276EE5EF05F0D89022362336243644
:100BA80025361FAEDAEF05F0DCEF05F0DDEF05F0D6
:100BB8002280D8901C361D361E361F362606D8A031
:100BC800270624AEEAEF05F0ECEF05F0D0EF05F0CC
:100BD800000E206E1FAEF3EF05F0F5EF05F019EFEC
:100BE80006F0FF0E1C14176EFF0E1D14186EFF0E74
:100BF8001E14196E7F0E1F141A6E17501810191034
:100C08001A10D8B40AEF06F00CEF06F010EF06F051
:100C1800010E206E19EF06F022A015EF06F017EF6F
:100C280006F019EF06F00CEF06F02050D8B41FEFCD
:100C380006F021EF06F045EF06F0010E2226000E21
:100C480023222422252225A02CEF06F02EEF06F0E1
:100C580045EF06F022C017F023C018F024C019F0A1
:100C680025C01AF01A341A3219321832173217C03E
:100C780022F018C023F019C024F01AC025F0264A23
:100C8800272A27BE50EF06F0275008E12628D8A0CB
:100C980050EF06F052EF06F05CEF06F0000E226E01
:100CA800000E236E800E246E7F0E256E8AEF06F0EE
:100CB80027BE69EF06F0275006E12604D8B067EF93
:100CC80006F069EF06F075EF06F0000E226E000ED2
:100CD800236E000E246E000E256E000E1B6E8AEF2A
:100CE80006F026C021F0FF0E2216FF0E23167F0EF7
:100CF8002416000E251621A084EF06F086EF06F0D4
:100D080087EF06F0248ED8902130256E1B502512CF
:100D180022C00FF023C010F024C011F025C012F03B
:100D2800120000018A51800B976F8A518A259E6FA5
:100D380089AFA1EF06F0A3EF06F0A4EF06F09E81BD
:100D48009E51D8B4AAEF06F0ACEF06F0C1EF06F05A
:100D58009E29D8A4B2EF06F0B4EF06F0BCEF06F077
:100D6800000E876F000E886F000E896F000E8A6F65
:100D7800898F000E8A6FC9EF06F0000E876F000E8C
:100D8800886F000E896F000E8A6F8E51800B971B3B
:100D98008E518E259F6F8DAFD4EF06F0D6EF06F0FB
:100DA800D7EF06F09F819F51D8B4DDEF06F0DFEF53
:100DB80006F0F4EF06F09F29D8A4E5EF06F0E7EF78
:100DC80006F0EFEF06F0000E8B6F000E8C6F000E32
:100DD8008D6F000E8E6F8D8F000E8E6FFCEF06F0FC
:100DE800000E8B6F000E8C6F000E8D6F000E8E6FD5
:100DF8008B518C118D118E11D8A405EF07F007EFD8
:100E080007F01FEF07F0000E876F000E886F000EC7
:100E1800896F000E8A6F800E89137F0E8A1397518F
:100E28008A1387C087F088C088F089C089F08AC093
:100E38008AF062EF08F09E51D8A425EF07F027EF5B
:100E480007F031EF07F0000E876F000E886F000E75
:100E5800896F000E8A6F62EF08F09F519EC08FF075
:100E6800906B8F5F000E905B7F0E8F25986F000E42
:100E78009021996F87C093F088C094F089C095F04D
:100E88008AC096F0000E876F000E886F000E896F7B
:100E9800000E8A6F000E9A6F000E9B6F000E9C6FFB
:100EA800000E9D6F000E9F6F92EF07F09F51D8B410
:100EB80060EF07F062EF07F079EF07F0D89093370B
:100EC800943795379637D8908737883789378A3750
:100ED8009DAF71EF07F073EF07F074EF07F08781AC
:100EE800D8909A379B379C379D378B51935D8C519F
:100EF80094598D5195598E519659D8A086EF07F07F
:100F080088EF07F091EF07F09D8D8B51935F8C511F
:100F1800945B8D51955B8E51965B9F2B190E9F6547
:100F280098EF07F09AEF07F05AEF07F093519411F2
:100F380095119611D8B4A3EF07F0A5EF07F0BDEF10
:100F480007F09A81BDEF07F0D8908737883789373F
:100F58008A379DAFB2EF07F0B4EF07F0B5EF07F0AF
:100F68008781D8909A379B379C379D379807D8A0A8
:100F7800990789AFC2EF07F0C4EF07F0A8EF07F0B1
:100F8800000E9F6F9DAFCBEF07F0CDEF07F0F1EFAD
:100F980007F0FF0E9A158F6FFF0E9B15906FFF0ECF
:100FA8009C15916F7F0E9D15926F8F519011911125
:100FB8009211D8B4E2EF07F0E4EF07F0E8EF07F09A
:100FC800010E9F6FF1EF07F087A1EDEF07F0EFEF4C
:100FD80007F0F1EF07F0E4EF07F09F51D8B4F7EF0F
:100FE80007F0F9EF07F01DEF08F0010E8727000E54
:100FF800882389238A238AA104EF08F006EF08F0E2
:101008001DEF08F087C08FF088C090F089C091F07C
:101018008AC092F092359233913390338F338FC0D8
:1010280087F090C088F091C089F092C08AF0984B00
:10103800992B99BF28EF08F0995108E19829D8A071
:1010480028EF08F02AEF08F035EF08F0000E996F46
:101058009869000E876F000E886F000E896F000E6A
:101068008A6F99BF42EF08F0995106E19805D8B008
:1010780040EF08F042EF08F050EF08F0000E996FCB
:10108800000E986F000E876F000E886F000E896F34
:10109800000E8A6F000E976F98C09EF09EA157EFC2
:1010A80008F059EF08F05CEF08F0898F5DEF08F061
:1010B800899FD8909E318A6F13EF07F012000600BF
:1010C800F3CF33F0F4CF34F0F2A26DEF08F06FEF06
:1010D80008F083EF08F05D50D8A475EF08F077EFBB
:1010E80008F07FEF08F05E50D8B47DEF08F07FEF8E
:1010F80008F083EF08F00001EC4BED2BF292F2A41C
:1011080088EF08F08AEF08F014EF09F05D50D8A4D2
:1011180090EF08F092EF08F09AEF08F05E50D8B41C
:1011280098EF08F09AEF08F014EF09F00B0ED76E5D
:10113800DC0ED66EF7C013F0F8C014F0F9C015F045
:10114800FAC016F0ECC001F0EDC002F0000E02BECD
:10115800FF0E036E046E010EA6EC0EF001C00FF038
:1011680002C010F003C011F004C012F080EC04F0CB
:101178000FC028F010C029F011C02AF012C02BF0BF
:10118800BCEC12F028C059F029C05AF0000E00013A
:10119800ED6F000EEC6F5C04D8A4D5EF08F0D7EF24
:1011A80008F013EF09F04F06D8A0500650BEE1EF43
:1011B80008F0DFEF08F0F6EF08F05306D8A0540661
:1011C800000E506E3B0E4F6E54BEEFEF08F0EDEF81
:1011D80008F0F6EF08F0F007D8A0F107000E546EFB
:1011E8003B0E536EF051F111D8A4FDEF08F0FFEF5C
:1011F80008F013EF09F053505410D8A406EF09F083
:1012080008EF09F013EF09F04F505010D8A40FEF72
:1012180009F011EF09F013EF09F0010E5B6EF2947B
:10122800F0A019EF09F01BEF09F05BEF09F05C047F
:10123800D8A421EF09F023EF09F027EF09F0000EF9
:101248005C6E5AEF09F05C50D8A42DEF09F02FEF2F
:1012580009F05AEF09F058BE3AEF09F0585008E182
:101268005704D8A03AEF09F03CEF09F058EF09F01D
:1012780056BE49EF09F0565006E15504D8B047EF7D
:1012880009F049EF09F056EF09F052BE54EF09F0A2
:10129800525008E15104D8A054EF09F056EF09F074
:1012A80058EF09F0010E5D6E010E5C6EF090F0A231
:1012B80060EF09F062EF09F0B7EF09F0C30E326E84
:1012C800CD0EE82EFED7322EFCD700F05C04D8A451
:1012D80070EF09F072EF09F076EF09F0000E5C6E1E
:1012E800B6EF09F05C50D8A47CEF09F07EEF09F066
:1012F80082EF09F0020E5C6EB6EF09F0020E5C1880
:10130800D8A489EF09F08BEF09F08FEF09F0030EED
:101318005C6EB6EF09F0030E5C18D8A496EF09F0DE
:1013280098EF09F09EEF09F0010E5E6E040E5C6EF8
:10133800B6EF09F0040E5C18D8A4A5EF09F0A7EFE2
:1013480009F0ABEF09F0050E5C6EB6EF09F0050E7B
:101358005C18D8A4B2EF09F0B4EF09F0B6EF09F0C1
:1013680072EF09F0F092F2A0BCEF09F0BEEF09F0BD
:10137800D8EF09F081B8C3EF09F0C5EF09F0D8EF4D
:1013880009F01A0E326EF80EE82EFED7322EFCD770
:1013980000D081B8D2EF09F0D4EF09F0D7EF09F007
:1013A800010E0001F56FF290F2A0DDEF09F0DFEF1A
:1013B80009F0F9EF09F081BAE4EF09F0E6EF09F076
:1013C800F9EF09F01A0E326EF80EE82EFED7322E1B
:1013D800FCD700D081BAF3EF09F0F5EF09F0F8EF88
:1013E80009F0010E0001F46FF29034C0F4FF33C02D
:1013F800F3FF5F9211007DC093F07EC094F07FC030
:1014080095F080C096F081C097F082C098F083C0B4
:1014180099F084C09AF000019ABF15EF0AF018EF0E
:101428000AF0010E19EF0AF0000E9D6F9D51D8B415
:1014380020EF0AF022EF0AF032EF0AF09A1F991F04
:10144800981F971F961F951F941F936D000E942346
:10145800952396239723982399239A23EBBF37EF55
:101468000AF039EF0AF03AEF0AF0F293EBBF47EFD0
:101478000AF0EB5106E1EA05D8B045EF0AF047EF6C
:101488000AF04DEF0AF0000E906F010E8F6F51EFCA
:101498000AF0EAC08FF0EBC090F0E8C091F0E9C024
:1014A80092F09D51D8B45BEF0AF05DEF0AF074EF4B
:1014B8000AF09107D8A092079D51D8A466EF0AF0C8
:1014C80068EF0AF06EEF0AF0000E8E6F2B0E8D6F2C
:1014D80072EF0AF0000E8E6F2D0E8D6F8DC09DF08D
:1014E800000E9C6F1F0E9B6F000E0101376FFAEF05
:1014F8000AF09B07D8A09C07180E9B25D96E010EF1
:101508009C21DA6E93C060F094C061F095C062F0DF
:1015180096C063F097C064F098C065F099C066F013
:101528009AC067F00A0E686F000E696F000E6A6F46
:10153800000E6B6F000E6C6F000E6D6F000E6E6FFD
:10154800000E6F6F45EC10F060C085F061C086F04A
:1015580062C087F063C088F064C089F065C08AF013
:1015680066C08BF067C08CF085C072F086C073F0DF
:10157800D9EC15F000017251300FDF6E8F07D8A03B
:1015880090079107D8A0920793C060F094C061F0CB
:1015980095C062F096C063F097C064F098C065F09B
:1015A80099C066F09AC067F00A0E686F000E696FFE
:1015B800000E6A6F000E6B6F000E6C6F000E6D6F81
:1015C800000E6E6F000E6F6F80EC0FF060C093F02E
:1015D80061C094F062C095F063C096F064C097F063
:1015E80065C098F066C099F067C09AF000019CBF8A
:1015F80006EF0BF09C5108E19B05D8A006EF0BF015
:1016080008EF0BF038EF0BF09351941195119611E8
:101618009711981199119A11D8A415EF0BF017EF9B
:101628000BF07DEF0AF090BF24EF0BF0905106E12C
:101638008F05D8B022EF0BF024EF0BF07DEF0AF006
:1016480092BF2FEF0BF0925108E19105D8A02FEF30
:101658000BF031EF0BF038EF0BF0F2B336EF0BF085
:1016680038EF0BF07DEF0AF09D51D8B43EEF0BF048
:1016780040EF0BF04BEF0BF09B07D8A09C07180E20
:101688009B25D96E010E9C21DA6E9DC0DFFF7BC0C1
:1016980070F07CC071F0180E9B25726F010E9C21B2
:1016A800736F91C074F092C075F0A5EC13F012003E
:1016B800A0C0D9FFA1C0DAFFDECFF6FFDDCFF7FF6C
:1016C8000800F550250AD8A46CEF0BF06EEF0BF06C
:1016D80096EF0CF0A0C0D9FFA1C0DAFFDE2A000EF9
:1016E800DD22000E0001E96F000EE86FE8C0F2F09D
:1016F800EA69EB69000EB06F000EAF6FAEEF0BF04A
:10170800F283A0C0D9FFA1C0DAFFDE2A000EDD22D5
:10171800AEEF0BF0000EB06F010EAF6FAEEF0BF037
:10172800A0C0D9FFA1C0DAFFDECFF6FFDDCFF7FFFB
:101738000800F550A46FA56BA551000AD8B4A7EF0F
:101748000BF08EEF0BF0A451300AD8B484EF0BF0F5
:101758008EEF0BF0AF51B011D8B4B5EF0BF0B7EF77
:101768000BF094EF0BF0A0C0D9FFA1C0DAFFDECFD9
:10177800F6FFDDCFF7FF0800F5502A0AD8A4C7EF17
:101788000BF0C9EF0BF0F2EF0BF0A0C0D9FFA1C02E
:10179800DAFFDE2A000EDD22A2C0D9FFA3C0DAFFDD
:1017A800DFCFA4F0020EDE26DFCFA5F0000EDD228B
:1017B800A4C0D9FFA5C0DAFFDECFE8F0DDCFE9F09D
:1017C800E9BFEBEF0BF0E9EF0BF026EF0CF0F2813D
:1017D800E86DE91FD8B0E92B26EF0CF0A0C0D9FFBF
:1017E800A1C0DAFFDECF66F0DDCF67F0F8EC10F0CD
:1017F80066C0E8F067C0E9F009EF0CF0A0C0D9FFB7
:10180800A1C0DAFFDE2A000EDD22A0C0D9FFA1C0E8
:10181800DAFFDECFF6FFDDCFF7FF0800F5CFA4F043
:10182800D00E0001A425A56FA66BFF0EA623A65116
:1018380009E10A0EA55DD8A024EF0CF026EF0CF004
:1018480002EF0CF0A0C0D9FFA1C0DAFFDECFB1F0E3
:10185800DDCFB2F0B1C0F6FFB2C0F7FF0800F55017
:10186800640AD8B43AEF0CF03CEF0CF04AEF0CF0F5
:10187800B1C0F6FFB2C0F7FF0800F550690AD8A456
:1018880048EF0CF04AEF0CF08DEF0CF0A2C0D9FF36
:10189800A3C0DAFFDFCFA4F0020EDE26DFCFA5F06B
:1018A800000EDD22A4C0D9FFA5C0DAFFDECFA7F065
:1018B800DDCFA8F0000EA8BFFF0EA96FAA6FAB6F0F
:1018C800AC6FAD6FAE6F010EB125A46F000EB221E3
:1018D800A56FA0C0D9FFA1C0DAFFA4C0DEFFA5C0D4
:1018E800DDFF9EC07BF09FC07CF0A7C07DF0A8C044
:1018F8007EF0A9C07FF0AAC080F0ABC081F0ACC078
:1019080082F0ADC083F0AEC084F0FFEC09F0ABEF1D
:101918000CF0A0C0D9FFA1C0DAFFDE2A000EDD223C
:10192800ABEF0CF0A0C0D9FFA1C0DAFFDECFF6FF05
:10193800DDCFF7FF0800F5500001606F616B9EC0B6
:1019480062F09FC063F03FEC13F08DEF0CF01200D3
:101958009494000E0001876F000E886F800E896FC7
:101968003F0E8A6FBAC060F0BBC061F0000E61BF65
:10197800FF0E626F636F010ECAEC0DF060C08BF052
:1019880061C08CF062C08DF063C08EF095EC06F0FB
:1019980087C0C3F088C0C4F089C0C5F08AC0C6F04B
:1019A800BD0E0001C76F370EC86F860EC96F340EA3
:1019B800CA6FBCC0CBF0000E726F000E736F800E42
:1019C800746F400E756FC7C06EF0C8C06FF0C9C0A5
:1019D80070F0CAC071F06AEC02F06EC0BFF06FC060
:1019E800C0F070C0C1F071C0C2F0000E0001A46F59
:1019F800000EA56F800EA66FBF0EA76FCB51606F4C
:101A0800616B626B636B010ECAEC0DF060C072F023
:101A180061C073F062C074F063C075F0BFC06EF04F
:101A2800C0C06FF0C1C070F0C2C071F06AEC02F0C3
:101A38006EC08BF06FC08CF070C08DF071C08EF0EE
:101A4800C3C087F0C4C088F0C5C089F0C6C08AF09A
:101A580095EC06F087C0A0F088C0A1F089C0A2F07C
:101A68008AC0A3F009EC00F0A0C0B0F0A1C0B1F0AA
:101A7800A2C0B2F0A3C0B3F038EC12F00001B0512C
:101A8800CB6EC7C072F0C8C073F0C9C074F0CAC0CA
:101A980075F0CB51606F616B626B636B010ECAECC2
:101AA8000DF060C06EF061C06FF062C070F063C08E
:101AB80071F06AEC02F06EC08BF06FC08CF070C0F1
:101AC8008DF071C08EF0C3C087F0C4C088F0C5C067
:101AD80089F0C6C08AF095EC06F087C0B0F088C0DF
:101AE800B1F089C0B2F08AC0B3F038EC12F0B0C0DF
:101AF800FBF0B1C0FCF0FBC0BDF0FCC0BEF00001C3
:101B0800BE35BE33BD33BE35BE33BD33BD51BE6EEB
:101B1800FBC0BDF0030EBD17BD3BBD50BD19CF0BBB
:101B2800BD19BD6E000ECA6EAAEF0DF0FC0ECA16E6
:101B3800C3EF0DF0CA50FC0B0109CA6EC3EF0DF0DC
:101B4800CA50FC0B0209CA6EC3EF0DF0CB51BD6F32
:101B5800BE6BBE51000AD8B4B4EF0DF0C3EF0DF060
:101B6800BD51010AD8B49AEF0DF0050AD8B49EEF1A
:101B78000DF0140AD8B4A4EF0DF0C3EF0DF0000E69
:101B8800CC6EBD50F00B0C09BD6E12000001686FE1
:101B980000016851D8B4D3EF0DF0D5EF0DF0F7EF91
:101BA8000DF063BFDCEF0DF0DAEF0DF0F7EF0DF09D
:101BB80060C064F061C065F062C066F063C067F041
:101BC800641F651F661F671F642B000E652366234D
:101BD800672364C06AF065C06BF066C06CF067C0CC
:101BE8006DF0FFEF0DF060C06AF061C06BF062C08D
:101BF8006CF063C06DF06051611162116311D8A47B
:101C080008EF0EF00AEF0EF014EF0EF0000E606F02
:101C1800000E616F000E626F000E636FA5EF0EF08D
:101C2800960E696F1EEF0EF0692BD8906D336C33EA
:101C38006B336A33000E6A15646F000E6B15656F9F
:101C4800000E6C15666FFE0E6D15676F6451651199
:101C580066116711D8A433EF0EF035EF0EF018EFC8
:101C68000EF043EF0EF0692B010E6A27000E6B236E
:101C78006C236D23D8906D336C336B336A33000E4D
:101C88006A15646F000E6B15656F000E6C15666F34
:101C9800FF0E6D15676F6451651166116711D8A441
:101CA80058EF0EF05AEF0EF037EF0EF062EF0EF02D
:101CB8006907D8906A376B376C376D376CBF67EF39
:101CC8000EF069EF0EF071EF0EF0020E69616FEF22
:101CD8000EF071EF0EF05CEF0EF069B176EF0EF0DA
:101CE80078EF0EF079EF0EF06C9FD890693369C0E9
:101CF80064F0656B666B676B64C067F0666B656BF9
:101D0800646B64516A1365516B1366516C136751A8
:101D18006D136851D8B493EF0EF095EF0EF09DEF68
:101D28000EF063BF9CEF0EF09AEF0EF09DEF0EF0F1
:101D38006D8F6AC060F06BC061F06CC062F06DC0FE
:101D480063F01200096E0950D8B4ADEF0EF0AFEF92
:101D58000EF0D1EF0EF004BEB6EF0EF0B4EF0EF0B9
:101D6800D1EF0EF001C005F002C006F003C007F085
:101D780004C008F0051E061E071E081E052A000ED0
:101D880006220722082205C00BF006C00CF007C087
:101D98000DF008C00EF0D9EF0EF001C00BF002C034
:101DA8000CF003C00DF004C00EF001500210031037
:101DB8000410D8A4E2EF0EF0E4EF0EF0EEEF0EF010
:101DC800000E016E000E026E000E036E000E046E11
:101DD8007FEF0FF0960E0A6EF8EF0EF00A2AD890F1
:101DE8000E320D320C320B32000E0B14056E000E43
:101DF8000C14066E000E0D14076EFE0E0E14086EFF
:101E08000550061007100810D8A40DEF0FF00FEFBB
:101E18000FF0F2EF0EF01DEF0FF00A2A010E0B265D
:101E2800000E0C220D220E22D8900E320D320C32EA
:101E38000B32000E0B14056E000E0C14066E000E0D
:101E48000D14076EFF0E0E14086E055006100710CD
:101E58000810D8A432EF0FF034EF0FF011EF0FF0A5
:101E68003CEF0FF00A06D8900B360C360D360E36BE
:101E78000DBE41EF0FF043EF0FF04BEF0FF0020EE6
:101E88000A6049EF0FF04BEF0FF036EF0FF00AB092
:101E980050EF0FF052EF0FF053EF0FF00D9ED89068
:101EA8000A320AC005F0066A076A086A05C008F01F
:101EB800076A066A056A05500B1206500C1207508D
:101EC8000D1208500E120950D8B46DEF0FF06FEFD5
:101ED8000FF077EF0FF004BE76EF0FF074EF0FF00E
:101EE80077EF0FF00E8E0BC001F00CC002F00DC0A2
:101EF80003F00EC004F01200000E0001716F6FBFF6
:101F08008AEF0FF088EF0FF09CEF0FF06F1F6E1F36
:101F18006D1F6C1F6B1F6A1F691F686D000E692398
:101F28006A236B236C236D236E236F23010E716F5D
:101F380067BFA3EF0FF0A1EF0FF0B5EF0FF0671F2A
:101F4800661F651F641F631F621F611F606D000E9F
:101F58006123622363236423652366236723010EB9
:101F6800711B20EE72F0070EDE6AE806FDE268518A
:101F780069116A116B116C116D116E116F11D8B462
:101F8800C8EF0FF0CAEF0FF01CEF10F0010E706FE2
:101F9800D8EF0FF0D890683769376A376B376C37E6
:101FA8006D376E376F37702B6FAFDDEF0FF0DFEFE8
:101FB8000FF0CEEF0FF0D89072377337743775374C
:101FC80076377737783779376851605D6951615965
:101FD8006A5162596B5163596C5164596D51655915
:101FE8006E5166596F516759D8A0FDEF0FF0FFEF9A
:101FF8000FF010EF10F06851605F6951615B6A5132
:10200800625B6B51635B6C51645B6D51655B6E51D8
:10201800665B6F51675B7281D8906F336E336D3337
:102028006C336B336A3369336833702FDFEF0FF02B
:102038007151D8B422EF10F024EF10F034EF10F003
:10204800791F781F771F761F751F741F731F726D96
:10205800000E73237423752376237723782379233B
:1020680072C060F073C061F074C062F075C063F054
:1020780076C064F077C065F078C066F079C067F024
:102088001200000E0001716F67BF4FEF10F04DEFA7
:1020980010F061EF10F0671F661F651F641F631F54
:1020A800621F611F606D000E612362236323642336
:1020B800652366236723010E716F6FBF68EF10F009
:1020C80066EF10F078EF10F06F1F6E1F6D1F6C1F1A
:1020D8006B1F6A1F691F686D000E69236A236B23D3
:1020E8006C236D236E236F23685169116A116B117C
:1020F8006C116D116E116F11D8B485EF10F087EF68
:1021080010F0CFEF10F0010E706F95EF10F0D8902F
:10211800683769376A376B376C376D376E376F37A3
:10212800702B6FAF9AEF10F09CEF10F08BEF10F060
:102138006851605D695161596A5162596B516359BF
:102148006C5164596D5165596E5166596F51675993
:10215800D8A0B1EF10F0B3EF10F0C3EF10F0685152
:10216800605F6951615B6A51625B6B51635B6C5183
:10217800645B6D51655B6E51665B6F51675BD890B0
:102188006F336E336D336C336B336A336933683353
:10219800702F9CEF10F07151D8B4D5EF10F0D7EF35
:1021A80010F0E7EF10F0671F661F651F641F631FBD
:1021B800621F611F606D000E612362236323642325
:1021C80065236623672360C060F061C061F062C068
:1021D80062F063C063F064C064F065C065F066C017
:1021E80066F067C067F01200000E00016E6F000E07
:1021F8006D6F000E6C6F000E6B6F05EF11F0664B84
:10220800672B66C0F6FF67C0F7FF0800F550200A85
:10221800D8B411EF11F013EF11F003EF11F066C00D
:10222800F6FF67C0F7FF0800F5CF68F0F70E6825DE
:10223800696F6A6BFF0E6A236A5109E1050E695DD1
:10224800D8A029EF11F02BEF11F003EF11F035EFC3
:1022580011F0000E6C6F010E6B6F664B672B6BEF06
:1022680011F066C0F6FF67C0F7FF0800F550686F09
:10227800696B6951000AD8B444EF11F06BEF11F0A3
:1022880068512B0AD8B431EF11F0060AD8B42DEFF3
:1022980011F06BEF11F06DC060F06EC061F0000ED0
:1022A800636F0A0E626F11EC16F066C0F6FF67C026
:1022B800F7FF0800F5500001605F000E615B300E0B
:1022C80060256D6F000E61216E6F31EF11F066C0F1
:1022D800F6FF67C0F7FF0800F5CF68F0D00E682555
:1022E800696F6A6BFF0E6A236A5109E10A0E695D1C
:1022F800D8A081EF11F083EF11F04FEF11F06B517F
:102308006C11D8A48AEF11F08CEF11F09AEF11F04C
:102318006DC068F06EC069F0681F691F684B692B53
:1023280068C066F069C067F09EEF11F06DC066F096
:102338006EC067F012000001626F9598959A959C9F
:10234800959E8C988C9A8C9C8C9E8C92210EE82E53
:10235800FED700F062C060F00001603B0F0E60170E
:10236800010E6017603B8C506019EF0B60198C6E82
:1023780062C060F0050E616FD8906033612FC0EFC6
:1023880011F0010E6017603B60478C506019DF0B3D
:1023980060198C6E62C060F0060E616FD890603371
:1023A800612FD2EF11F0010E6017603B6047604764
:1023B8008C506019BF0B60198C6E606B62AF01D0D6
:1023C800602B010E6017603360338C5060197F0BEF
:1023D80060198C6E8C82210EE82EFED700F08C924C
:1023E80062C060F0010E00016017603B8C506019FC
:1023F800EF0B60198C6E62C060F0D8906033070EE6
:102408006017603B60478C506019DF0B60198C6E59
:1024180062C060F0D8906033D8906033030E6017C4
:10242800603B604760478C506019BF0B60198C6E29
:1024380062C060F0D8906033D8906033D890603331
:10244800010E6017603360338C5060197F0B601980
:102458008C6E8C82210EE82EFED700F08C92958827
:10246800958A958C958E12000001B235B335B96FF7
:10247800B951D8A442EF12F044EF12F04EEF12F027
:10248800000EB06F000EB16F000EB26F000EB36F8A
:10249800BBEF12F0B0C0B4F0B1C0B5F0B2C0B6F046
:1024A800B3C0B7F0200E5EEF12F0D890B733B63352
:1024B800B533B433E82E59EF12F0B451B86FB28F78
:1024C800FF0EB017FF0EB117FF0EB217000EB317AD
:1024D800960EB95FB9BF75EF12F073EF12F08BEF7C
:1024E80012F0B951800A970FD8B07DEF12F07FEF44
:1024F80012F081EF12F044EF12F0D890B333B233F8
:10250800B133B033B93F81EF12F0A3EF12F01F0ED1
:10251800B96591EF12F093EF12F09BEF12F044EFD0
:1025280012F0D890B037B137B237B337B907B951CD
:10253800D8A4A1EF12F0A3EF12F095EF12F0B85162
:10254800D8B4A9EF12F0ABEF12F0B3EF12F0B31F4B
:10255800B21FB11FB06D000EB123B223B323B0C0B8
:10256800B0F0B1C0B1F0B2C0B2F0B3C0B3F0120075
:102578002A342B34316E3150D8A4C5EF12F0C7EF8E
:1025880012F0D1EF12F0000E286E000E296E000E28
:102598002A6E000E2B6E3EEF13F028C02CF029C0D7
:1025A8002DF02AC02EF02BC02FF0200EE1EF12F0F4
:1025B800D8902F322E322D322C32E82EDCEF12F04A
:1025C8002C50306E2A8EFF0E2816FF0E2916FF0E8D
:1025D8002A16000E2B16960E315E31BEF8EF12F059
:1025E800F6EF12F00EEF13F03150800A970FD8B0C3
:1025F80000EF13F002EF13F004EF13F0C7EF12F03F
:10260800D8902B322A3229322832313E04EF13F087
:1026180026EF13F01F0E316414EF13F016EF13F0CA
:102628001EEF13F0C7EF12F0D890283629362A3655
:102638002B3631063150D8A424EF13F026EF13F0CF
:1026480018EF13F03050D8B42CEF13F02EEF13F02E
:1026580036EF13F02B1E2A1E291E286C000E292285
:102668002A222B2228C028F029C029F02AC02AF0C3
:102678002BC02BF01200000162516311D8B447EF50
:1026880013F049EF13F052EF13F062516311D8A41D
:1026980050EF13F052EF13F057EF13F060515BEC6B
:1026A80016F0A4EF13F020EE09F06251D926635119
:1026B800DA22DE50DE10D8B464EF13F066EF13F0C0
:1026C80081EF13F020EE09F06251D9266351DA2226
:1026D80010EE03F06251E1266351E222DE50E65C1F
:1026E800E650800A686FDE50800A6859D8B07FEFDC
:1026F80013F081EF13F0A4EF13F020EE03F0625112
:10270800D9266351DA22DECF64F0DDCF65F062C0EE
:10271800D9FF63C0DAFFDECF66F0DDCF67F0645122
:102728006625D96E65516721DA6E60C0DFFF20EE3D
:1027380003F06251D9266351DA22DE2A000EDD2227
:1027480012000001F2A1ABEF13F0ADEF13F0B7EFF9
:1027580013F072C069F073C06AF070C06BF071C09A
:102768006CF091EC15F0000175BFBDEF13F0BFEFF1
:1027780013F0C5EF13F074C079F075C07AF0C9EFA3
:1027880013F0000E7A6F000E796F000E786F000E4E
:10279800776FDCEF13F0000E616F200E606F70C072
:1027A80062F071C063F03FEC13F00001774B782BB7
:1027B8007951775D7851800A766F7A51800A765917
:1027C800D8A0E9EF13F0EBEF13F0CFEF13F0F2B16D
:1027D800F0EF13F0F2EF13F0FCEF13F072C069F0B2
:1027E80073C06AF070C06BF071C06CF091EC15F0BA
:1027F8001200010E3DEC16F03CEF14F0380E00010B
:10280800BB6F010EBC6FEF0EBD6F7F0EBE6F57C062
:10281800BFF058C0C0F03FEC15F0010E0001686F22
:10282800380E696F010E6A6F020E07EC15F0380E4C
:102838000001BB6F010EBC6F270EBD6F7F0EBE6F10
:1028480055C0BFF056C0C0F051C0C1F052C0C2F070
:10285800000EC46F000EC36F3FEC15F0010E0001AF
:10286800686F380E696F010E6A6F030E07EC15F07A
:102878005C50D8B442EF14F044EF14F002EF14F0B7
:1028880012000001676F61EF14F064517F0F3DEC97
:1028980016F07FEF14F06451BF0F3DEC16F07FEF98
:1028A80014F06451930F3DEC16F07FEF14F064516F
:1028B800D30F3DEC16F07FEF14F000016751656F00
:1028C800666B6651000AD8B46CEF14F07FEF14F011
:1028D8006551010AD8B449EF14F0030AD8B44FEF90
:1028E80014F0010AD8B455EF14F0070AD8B45BEF16
:1028F80014F07FEF14F0820E0001656FDD0EE82EF4
:10290800FED7652FFCD700D08C90120025EC16F06E
:102918000F0EC16E936894908B904E0E0001BB6FA2
:10292800200EBA6F100EBC6FACEC0CF05C50D8A443
:10293800A0EF14F0A2EF14F0AAEF14F0000E5D6EF1
:102948004FEC16F0FDEC13F09AEF14F05C04D8A4E9
:10295800B0EF14F0B2EF14F0B4EF14F09AEF14F0F3
:10296800020E5C18D8A4BBEF14F0BDEF14F0BFEF53
:1029780014F09AEF14F0030E5C18D8A4C6EF14F004
:10298800C8EF14F0CAEF14F09AEF14F09AEF14F0AD
:1029980007EF00F0660EF66E2C0EF76E000EF86E5E
:1029A80001EE38F010EE14F00900F5CFEEFFE55017
:1029B800E150FAE1AA0EF66E2C0EF76E000EF86ED4
:1029C80000EEF7F010EE04F00900F5CFEEFFE55049
:1029D800E150FAE101EE00F0380EEE6AE806FDE19A
:1029E80000EED4F0230EEE6AE806FDE100EE35F0C5
:1029F8002A0EEE6AE806FDE15F905F92000EF86E1F
:102A080000018AEF14F000016B6F68C064F00001E8
:102A18006B5145EC14F026EF15F069C0F6FF6AC05B
:102A2800F7FFF86A070EF76403D00800F55005D0E1
:102A3800F6CFE9FFF7CFEAFFEF5046EC16F00001BA
:102A4800694B6A2B69C0F6FF6AC0F7FFF86A070E80
:102A5800F76403D00800F55005D0F6CFE9FFF7CFAB
:102A6800EAFFEF500009D8A43CEF15F03EEF15F04F
:102A780011EF15F01200BF0E0001C76F000EC86FEE
:102A8800BBC0C9F0BCC0CAF0000ECD6F000ECC6F41
:102A9800000ED36F000ED26FC90EB36F000EB46F65
:102AA800BDC0B5F0BEC0B6F0C70EB76F000EB86FA8
:102AB80068EC15F00001CC51BB25D96ECD51BC2175
:102AC800DA6E000EDF6E1200B5C0B9F0B6C0BAF00B
:102AD8007DEF15F0B3C09EF0B4C09FF0B90E0001B1
:102AE800A06F000EA16FB7C0A2F0B8C0A3F05CEC55
:102AF8000BF0B9C0F6FFBAC0F7FF0800F55000099F
:102B0800D8A489EF15F08BEF15F06EEF15F0000ED5
:102B18000001B46F000EB36F1200000E00016F6F5A
:102B2800000E6E6FA4EF15F06DC060F0616B6BC0A6
:102B380062F06CC063F03FEC13F000016E4B6F2B3A
:102B48006E516925D96E6F516A21DA6EDF506D6F4B
:102B58006D51D8A4B2EF15F0B4EF15F098EF15F059
:102B68001200010E0001646F200E60196111D8B4C3
:102B7800C0EF15F0C2EF15F0D5EF15F0F70E602590
:102B8800626FFF0E6121636F635109E1050E625D9B
:102B9800D8A0D1EF15F0D3EF15F0D5EF15F0000E52
:102BA800646F64C060F0616B1200000173BFE7EFEF
:102BB80015F0735106E17205D8B0E5EF15F0E7EFAF
:102BC80015F0F5EF15F072C074F073C075F0741F4E
:102BD800751F744B752B74C072F075C073F0F9EFE4
:102BE80015F072C072F073C073F01200D00E0001BD
:102BF8006025626FFF0E6121636F63510AE10A0E5F
:102C0800625DD8A00AEF16F00DEF16F0010E0EEF78
:102C180016F0000E606F616B1200000160516203D4
:102C2800F3CF64F0F4CF65F060516303F350652788
:102C380061516203F350652764C060F065C061F0BC
:102C48001200F28EF28CF296F290F292F298F18CD7
:102C5800F090F086F19AF092F088F1981200200036
:102C6800000000000000000000000000000000005C
:102C780000000001636F8C90000163519FEC11F01C
:102C88008C9012000001636F8C80000163519FECEF
:102C980011F08C90120059EC16F057EC16F0CA940B
:102CA800120000000040D59E1200F2981200120097
:107EF2000054696D655F5056202D3E202530326456
:107F02003A253032643A253032640054696D655F37
:107F12005356202D3E20253032643A253032643AC1
:107F22002530326400202054696D65202D3E2025C5
:107F32003032643A253032643A25303264006B7054
:107F42003D25303364206B693D25303364206B64FA
:107F52003D25303364002020205365742052504D5B
:107F6200202D3E20256425642564256400202020E0
:107F720020202020202020202020202020202020FF
:107F82002000202044757479204379636C65202D8C
:107F92003E20253033640052504D206F72205469C8
:107FA2006D65206973207A65726F00202052504DF2
:107FB2005F505620202D3E202530346400202020A2
:107FC2002046696E204465204369636C6F005250FD
:107FD2004D5F535620202D3E202530346400202052
:107FE20020202020546573742050574D00202052C9
:0D7FF200502020202D3E202530346400005A
:020000040020DA
:08000000FFFFFFFFFFFFFFFF00
:020000040030CA
:0E00000000001E1EFF8181FF0FC00FE00F40A9
:00000001FF
