:0400000007EF00F016
:0A0008005F82E8ED08F0B3EF10F09E
:100800000054696D655F5056202D3E2025303264BE
:100810003A253032643A253032640054696D655FA0
:100820005356202D3E20253032643A253032643A2A
:100830002530326400202054696D65202D3E20252E
:100840003032643A253032643A2530326400202058
:100850002020202020202020202020202020202098
:10086000202000202044757479204379636C652032
:100870002D3E202530336400202020536574205203
:10088000504D202D3E20253034640020202020466D
:10089000696E204465204369636C6F0052504D5F60
:1008A000505620202D3E20253034640052504D5F9C
:1008B000535620202D3E2025303464002020202057
:1008C0002020546573742050574D00202052504D05
:0B08D00020202D3E2025303464000065
:1008DC001850800B256E185018242C6E17AE79EF1B
:1008EC0004F07BEF04F07CEF04F02C802C50D8B497
:1008FC0082EF04F084EF04F099EF04F02C28D8A4D4
:10090C008AEF04F08CEF04F094EF04F0000E156EF7
:10091C00000E166E000E176E000E186E178E000E5F
:10092C00186EA1EF04F0000E156E000E166E000E80
:10093C00176E000E186E1C50800B251A1C501C24B0
:10094C002D6E1BAEACEF04F0AEEF04F0AFEF04F085
:10095C002D802D50D8B4B5EF04F0B7EF04F0CCEFE8
:10096C0004F02D28D8A4BDEF04F0BFEF04F0C7EFBE
:10097C0004F0000E196E000E1A6E000E1B6E000EA7
:10098C001C6E1B8E000E1C6ED4EF04F0000E196E44
:10099C00000E1A6E000E1B6E000E1C6E19501A10F3
:1009AC001B101C10D8A4DDEF04F0DFEF04F0F7EF00
:1009BC0004F0000E156E000E166E000E176E000E73
:1009CC00186E800E17127F0E18122550181215C0B3
:1009DC0015F016C016F017C017F018C018F03AEF43
:1009EC0006F02C50D8A4FDEF04F0FFEF04F009EF53
:1009FC0005F0000E156E000E166E000E176E000E32
:100A0C00186E3AEF06F02D502CC01DF01E6A1D5EBC
:100A1C00000E1E5A7F0E1D24266E000E1E20276E01
:100A2C0015C021F016C022F017C023F018C024F016
:100A3C00000E156E000E166E000E176E000E186E60
:100A4C00000E286E000E296E000E2A6E000E2B6E04
:100A5C00000E2D6E6AEF05F02D50D8B438EF05F06E
:100A6C003AEF05F051EF05F0D890213622362336B7
:100A7C002436D89015361636173618362BAE49EF65
:100A8C0005F04BEF05F04CEF05F01580D8902836AB
:100A9C0029362A362B361950215C1A5022581B50F5
:100AAC0023581C502458D8A05EEF05F060EF05F0D9
:100ABC0069EF05F02B8C1950215E1A50225A1B50ED
:100ACC00235A1C50245A2D2A190E2D6470EF05F050
:100ADC0072EF05F032EF05F0215022102310241094
:100AEC00D8B47BEF05F07DEF05F095EF05F028808D
:100AFC0095EF05F0D89015361636173618362BAEFE
:100B0C008AEF05F08CEF05F08DEF05F01580D8908D
:100B1C00283629362A362B362606D8A0270617AEB5
:100B2C009AEF05F09CEF05F080EF05F0000E2D6EAE
:100B3C002BAEA3EF05F0A5EF05F0C9EF05F0FF0E06
:100B4C0028141D6EFF0E29141E6EFF0E2A141F6E24
:100B5C007F0E2B14206E1D501E101F102010D8B4A9
:100B6C00BAEF05F0BCEF05F0C0EF05F0010E2D6EED
:100B7C00C9EF05F015A0C5EF05F0C7EF05F0C9EFFB
:100B8C0005F0BCEF05F02D50D8B4CFEF05F0D1EF48
:100B9C0005F0F5EF05F0010E1526000E16221722B2
:100BAC00182218A0DCEF05F0DEEF05F0F5EF05F0EC
:100BBC0015C01DF016C01EF017C01FF018C020F095
:100BCC00203420321F321E321D321DC015F01EC0C3
:100BDC0016F01FC017F020C018F0264A272A27BE8F
:100BEC0000EF06F0275008E12628D8A000EF06F009
:100BFC0002EF06F00DEF06F0000E276E2668000ED1
:100C0C00156E000E166E000E176E000E186E27BEB7
:100C1C001AEF06F0275006E12604D8B018EF06F0BC
:100C2C001AEF06F028EF06F0000E276E000E266E67
:100C3C00000E156E000E166E000E176E000E186E5E
:100C4C00000E256E26C02CF02CA02FEF06F031EFF5
:100C5C0006F034EF06F0178E35EF06F0179ED8909D
:100C6C002C30186EEBEF04F012007DC093F07EC0B8
:100C7C0094F07FC095F080C096F081C097F082C050
:100C8C0098F083C099F084C09AF000019ABF51EF9C
:100C9C0006F054EF06F0010E55EF06F0000E9D6FB6
:100CAC009D51D8B45CEF06F05EEF06F06EEF06F0E7
:100CBC009A1F991F981F971F961F951F941F936D2E
:100CCC00000E9423952396239723982399239A23F4
:100CDC00EEBF73EF06F075EF06F076EF06F0F993C2
:100CEC00EEBF83EF06F0EE5106E1ED05D8B081EFD3
:100CFC0006F083EF06F089EF06F0000E906F010E00
:100D0C008F6F8DEF06F0EDC08FF0EEC090F0EBC062
:100D1C0091F0ECC092F09D51D8B497EF06F099EF9A
:100D2C0006F0B0EF06F09107D8A092079D51D8A419
:100D3C00A2EF06F0A4EF06F0AAEF06F0000E8E6FFD
:100D4C002B0E8D6FAEEF06F0000E8E6F2D0E8D6F8D
:100D5C008DC09DF0000E9C6F1F0E9B6F000E01014D
:100D6C00276F36EF07F09B07D8A09C07080E9B2532
:100D7C00D96E010E9C21DA6E93C060F094C061F0C4
:100D8C0095C062F096C063F097C064F098C065F0AF
:100D9C0099C066F09AC067F00A0E686F000E696F12
:100DAC00000E6A6F000E6B6F000E6C6F000E6D6F95
:100DBC00000E6E6F000E6F6FB0EC0BF060C085F024
:100DCC0061C086F062C087F063C088F064C089F0AF
:100DDC0065C08AF066C08BF067C08CF085C072F07D
:100DEC0086C073F000EC12F000017251300FDF6E10
:100DFC008F07D8A090079107D8A0920793C060F0F6
:100E0C0094C061F095C062F096C063F097C064F036
:100E1C0098C065F099C066F09AC067F00A0E686FCA
:100E2C00000E696F000E6A6F000E6B6F000E6C6F18
:100E3C00000E6D6F000E6E6F000E6F6FEBEC0AF014
:100E4C0060C093F061C094F062C095F063C096F0FE
:100E5C0064C097F065C098F066C099F067C09AF0CE
:100E6C0000019CBF42EF07F09C5108E19B05D8A004
:100E7C0042EF07F044EF07F074EF07F09351941131
:100E8C00951196119711981199119A11D8A451EFA7
:100E9C0007F053EF07F0B9EF06F090BF60EF07F0E3
:100EAC00905106E18F05D8B05EEF07F060EF07F0C8
:100EBC00B9EF06F092BF6BEF07F0925108E1910584
:100ECC00D8A06BEF07F06DEF07F074EF07F0F9B3F4
:100EDC0072EF07F074EF07F0B9EF06F09D51D8B43C
:100EEC007AEF07F07CEF07F087EF07F09B07D8A0AD
:100EFC009C07080E9B25D96E010E9C21DA6E9DC0B5
:100F0C00DFFF7BC070F07CC071F0080E9B25726F08
:100F1C00010E9C21736F91C074F092C075F071EC4E
:100F2C000FF01200A0C0D9FFA1C0DAFFDECFF6FF90
:100F3C00DDCFF7FF0800F550250AD8A4A8EF07F07D
:100F4C00AAEF07F0D2EF08F0A0C0D9FFA1C0DAFFDA
:100F5C00DE2A000EDD22000E0001EC6F000EEB6F9E
:100F6C00EBC0F9F0ED69EE69000EB06F000EAF6FDB
:100F7C00EAEF07F0F983A0C0D9FFA1C0DAFFDE2A9F
:100F8C00000EDD22EAEF07F0000EB06F010EAF6F1E
:100F9C00EAEF07F0A0C0D9FFA1C0DAFFDECFF6FF61
:100FAC00DDCFF7FF0800F550A46FA56BA551000A23
:100FBC00D8B4E3EF07F0CAEF07F0A451300AD8B465
:100FCC00C0EF07F0CAEF07F0AF51B011D8B4F1EF92
:100FDC0007F0F3EF07F0D0EF07F0A0C0D9FFA1C0E6
:100FEC00DAFFDECFF6FFDDCFF7FF0800F5502A0A57
:100FFC00D8A403EF08F005EF08F02EEF08F0A0C01E
:10100C00D9FFA1C0DAFFDE2A000EDD22A2C0D9FF73
:10101C00A3C0DAFFDFCFA4F0020EDE26DFCFA5F0EF
:10102C00000EDD22A4C0D9FFA5C0DAFFDECFEBF0A5
:10103C00DDCFECF0ECBF27EF08F025EF08F062EF06
:10104C0008F0F981EB6DEC1FD8B0EC2B62EF08F0D7
:10105C00A0C0D9FFA1C0DAFFDECF66F0DDCF67F00C
:10106C0063EC0CF066C0EBF067C0ECF045EF08F0F9
:10107C00A0C0D9FFA1C0DAFFDE2A000EDD22A0C07D
:10108C00D9FFA1C0DAFFDECFF6FFDDCFF7FF0800F6
:10109C00F5CFA4F0D00E0001A425A56FA66BFF0E12
:1010AC00A623A65109E10A0EA55DD8A060EF08F0B1
:1010BC0062EF08F03EEF08F0A0C0D9FFA1C0DAFF44
:1010CC00DECFB1F0DDCFB2F0B1C0F6FFB2C0F7FFAA
:1010DC000800F550640AD8B476EF08F078EF08F001
:1010EC0086EF08F0B1C0F6FFB2C0F7FF0800F5506C
:1010FC00690AD8A484EF08F086EF08F0C9EF08F06D
:10110C00A2C0D9FFA3C0DAFFDFCFA4F0020EDE2607
:10111C00DFCFA5F0000EDD22A4C0D9FFA5C0DAFFF9
:10112C00DECFA7F0DDCFA8F0000EA8BFFF0EA96F91
:10113C00AA6FAB6FAC6FAD6FAE6F010EB125A46F24
:10114C00000EB221A56FA0C0D9FFA1C0DAFFA4C0C8
:10115C00DEFFA5C0DDFF9EC07BF09FC07CF0A7C06A
:10116C007DF0A8C07EF0A9C07FF0AAC080F0ABC013
:10117C0081F0ACC082F0ADC083F0AEC084F03BEC2B
:10118C0006F0E7EF08F0A0C0D9FFA1C0DAFFDE2A15
:10119C00000EDD22E7EF08F0A0C0D9FFA1C0DAFFF6
:1011AC00DECFF6FFDDCFF7FF0800F5500001606FD2
:1011BC00616B9EC062F09FC063F00BEC0FF0C9EF47
:1011CC0008F012000600F3CF40F0F4CF41F0F2A289
:1011DC00F2EF08F0F4EF08F0F5EF08F0F292F0A05F
:1011EC00FAEF08F0FCEF08F032EF09F05C50D8A4ED
:1011FC0002EF09F004EF09F008EF09F0010E5C6E44
:10120C002AEF09F05C04D8A40EEF09F010EF09F0F6
:10121C0014EF09F0000E5C6E2AEF09F0040E5C1856
:10122C00D8A41BEF09F01DEF09F02AEF09F05D04BB
:10123C00D8A423EF09F025EF09F02AEF09F0D0EC40
:10124C0012F05A5021EC10F0F090820E3E6EDE0E31
:10125C00E82EFED73E2EFCD7F0A237EF09F039EF7F
:10126C0009F090EF09F05C50D8A43FEF09F041EF82
:10127C0009F045EF09F0020E5C6E88EF09F0020EE2
:10128C005C18D8A44CEF09F04EEF09F058EF09F0B8
:10129C0058C004F059C005F038EC12F0030E5C6E27
:1012AC0088EF09F0030E5C18D8A45FEF09F061EF2A
:1012BC0009F075EF09F0000E026E030E016EF3C01B
:1012CC0003F04EEC12F0000E026E020E016EF5C031
:1012DC0003F04EEC12F0040E5C6E88EF09F0040E75
:1012EC005C18D8A47CEF09F07EEF09F088EF09F0C8
:1012FC00000E5A6ECEEC12F0000E5D6E000E5C6E9F
:10130C0088EF09F0F092820E3E6EDE0EE82EFED7CC
:10131C003E2EFCD7F2A495EF09F097EF09F0F2EF0F
:10132C0009F00B0ED76EDC0ED66E5206D8A0530603
:10133C0056505710D8A4A5EF09F0A7EF09F0C5EF48
:10134C0009F054505510D8A4AEEF09F0B0EF09F0E5
:10135C00C5EF09F052505310D8A4B7EF09F0B9EF0C
:10136C0009F0C5EF09F05C04D8A4BFEF09F0C1EF98
:10137C0009F0C5EF09F0010E5B6EF1EF09F053BEF9
:10138C00CCEF09F0CAEF09F0F1EF09F05C04D8A436
:10139C00D2EF09F0D4EF09F0F1EF09F05406D8A020
:1013AC005506000E536E3B0E526E55BEE2EF09F021
:1013BC00E0EF09F0F1EF09F05C04D8A4E8EF09F0D4
:1013CC00EAEF09F0F1EF09F05606D8A05706000E27
:1013DC00556E3B0E546EF2949EA4F7EF09F0F9EFA4
:1013EC0009F00BEF0AF0BE50BFCF3EF03F6A3EC093
:1013FC003FF03E6A3E10506E3F50516EA1EC0EF025
:10140C00000ECF6E000ECE6E9E9441C0F4FF40C015
:10141C00F3FF5F9211000F6E0F50D8B418EF0AF063
:10142C001AEF0AF03CEF0AF00ABE21EF0AF01FEFA8
:10143C000AF03CEF0AF007C00BF008C00CF009C032
:10144C000DF00AC00EF00B1E0C1E0D1E0E1E0B2AEC
:10145C00000E0C220D220E220BC011F00CC012F04B
:10146C000DC013F00EC014F044EF0AF007C011F0D9
:10147C0008C012F009C013F00AC014F0075008108D
:10148C0009100A10D8A44DEF0AF04FEF0AF059EFEB
:10149C000AF0000E076E000E086E000E096E000EAC
:1014AC000A6EEAEF0AF0960E106E63EF0AF0102A3D
:1014BC00D8901432133212321132000E11140B6EFA
:1014CC00000E12140C6E000E13140D6EFE0E14147E
:1014DC000E6E0B500C100D100E10D8A478EF0AF0F5
:1014EC007AEF0AF05DEF0AF088EF0AF0102A010E8D
:1014FC001126000E122213221422D8901432133209
:10150C0012321132000E11140B6E000E12140C6EEE
:10151C00000E13140D6EFF0E14140E6E0B500C10E7
:10152C000D100E10D8A49DEF0AF09FEF0AF07CEF7F
:10153C000AF0A7EF0AF01006D890113612361336BF
:10154C00143613BEACEF0AF0AEEF0AF0B6EF0AF0A9
:10155C00020E1060B4EF0AF0B6EF0AF0A1EF0AF039
:10156C0010B0BBEF0AF0BDEF0AF0BEEF0AF0139E0D
:10157C00D890103210C00BF00C6A0D6A0E6A0BC0BA
:10158C000EF00D6A0C6A0B6A0B5011120C501212F1
:10159C000D5013120E5014120F50D8B4D8EF0AF08D
:1015AC00DAEF0AF0E2EF0AF00ABEE1EF0AF0DFEF41
:1015BC000AF0E2EF0AF0148E11C007F012C008F026
:1015CC0013C009F014C00AF01200000E0001716F74
:1015DC006FBFF5EF0AF0F3EF0AF007EF0BF06F1F98
:1015EC006E1F6D1F6C1F6B1F6A1F691F686D000ECD
:1015FC0069236A236B236C236D236E236F23010EE7
:10160C00716F67BF0EEF0BF00CEF0BF020EF0BF0D0
:10161C00671F661F651F641F631F621F611F606D5C
:10162C00000E6123622363236423652366236723EF
:10163C00010E711B20EE72F0070EDE6AE806FDE269
:10164C00685169116A116B116C116D116E116F116A
:10165C00D8B433EF0BF035EF0BF087EF0BF0010E36
:10166C00706F43EF0BF0D890683769376A376B3778
:10167C006C376D376E376F37702B6FAF48EF0BF0E1
:10168C004AEF0BF039EF0BF0D89072377337743791
:10169C00753776377737783779376851605D6951A8
:1016AC0061596A5162596B5163596C5164596D514E
:1016BC0065596E5166596F516759D8A068EF0BF098
:1016CC006AEF0BF07BEF0BF06851605F6951615B67
:1016DC006A51625B6B51635B6C51645B6D51655B12
:1016EC006E51665B6F51675B7281D8906F336E334E
:1016FC006D336C336B336A3369336833702F4AEF55
:10170C000BF07151D8B48DEF0BF08FEF0BF09FEF06
:10171C000BF0791F781F771F761F751F741F731FAF
:10172C00726D000E7323742375237623772378232D
:10173C00792372C060F073C061F074C062F075C040
:10174C0063F076C064F077C065F078C066F079C05D
:10175C0067F01200000E0001716F67BFBAEF0BF05B
:10176C00B8EF0BF0CCEF0BF0671F661F651F641F03
:10177C00631F621F611F606D000E61236223632370
:10178C006423652366236723010E716F6FBFD3EF4C
:10179C000BF0D1EF0BF0E3EF0BF06F1F6E1F6D1F13
:1017AC006C1F6B1F6A1F691F686D000E69236A230B
:1017BC006B236C236D236E236F23685169116A119F
:1017CC006B116C116D116E116F11D8B4F0EF0BF031
:1017DC00F2EF0BF03AEF0CF0010E706F00EF0CF023
:1017EC00D890683769376A376B376C376D376E3717
:1017FC006F37702B6FAF05EF0CF007EF0CF0F6EFB7
:10180C000BF06851605D695161596A5162596B51B5
:10181C0063596C5164596D5165596E5166596F51CC
:10182C006759D8A01CEF0CF01EEF0CF02EEF0CF04B
:10183C006851605F6951615B6A51625B6B51635BBC
:10184C006C51645B6D51655B6E51665B6F51675B90
:10185C00D8906F336E336D336C336B336A336933BB
:10186C006833702F07EF0CF07151D8B440EF0CF0C7
:10187C0042EF0CF052EF0CF0671F661F651F641FE0
:10188C00631F621F611F606D000E6123622363235F
:10189C00642365236623672360C060F061C061F038
:1018AC0062C062F063C063F064C064F065C065F050
:1018BC0066C066F067C067F01200000E00016E6F24
:1018CC00000E6D6F000E6C6F000E6B6F70EF0CF0F6
:1018DC00664B672B66C0F6FF67C0F7FF0800F55034
:1018EC00200AD8B47CEF0CF07EEF0CF06EEF0CF00D
:1018FC0066C0F6FF67C0F7FF0800F5CF68F0F70E7B
:10190C006825696F6A6BFF0E6A236A5109E1050E3F
:10191C00695DD8A094EF0CF096EF0CF06EEF0CF024
:10192C00A0EF0CF0000E6C6F010E6B6F664B672B0B
:10193C00D6EF0CF066C0F6FF67C0F7FF0800F55055
:10194C00686F696B6951000AD8B4AFEF0CF0D6EF31
:10195C000CF068512B0AD8B49CEF0CF0060AD8B4E2
:10196C0098EF0CF0D6EF0CF06DC060F06EC061F02B
:10197C00000E636F0A0E626F64EC12F066C0F6FF25
:10198C0067C0F7FF0800F5500001605F000E615B57
:10199C00300E60256D6F000E61216E6F9CEF0CF0A8
:1019AC0066C0F6FF67C0F7FF0800F5CF68F0D00EF1
:1019BC006825696F6A6BFF0E6A236A5109E10A0E8A
:1019CC00695DD8A0ECEF0CF0EEEF0CF0BAEF0CF078
:1019DC006B516C11D8A4F5EF0CF0F7EF0CF005EF90
:1019EC000DF06DC068F06EC069F0681F691F684B20
:1019FC00692B68C066F069C067F009EF0DF06DC027
:101A0C0066F06EC067F012000001626F9598959AAF
:101A1C00959C959E8C988C9A8C9C8C9E8C92210E6D
:101A2C00E82EFED700F062C060F00001603B0F0EA4
:101A3C006017010E6017603B8C506019EF0B60193A
:101A4C008C6E62C060F0050E616FD8906033612FB0
:101A5C002BEF0DF0010E6017603B60478C50601946
:101A6C00DF0B60198C6E62C060F0060E616FD8904F
:101A7C006033612F3DEF0DF0010E6017603B604746
:101A8C0060478C506019BF0B60198C6E606B62AF35
:101A9C0001D0602B010E6017603360338C506019DD
:101AAC007F0B60198C6E8C82210EE82EFED700F015
:101ABC008C9262C060F0010E00016017603B8C508C
:101ACC006019EF0B60198C6E62C060F0D8906033B7
:101ADC00070E6017603B60478C506019DF0B601974
:101AEC008C6E62C060F0D8906033D8906033030E77
:101AFC006017603B604760478C506019BF0B6019E2
:101B0C008C6E62C060F0D8906033D8906033D890FF
:101B1C006033010E6017603360338C5060197F0B9B
:101B2C0060198C6E8C82210EE82EFED700F08C9200
:101B3C009588958A958C958E120030343134376E99
:101B4C003750D8A4ACEF0DF0AEEF0DF0B8EF0DF0B0
:101B5C00000E2E6E000E2F6E000E306E000E316ECB
:101B6C0025EF0EF02EC032F02FC033F030C034F021
:101B7C0031C035F0200EC8EF0DF0D890353234322C
:101B8C0033323232E82EC3EF0DF03250366E308ED7
:101B9C00FF0E2E16FF0E2F16FF0E3016000E3116EE
:101BAC00960E375E37BEDFEF0DF0DDEF0DF0F5EF83
:101BBC000DF03750800A970FD8B0E7EF0DF0E9EF32
:101BCC000DF0EBEF0DF0AEEF0DF0D890313230326E
:101BDC002F322E32373EEBEF0DF00DEF0EF01F0EC5
:101BEC003764FBEF0DF0FDEF0DF005EF0EF0AEEFEF
:101BFC000DF0D8902E362F3630363136370637501A
:101C0C00D8A40BEF0EF00DEF0EF0FFEF0DF03650E9
:101C1C00D8B413EF0EF015EF0EF01DEF0EF0311ED1
:101C2C00301E2F1E2E6C000E2F22302231222EC081
:101C3C002EF02FC02FF030C030F031C031F0120038
:101C4C000F0EC16EF18E99EC12F094908B909484DF
:101C5C008BEC12F0CCEC12F0C9EC0FF00C0EB1ECDA
:101C6C0012F0000E0001616F030E606FC3EC12F0F6
:101C7C000001D26FD251F36FF46BF4BF4FEF0EF043
:101C8C00F45109E13C0EF35DD8A04FEF0EF051EF8B
:101C9C000EF055EF0EF0000EF46F000EF36F000E09
:101CAC00616F020E606FC3EC12F00001D26FD25163
:101CBC00F56FF66BF6BF6CEF0EF0F65109E1040E02
:101CCC00F55DD8A06CEF0EF06EEF0EF072EF0EF02B
:101CDC00000EF66F000EF56FF5EC10F062C058F0C8
:101CEC0063C059F0F5C056F0F6C057F0F3C054F08D
:101CFC00F4C055F0000E536E000E526E280E00010B
:101D0C00BB6F010EBC6F7F0EBD6F080EBE6FF7C0B0
:101D1C00BFF0F8C0C0F066EC11F0010E0001686F66
:101D2C00280E696F010E6A6F020E2EEC11F084EF13
:101D3C000EF007EF00F051BEACEF0EF0515008E181
:101D4C005004D8A0ACEF0EF0AEEF0EF00AEF0FF08F
:101D5C0050C007F051C008F0000E08BEFF0E096E0F
:101D6C000A6E010E11EC0AF007C015F008C016F04F
:101D7C0009C017F00AC018F0000E196E240E1A6E66
:101D8C00740E1B6E4A0E1C6E6EEC04F015C03AF00D
:101D9C0016C03BF017C03CF018C03DF03AC019F02B
:101DAC003BC01AF03CC01BF03DC01CF05E503C0D1B
:101DBC00F3CF38F0F4CF39F038C007F039C008F061
:101DCC00000E08BEFF0E096E0A6E010E11EC0AF031
:101DDC0007C015F008C016F009C017F00AC018F0BB
:101DEC006EEC04F015C02EF016C02FF017C030F0BA
:101DFC0018C031F0A3EC0DF02EC0F7F02FC0F8F0A6
:101E0C00000E516E000E506E1200000162516311F3
:101E1C00D8B413EF0FF015EF0FF01EEF0FF0625167
:101E2C006311D8A41CEF0FF01EEF0FF023EF0FF08F
:101E3C006051D2EC12F070EF0FF020EE09F062510D
:101E4C00D9266351DA22DE50DE10D8B430EF0FF011
:101E5C0032EF0FF04DEF0FF020EE09F06251D92662
:101E6C006351DA2210EE03F06251E1266351E22253
:101E7C00DE50E65CE650800A686FDE50800A6859D6
:101E8C00D8B04BEF0FF04DEF0FF070EF0FF020EEDE
:101E9C0003F06251D9266351DA22DECF64F0DDCF34
:101EAC0065F062C0D9FF63C0DAFFDECF66F0DDCF2C
:101EBC0067F064516625D96E65516721DA6E60C092
:101ECC00DFFF20EE03F06251D9266351DA22DE2ABD
:101EDC00000EDD2212000001F9A177EF0FF079EF6F
:101EEC000FF083EF0FF072C069F073C06AF070C02E
:101EFC006BF071C06CF0B8EC11F0000175BF89EF9C
:101F0C000FF08BEF0FF091EF0FF074C079F075C0FC
:101F1C007AF095EF0FF0000E7A6F000E796F000ECD
:101F2C00786F000E776FA8EF0FF0000E616F200E28
:101F3C00606F70C062F071C063F00BEC0FF00001C9
:101F4C00774B782B7951775D7851800A766F7A517F
:101F5C00800A7659D8A0B5EF0FF0B7EF0FF09BEFD2
:101F6C000FF0F9B1BCEF0FF0BEEF0FF0C8EF0FF0B0
:101F7C0072C069F073C06AF070C06BF071C06CF025
:101F8C00B8EC11F01200959095929598959A959CB5
:101F9C00959E8C90140E0001636F790EE82EFED77F
:101FAC00632FFCD700D0300E0AEC0DF0070E0001A9
:101FBC00636F7D0EE82EFED7632FFCD7300E0AEC34
:101FCC000DF0210EE82EFED700F0320E0AEC0DF0CB
:101FDC00210EE82EFED700F0210EE82EFED700F0E1
:101FEC002B0E0AEC0DF0210EE82EFED700F0080E99
:101FFC000AEC0DF0210EE82EFED700F00F0E0AECC5
:10200C000DF0210EE82EFED700F0010E0AEC0DF0BB
:10201C00210EE82EFED700F0060E0AEC0DF0210E74
:10202C00E82EFED700F00F0E0AEC0DF0210EE82E74
:10203C00FED700F012003A6E000E196E000E1A6EEA
:10204C00C80E1B6E420E1C6E3AC001F0026A4EC0E6
:10205C0003F04FC004F078EC12F001C007F002C09E
:10206C0008F0000E08BEFF0E096E0A6E010E11EC90
:10207C000AF007C015F008C016F009C017F00AC026
:10208C0018F06EEC04F015C02EF016C02FF017C02F
:10209C0030F018C031F0A3EC0DF02EC03BF02FC087
:1020AC003CF03BC038F03CC039F03934393238326E
:1020BC003934393238323850BE6E3BC038F0030EEA
:1020CC003816383ABD503818CF0B3818BD6E120080
:1020DC000001676F8AEF10F064517F0FB1EC12F0C2
:1020EC00A8EF10F06451BF0FB1EC12F0A8EF10F094
:1020FC006451930FB1EC12F0A8EF10F06451D30FB0
:10210C00B1EC12F0A8EF10F000016751656F666B2F
:10211C006651000AD8B495EF10F0A8EF10F0655195
:10212C00010AD8B472EF10F0030AD8B478EF10F0AB
:10213C00010AD8B47EEF10F0070AD8B484EF10F07F
:10214C00A8EF10F0820E0001656FDD0EE82EFED7B1
:10215C00652FFCD700D08C9012004E0EF66E250E1B
:10216C00F76E000EF86E01EE28F010EE14F0090078
:10217C00F5CFEEFFE550E150FAE1940EF66E250E28
:10218C00F76E000EF86E00EEFAF010EE04F0090097
:10219C00F5CFEEFFE550E150FAE1A60EF66E250EF6
:1021AC00F76E000EF86E0900F5CF5EF001EE00F050
:1021BC00280EEE6AE806FDE100EED3F0270EEE6A7B
:1021CC00E806FDE100EE42F01C0EEE6AE806FDE1C9
:1021DC005F905F92000EF86E000126EF0EF0000E7D
:1021EC000001696F000E616F000E606FC3EC12F09E
:1021FC000001686F000E616F010E606FC3EC12F08E
:10220C000001696F6829D8A40EEF11F010EF11F0DE
:10221C001EEF11F06929D8A416EF11F018EF11F088
:10222C001EEF11F0020E676F260E666F29EF11F08C
:10223C00685169C064F0656B64C065F0646B6411CF
:10224C00666F6551676F66C062F067C063F012001D
:10225C0000016B6F68C064F000016B516EEC10F004
:10226C004DEF11F069C0F6FF6AC0F7FFF86A070E70
:10227C00F76403D00800F55005D0F6CFE9FFF7CF8F
:10228C00EAFFEF50BAEC12F00001694B6A2B69C0FF
:10229C00F6FF6AC0F7FFF86A070EF76403D0080070
:1022AC00F55005D0F6CFE9FFF7CFEAFFEF50000964
:1022BC00D8A463EF11F065EF11F038EF11F01200B4
:1022CC00BF0E0001C56F000EC66FBBC0C7F0BCC00F
:1022DC00C8F0000ECB6F000ECA6F000ED16F000E4F
:1022EC00D06FC70EB36F000EB46FBDC0B5F0BEC0DB
:1022FC00B6F0C50EB76F000EB86F8FEC11F0000181
:10230C00CA51BB25D96ECB51BC21DA6E000EDF6EE3
:10231C001200B5C0B9F0B6C0BAF0A4EF11F0B3C05A
:10232C009EF0B4C09FF0B90E0001A06F000EA16F1B
:10233C00B7C0A2F0B8C0A3F098EC07F0B9C0F6FF94
:10234C00BAC0F7FF0800F5500009D8A4B0EF11F09F
:10235C00B2EF11F095EF11F0000E0001B46F000E0A
:10236C00B36F1200000E00016F6F000E6E6FCBEF9B
:10237C0011F06DC060F0616B6BC062F06CC063F00B
:10238C000BEC0FF000016E4B6F2B6E516925D96E63
:10239C006F516A21DA6EDF506D6F6D51D8A4D9EF91
:1023AC0011F0DBEF11F0BFEF11F01200010E000184
:1023BC00646F200E60196111D8B4E7EF11F0E9EFEA
:1023CC0011F0FCEF11F0F70E6025626FFF0E61212A
:1023DC00636F635109E1050E625DD8A0F8EF11F04F
:1023EC00FAEF11F0FCEF11F0000E646F64C060F0B6
:1023FC00616B1200000173BF0EEF12F0735106E116
:10240C007205D8B00CEF12F00EEF12F01CEF12F0B8
:10241C0072C074F073C075F0741F751F744B752BFC
:10242C0074C072F075C073F020EF12F072C072F0CD
:10243C0073C073F01200D00E00016025626FFF0EA6
:10244C006121636F63510AE10A0E625DD8A031EF1E
:10245C0012F034EF12F0010E35EF12F0000E606F37
:10246C00616B120004C006F005500F0B076E000ED6
:10247C00026E000E016E06C003F04EEC12F0000E60
:10248C00026E010E016E07C003F04EEC12F012004A
:10249C0001C0A9FF03C0A8FFA69EA69CA684550E4A
:1024AC00A76EAA0EA76EA682A1A85FEF12F061EF2D
:1024BC0012F05AEF12F0A198A6941200000160518C
:1024CC006203F3CF64F0F4CF65F060516303F35013
:1024DC00652761516203F350652764C060F065C0E5
:1024EC0061F0120001500302F3CF05F0F4CF06F0B7
:1024FC0001500402F350062602500302F350062644
:10250C0005C001F006C002F01200CF0ECD16CD9220
:10251C00CD8E000ECF6E000ECE6E9D80BD50F00B9A
:10252C000409BD6E1200F28EF28CF292F288F18CDC
:10253C00F090F086F19AF092F088F1989E949D8438
:10254C00120020000000000000000000000000004D
:10255C000000000000000001636F8C9000016351CB
:10256C000AEC0DF08C9012000001636F8C8000015E
:10257C0063510AEC0DF08C90120060C0A9FFA69E6E
:10258C00A69CA680A85012000000A042CD8012008C
:0B259C00CA941200CA84120012000250
:020000040020DA
:08000000FFFFFFFFFFFFFFFF00
:020000040030CA
:0E0000000000181EFF8181FF0FC00FE00F40AF
:00000001FF
