:0400000007EF00F016
:0A0008005D82B4ED18F091EF1AF0DC
:100800000020202020202020202020202020202008
:1008100020202020200020202020205465737420D8
:10082000504944202020202020200052504D5F506D
:100830005620202D3E20253034640052504D5F5309
:100840005620202D3E202530346400000001A351A5
:10085000800BAC6FA351A325AE6FA2AF32EF04F0B3
:1008600034EF04F035EF04F0AE81AE51D8B43BEF75
:1008700004F03DEF04F052EF04F0AE29D8A443EFAA
:1008800004F045EF04F04DEF04F0000EA06F000EF1
:10089000A16F000EA26F000EA36FA28F000EA36FB8
:1008A0005AEF04F0000EA06F000EA16F000EA26FB1
:1008B000000EA36FA751800BAD6FAC51AD19D8B42A
:1008C00064EF04F066EF04F067EF04F0AC8DA7511D
:1008D000A725AD6FA6AF6FEF04F071EF04F072EFD4
:1008E00004F0AD81AD51D8B478EF04F07AEF04F0A4
:1008F0008FEF04F0AD29D8A480EF04F082EF04F06C
:100900008AEF04F0000EA46F000EA56F000EA66F14
:10091000000EA76FA68F000EA76F97EF04F0000ED2
:10092000A46F000EA56F000EA66F000EA76FAE514C
:10093000AD5DD8B09EEF04F0A0EF04F0C7EF04F077
:10094000ACADA5EF04F0A7EF04F0A9EF04F0800E22
:10095000AC1BAEC0AFF0ADC0AEF0AFC0ADF0A0C04C
:10096000AFF0A4C0A0F0AFC0A4F0A1C0AFF0A5C08C
:10097000A1F0AFC0A5F0A2C0AFF0A6C0A2F0AFC07A
:10098000A6F0A3C0AFF0A7C0A3F0AFC0A7F0000EC1
:10099000AF6FAE51ADC0A8F0A96BA85F000EA95B08
:1009A000A9BFDCEF04F0A95109E11A0EA85DD8A097
:1009B000DCEF04F0DEEF04F015EF05F0A051A1111B
:1009C000A211A311D8A4E7EF04F0EAEF04F0010E9E
:1009D000EBEF04F0000EAF6F000EA06F000EA16FE2
:1009E000000EA26F000EA36FADC0AEF01EEF05F0BB
:1009F000AFA1FDEF04F0FFEF04F005EF05F0D89094
:100A0000AF310109AF6F07EF05F0D890AF33A0A168
:100A10000CEF05F00EEF05F00FEF05F0AF8FA335EB
:100A2000A333A233A133A033AE2BAD51AE5DD8A01A
:100A30001CEF05F01EEF05F0F8EF04F0ACBD23EF5E
:100A400005F025EF05F065EF05F0AE51D8A42BEFCA
:100A500005F02DEF05F037EF05F0000EA06F000E4A
:100A6000A16F000EA26F000EA36F86EF06F0A451D7
:100A7000A027A551A123A651A223A751A323A3A137
:100A800044EF05F046EF05F0F2EF05F0AFA14BEFB4
:100A900005F04DEF05F053EF05F0D890AF310109A7
:100AA000AF6F55EF05F0D890AF33A0A15AEF05F026
:100AB0005CEF05F05DEF05F0AF8FA335A333A233F4
:100AC000A133A033AE2BF2EF05F0A451A05DA551E8
:100AD000A159A651A259A351800AA86FA751800A13
:100AE000A859D8B076EF05F078EF05F0A3EF05F040
:100AF000A051A45DA86FA151A559A96FA251A659F3
:100B0000AA6FA351A759AB6FFF0EA825A06FFF0EC8
:100B1000A921A16FFF0EAA21A26FFF0EAB21A36F27
:100B2000800EAC1BAF6DAF51D8A499EF05F09BEFD1
:100B300005F0ABEF05F0010EA027000EA123A223C4
:100B4000A323ABEF05F0A451A05FA551A15BA65173
:100B5000A25BA751A35BA051A111A211A311D8A41C
:100B6000B4EF05F0B6EF05F0EBEF05F0AF51D8A408
:100B7000BCEF05F0BEEF05F0EBEF05F0000EA06F47
:100B8000000EA16F000EA26F000EA36F86EF06F09D
:100B9000D890A037A137A237A337AFAFD2EF05F077
:100BA000D4EF05F0D5EF05F0A081AFA1DAEF05F0A5
:100BB000DCEF05F0E0EF05F0D880AF37E2EF05F0AD
:100BC000D890AF37AE51D8B4E8EF05F0EAEF05F0B2
:100BD000EBEF05F0AE07A2AFF0EF05F0F2EF05F096
:100BE000C8EF05F0000EAD6FAFAFF9EF05F0FBEF0A
:100BF00005F013EF06F0AFC0A8F07F0EA817D8B429
:100C000004EF06F006EF06F00AEF06F0010EAD6FF6
:100C100013EF06F0A0A10FEF06F011EF06F013EFAF
:100C200006F006EF06F0AD51D8B419EF06F01BEF51
:100C300006F046EF06F0010EA027000EA123A22326
:100C4000A323A3A126EF06F028EF06F046EF06F057
:100C5000A0C0A8F0A1C0A9F0A2C0AAF0A3C0ABF0A8
:100C6000AB35AB33AA33A933A833A8C0A0F0A9C0D1
:100C7000A1F0AAC0A2F0ABC0A3F0AE29D8B443EF54
:100C800006F045EF06F046EF06F0AE2BAE29D8B4DD
:100C90004CEF06F04EEF06F056EF06F0AE51D8A43A
:100CA00054EF06F056EF06F068EF06F0000EA06F66
:100CB000000EA16F000EA26F000EA36FAE51D8A45C
:100CC00064EF06F066EF06F068EF06F0000EAC6F1A
:100CD000AEA16DEF06F06FEF06F072EF06F0A28F97
:100CE00073EF06F0A29FD890AE31A36FACAF7BEF4D
:100CF00006F07DEF06F07EEF06F0A38FA0C0A0F017
:100D0000A1C0A1F0A2C0A2F0A3C0A3F012000001F4
:100D10008A51800B936F8A518A25996F89AF93EF1F
:100D200006F095EF06F096EF06F099819951D8B448
:100D30009CEF06F09EEF06F0B1EF06F09929D8A4DB
:100D4000A4EF06F0A6EF06F0AEEF06F0000E876FF8
:100D5000000E886F000E896F000E8A6F898FB9EFC1
:100D600006F0000E876F000E886F000E896F000E70
:100D70008A6F8E51800B931B8E518E25986F8DAF8D
:100D8000C4EF06F0C6EF06F0C7EF06F09881985161
:100D9000D8B4CDEF06F0CFEF06F0E2EF06F09829D9
:100DA000D8A4D5EF06F0D7EF06F0DFEF06F0000E7F
:100DB0008B6F000E8C6F000E8D6F000E8E6F8D8FFF
:100DC000EAEF06F0000E8B6F000E8C6F000E8D6F39
:100DD000000E8E6F9851D8B4F0EF06F0F2EF06F0E7
:100DE000FAEF06F09951D8A4F8EF06F0FAEF06F002
:100DF00004EF07F0000E876F000E886F000E896FFA
:100E0000000E8A6F9CEF08F08D518703F3CF9EF0A0
:100E1000F4CF9FF09E51946F956B966B976B9F519B
:100E20009A6F9B6B9C6B9D6B8C518803F3CF9EF0EC
:100E3000F4CF9FF09E519427000E9523962397237D
:100E40009F519A27000E9B239C239D238B5189033E
:100E5000F3CF9EF0F4CF9FF09E519427000E952380
:100E6000962397239F519A27000E9B239C239D2313
:100E700096C097F095C096F094C095F0946B8B5106
:100E80008803F3CF9EF0F4CF9FF09E5194279F519B
:100E90009523000E9623000E97238C518703F3CFE2
:100EA0009EF0F4CF9FF09E5194279F519523000E02
:100EB0009623000E972396C097F095C096F094C0A5
:100EC00095F0946B8B518703F3CF9EF0F4CF9FF096
:100ED0009E5194279F519523000E9623000E972331
:100EE0008D518803F3CF9EF0F4CF9FF09E519A2747
:100EF0009F519B23000E9C23000E9D238C51890340
:100F0000F3CF9EF0F4CF9FF09E519A279F519B23E1
:100F1000000E9C23000E9D238D518903F3CF9EF07C
:100F2000F4CF9FF09E518F6F9F51906F916B926B9A
:100F300091C092F090C091F08FC090F08F6B8F5164
:100F40009A2790519B2391519C2392519D2394C0A9
:100F50008FF095C090F096C091F097C092F0190E66
:100F6000B7EF07F0D8909233913390338F33E82E58
:100F7000B2EF07F08F519A2790519B2391519C23F8
:100F800092519D2396C097F095C096F094C095F02D
:100F9000946B985199C08FF0906B8F27000E90231F
:100FA000820E8F259E6FFF0E90219F6FEDEF07F051
:100FB000D8909A379B379C379D3797AFE2EF07F071
:100FC000E4EF07F0E5EF07F09A81D8909437953772
:100FD000963797379E07D8A09F079CAFF2EF07F090
:100FE000F4EF07F0D8EF07F0000E986F97AFFBEF24
:100FF00007F0FDEF07F021EF08F0FF0E94158F6F5B
:10100000FF0E9515906FFF0E9615916F7F0E971539
:10101000926F8F51901191119211D8B412EF08F084
:1010200014EF08F018EF08F0010E986F21EF08F0A8
:101030009AA11DEF08F01FEF08F021EF08F014EF60
:1010400008F09851D8B427EF08F029EF08F04DEFD9
:1010500008F0010E9A27000E9B239C239D239DA13F
:1010600034EF08F036EF08F04DEF08F09AC08FF03B
:101070009BC090F09CC091F09DC092F0923592334D
:10108000913390338F338FC09AF090C09BF091C012
:101090009CF092C09DF09E4B9F2B9FBF58EF08F095
:1010A0009F5108E19E29D8A058EF08F05AEF08F0A8
:1010B00064EF08F0000E9A6F000E9B6F800E9C6F1D
:1010C0007F0E9D6F92EF08F09FBF71EF08F09F5168
:1010D00006E19E05D8B06FEF08F071EF08F07DEFE4
:1010E00008F0000E9A6F000E9B6F000E9C6F000EB2
:1010F0009D6F000E936F92EF08F09EC099F0FF0E67
:101100009A17FF0E9B177F0E9C17000E9D1799A133
:101110008CEF08F08EEF08F08FEF08F09C8FD890DE
:1011200099319D6F93519D139AC087F09BC088F0B1
:101130009CC089F09DC08AF012001850800B216E6F
:1011400018501824276E17AEA8EF08F0AAEF08F081
:10115000ABEF08F027802750D8B4B1EF08F0B3EF19
:1011600008F0C6EF08F02728D8A4B9EF08F0BBEFC5
:1011700008F0C3EF08F0000E156E000E166E000E9C
:10118000176E000E186E178ECEEF08F0000E156E5B
:10119000000E166E000E176E000E186E1C50800B9F
:1011A000211A1C501C24266E1BAED9EF08F0DBEF71
:1011B00008F0DCEF08F026802650D8B4E2EF08F003
:1011C000E4EF08F0F7EF08F02628D8A4EAEF08F0DB
:1011D000ECEF08F0F4EF08F0000E196E000E1A6E36
:1011E000000E1B6E000E1C6E1B8EFFEF08F0000E33
:1011F000196E000E1A6E000E1B6E000E1C6E26502D
:10120000D8B405EF09F007EF09F00FEF09F0275008
:10121000D8A40DEF09F00FEF09F019EF09F0000E57
:10122000156E000E166E000E176E000E186EB1EFE2
:101230000AF01B501502F3CF2CF0F4CF2DF02C50F8
:10124000226E236A246A256A2D50286E296A2A6A2A
:101250002B6A1A501602F3CF2CF0F4CF2DF02C503D
:101260002226000E2322242225222D502826000E7D
:1012700029222A222B2219501702F3CF2CF0F4CF67
:101280002DF02C502226000E2322242225222D5020
:101290002826000E29222A222B2224C025F023C032
:1012A00024F022C023F0226A19501602F3CF2CF04A
:1012B000F4CF2DF02C5022262D502322000E242274
:1012C000000E25221A501502F3CF2CF0F4CF2DF08A
:1012D0002C5022262D502322000E2422000E2522DF
:1012E00024C025F023C024F022C023F0226A195024
:1012F0001502F3CF2CF0F4CF2DF02C5022262D50D8
:101300002322000E2422000E25221B501602F3CFAA
:101310002CF0F4CF2DF02C5028262D502922000E31
:101320002A22000E2B221A501702F3CF2CF0F4CFF2
:101330002DF02C5028262D502922000E2A22000E96
:101340002B221B501702F3CF2CF0F4CF2DF02C5092
:101350001D6E2D501E6E1F6A206A1FC020F01EC019
:101360001FF01DC01EF01D6A1D5028261E50292288
:101370001F502A2220502B2222C01DF023C01EF015
:1013800024C01FF025C020F0190ECCEF09F0D89032
:1013900020321F321E321D32E82EC7EF09F01D50D9
:1013A00028261E5029221F502A2220502B2224C0DA
:1013B00025F023C024F022C023F0226A265027C043
:1013C0001DF01E6A1D26000E1E22820E1D242C6E8C
:1013D000FF0E1E202D6E02EF0AF0D8902836293617
:1013E0002A362B3625AEF7EF09F0F9EF09F0FAEFC0
:1013F00009F02880D89022362336243625362C064C
:10140000D8A02D062AAE07EF0AF009EF0AF0EDEF9B
:1014100009F0000E266E25AE10EF0AF012EF0AF06A
:1014200036EF0AF0FF0E22141D6EFF0E23141E6EFF
:10143000FF0E24141F6E7F0E2514206E1D501E10EB
:101440001F102010D8B427EF0AF029EF0AF02DEF73
:101450000AF0010E266E36EF0AF028A032EF0AF0ED
:1014600034EF0AF036EF0AF029EF0AF02650D8B42C
:101470003CEF0AF03EEF0AF062EF0AF0010E282678
:10148000000E29222A222B222BA049EF0AF04BEF33
:101490000AF062EF0AF028C01DF029C01EF02AC031
:1014A0001FF02BC020F0203420321F321E321D329C
:1014B0001DC028F01EC029F01FC02AF020C02BF04C
:1014C0002C4A2D2A2DBE6DEF0AF02D5008E12C2854
:1014D000D8A06DEF0AF06FEF0AF079EF0AF0000E76
:1014E000286E000E296E800E2A6E7F0E2B6EA7EFDF
:1014F0000AF02DBE86EF0AF02D5006E12C04D8B07C
:1015000084EF0AF086EF0AF092EF0AF0000E286EE0
:10151000000E296E000E2A6E000E2B6E000E216E3C
:10152000A7EF0AF02CC027F0FF0E2816FF0E291691
:101530007F0E2A16000E2B1627A0A1EF0AF0A3EFAC
:101540000AF0A4EF0AF02A8ED89027302B6E215093
:101550002B1228C015F029C016F02AC017F02BC096
:1015600018F0120000017151800B7E6F71517125CE
:10157000856F70AFBEEF0AF0C0EF0AF0C1EF0AF05E
:1015800085818551D8B4C7EF0AF0C9EF0AF0DEEFC4
:101590000AF08529D8A4CFEF0AF0D1EF0AF0D9EFED
:1015A0000AF0000E6E6F000E6F6F000E706F000E6F
:1015B000716F708F000E716FE6EF0AF0000E6E6FA4
:1015C000000E6F6F000E706F000E716F7551800B03
:1015D0007E1B75517525866F74AFF1EF0AF0F3EF3E
:1015E0000AF0F4EF0AF086818651D8B4FAEF0AF0D7
:1015F000FCEF0AF011EF0BF08629D8A402EF0BF0F4
:1016000004EF0BF00CEF0BF0000E726F000E736F17
:10161000000E746F000E756F748F000E756F19EFEA
:101620000BF0000E726F000E736F000E746F000EE1
:10163000756F7251731174117511D8A422EF0BF0EC
:1016400024EF0BF03CEF0BF0000E6E6F000E6F6F8F
:10165000000E706F000E716F800E70137F0E71138D
:101660007E5171136EC06EF06FC06FF070C070F07D
:1016700071C071F07FEF0CF08551D8A442EF0BF0F0
:1016800044EF0BF04EEF0BF0000E6E6F000E6F6F1D
:10169000000E706F000E716F7FEF0CF0865185C0E9
:1016A00076F0776B765F000E775B7F0E76257F6F27
:1016B000000E7721806F6EC07AF06FC07BF070C033
:1016C0007CF071C07DF0000E6E6F000E6F6F000E2B
:1016D000706F000E716F000E816F000E826F000E32
:1016E000836F000E846F000E866FAFEF0BF0865194
:1016F000D8B47DEF0BF07FEF0BF096EF0BF0D890A6
:101700007A377B377C377D37D8906E376F377037B5
:10171000713784AF8EEF0BF090EF0BF091EF0BF081
:101720006E81D890813782378337843772517A5DE2
:1017300073517B5974517C5975517D59D8A0A3EFD1
:101740000BF0A5EF0BF0AEEF0BF0848D72517A5FCA
:1017500073517B5B74517C5B75517D5B862B190EDD
:101760008665B5EF0BF0B7EF0BF077EF0BF07A5122
:101770007B117C117D11D8B4C0EF0BF0C2EF0BF0E0
:10178000DAEF0BF08181DAEF0BF0D8906E376F371C
:101790007037713784AFCFEF0BF0D1EF0BF0D2EF92
:1017A0000BF06E81D89081378237833784377F077B
:1017B000D8A0800770AFDFEF0BF0E1EF0BF0C5EFC3
:1017C0000BF0000E866F84AFE8EF0BF0EAEF0BF042
:1017D0000EEF0CF0FF0E8115766FFF0E8215776FFE
:1017E000FF0E8315786F7F0E8415796F7651771110
:1017F00078117911D8B4FFEF0BF001EF0CF005EF81
:101800000CF0010E866F0EEF0CF06EA10AEF0CF0DB
:101810000CEF0CF00EEF0CF001EF0CF08651D8B489
:1018200014EF0CF016EF0CF03AEF0CF0010E6E27EF
:10183000000E6F237023712371A121EF0CF023EFB1
:101840000CF03AEF0CF06EC076F06FC077F070C01D
:1018500078F071C079F0793579337833773376332E
:1018600076C06EF077C06FF078C070F079C071F01C
:101870007F4B802B80BF45EF0CF0805108E17F2922
:10188000D8A045EF0CF047EF0CF052EF0CF0000E33
:10189000806F7F69000E6E6F000E6F6F000E706FAD
:1018A000000E716F80BF5FEF0CF0805106E17F0585
:1018B000D8B05DEF0CF05FEF0CF06DEF0CF0000EA8
:1018C000806F000E7F6F000E6E6F000E6F6F000E48
:1018D000706F000E716F000E7E6F7FC085F085A166
:1018E00074EF0CF076EF0CF079EF0CF0708F7AEF6C
:1018F0000CF0709FD8908531716F30EF0BF01200B3
:101900000A0E0001D26FD70ED36F230ED46F3C0E98
:10191000D56F900EBC6F010EBD6FB851BC5FB95151
:10192000BD5BBCC060F0BDC061F0000E61BFFF0ECA
:10193000626F636F010EE2EC11F060C0DEF061C017
:10194000DFF062C0E0F063C0E1F0000E0001A46FC0
:10195000000EA56F800EA66FBF0EA76FCD0E8B6F0A
:10196000CC0E8C6F4C0E8D6F3E0E8E6FD2C087F0FA
:10197000D3C088F0D4C089F0D5C08AF087EC06F0D7
:1019800087C0A0F088C0A1F089C0A2F08AC0A3F0EF
:1019900026EC04F0A0C0BEF0A1C0BFF0A2C0C0F011
:1019A000A3C0C1F0DEC08BF0DFC08CF0E0C08DF0D2
:1019B000E1C08EF0000E0001A46F000EA56F800E36
:1019C000A66F3F0EA76FD2C072F0D3C073F0D4C021
:1019D00074F0D5C075F06F0E6E6F120E6F6F830EC0
:1019E000706F3A0E716FB2EC0AF06EC0A0F06FC06B
:1019F000A1F070C0A2F071C0A3F026EC04F0A0C06A
:101A000087F0A1C088F0A2C089F0A3C08AF087EC5B
:101A100006F087C0C2F088C0C3F089C0C4F08AC095
:101A2000C5F0DAC08BF0DBC08CF0DCC08DF0DDC01F
:101A30008EF0D2C072F0D3C073F0D4C074F0D5C0B1
:101A400075F06F0E00016E6F120E6F6F030E706FE8
:101A50003B0E716FB2EC0AF06EC0B4F06FC0B5F01F
:101A600070C0B6F071C0B7F0BEC0B0F0BFC0B1F08A
:101A7000C0C0B2F0C1C0B3F061EC1BF0B0C087F0E1
:101A8000B1C088F0B2C089F0B3C08AF087EC06F02C
:101A900087C0C6F088C0C7F089C0C8F08AC0C9F046
:101AA000E2C0A4F0E3C0A5F0E4C0A6F0E5C0A7F052
:101AB000C2C0A0F0C3C0A1F0C4C0A2F0C5C0A3F0D2
:101AC00026EC04F0A0C0CAF0A1C0CBF0A2C0CCF0BC
:101AD000A3C0CDF0C6C0A4F0C7C0A5F0C8C0A6F092
:101AE000C9C0A7F0CAC0A0F0CBC0A1F0CCC0A2F082
:101AF000CDC0A3F026EC04F0A0C0CEF0A1C0CFF082
:101B0000A2C0D0F0A3C0D1F0CEC0A0F0CFC0A1F051
:101B1000D0C0A2F0D1C0A3F0D6C08BF0D7C08CF05B
:101B2000D8C08DF0D9C08EF0D2C072F0D3C073F09F
:101B3000D4C074F0D5C075F06F0E00016E6F120E38
:101B40006F6F830E706F3A0E716FB2EC0AF06EC059
:101B500087F06FC088F070C089F071C08AF087ECA0
:101B600006F087C0A4F088C0A5F089C0A6F08AC09E
:101B7000A7F026EC04F0A0C0E6F0A1C0E7F0A2C0F8
:101B8000E8F0A3C0E9F0E6C0E2F0E7C0E3F0E8C0A7
:101B9000E4F0E9C0E5F0DAC0D6F0DBC0D7F0DCC095
:101BA000D8F0DDC0D9F0DEC0DAF0DFC0DBF0E0C095
:101BB000DCF0E1C0DDF0000E0001606F000E616F2F
:101BC000FA0E626F430E636FE6C064F0E7C065F023
:101BD000E8C066F0E9C067F0D4EC16F00001D8B0B8
:101BE000F4EF0DF0F6EF0DF0FEEF0DF0000EE66FE6
:101BF000000EE76FFA0EE86F430EE96FE6C060F083
:101C0000E7C061F0E8C062F0E9C063F0000E646F05
:101C1000000E656F160E666F430E676FD4EC16F0FC
:101C20000001D8B016EF0EF018EF0EF020EF0EF016
:101C3000000EE66F000EE76F160EE86F430EE96FB9
:101C4000E6C0B8F0E7C0B9F0E8C0BAF0E9C0BBF050
:101C500012007DC093F07EC094F07FC095F080C0EC
:101C600096F081C097F082C098F083C099F084C04C
:101C70009AF000019ABF3FEF0EF042EF0EF0010E16
:101C800043EF0EF0000E9D6F9D51D8B44AEF0EF059
:101C90004CEF0EF05CEF0EF09A1F991F981F971FE4
:101CA000961F951F941F936D000E942395239623E2
:101CB0009723982399239A23F1BF61EF0EF063EFE6
:101CC0000EF064EF0EF0F693F1BF71EF0EF0F151EC
:101CD00006E1F005D8B06FEF0EF071EF0EF077EF80
:101CE0000EF0000E906F010E8F6F7BEF0EF0F0C0C4
:101CF0008FF0F1C090F0EEC091F0EFC092F09D51E6
:101D0000D8B485EF0EF087EF0EF09EEF0EF091073E
:101D1000D8A092079D51D8A490EF0EF092EF0EF04C
:101D200098EF0EF0000E8E6F2B0E8D6F9CEF0EF065
:101D3000000E8E6F2D0E8D6F8DC09DF0000E9C6F6E
:101D40001F0E9B6F000E01011F6F24EF0FF09B070A
:101D5000D8A09C07000E9B25D96E010E9C21DA6E3F
:101D600093C060F094C061F095C062F096C063F0DB
:101D700097C064F098C065F099C066F09AC067F0AB
:101D80000A0E686F000E696F000E6A6F000E6B6FAF
:101D9000000E6C6F000E6D6F000E6E6F000E6F6F99
:101DA0005DEC14F060C085F061C086F062C087F021
:101DB00063C088F064C089F065C08AF066C08BF0AB
:101DC00067C08CF085C072F086C073F085EC1BF0A4
:101DD00000017251300FDF6E8F07D8A09007910776
:101DE000D8A0920793C060F094C061F095C062F0F3
:101DF00096C063F097C064F098C065F099C066F033
:101E00009AC067F00A0E686F000E696F000E6A6F65
:101E1000000E6B6F000E6C6F000E6D6F000E6E6F1C
:101E2000000E6F6F98EC13F060C093F061C094F0F7
:101E300062C095F063C096F064C097F065C098F0FA
:101E400066C099F067C09AF000019CBF30EF0FF0B8
:101E50009C5108E19B05D8A030EF0FF032EF0FF056
:101E600062EF0FF0935194119511961197119811FB
:101E700099119A11D8A43FEF0FF041EF0FF0A7EF9F
:101E80000EF090BF4EEF0FF0905106E18F05D8B0E5
:101E90004CEF0FF04EEF0FF0A7EF0EF092BF59EF9F
:101EA0000FF0925108E19105D8A059EF0FF05BEFC8
:101EB0000FF062EF0FF0F6B360EF0FF062EF0FF08C
:101EC000A7EF0EF09D51D8B468EF0FF06AEF0FF056
:101ED00075EF0FF09B07D8A09C07000E9B25D96ECD
:101EE000010E9C21DA6E9DC0DFFF7BC070F07CC0CC
:101EF00071F0000E9B25726F010E9C21736F91C0D3
:101F000074F092C075F00DEC19F01200A0C0D9FF6A
:101F1000A1C0DAFFDECFF6FFDDCFF7FF0800F550F6
:101F2000250AD8A496EF0FF098EF0FF0C0EF10F04D
:101F3000A0C0D9FFA1C0DAFFDE2A000EDD22000E0C
:101F40000001EF6F000EEE6FEEC0F6F0F069F16980
:101F5000000EB06F000EAF6FD8EF0FF0F683A0C089
:101F6000D9FFA1C0DAFFDE2A000EDD22D8EF0FF084
:101F7000000EB06F010EAF6FD8EF0FF0A0C0D9FF09
:101F8000A1C0DAFFDECFF6FFDDCFF7FF0800F55086
:101F9000A46FA56BA551000AD8B4D1EF0FF0B8EF2C
:101FA0000FF0A451300AD8B4AEEF0FF0B8EF0FF035
:101FB000AF51B011D8B4DFEF0FF0E1EF0FF0BEEF8B
:101FC0000FF0A0C0D9FFA1C0DAFFDECFF6FFDDCF52
:101FD000F7FF0800F5502A0AD8A4F1EF0FF0F3EF4D
:101FE0000FF01CEF10F0A0C0D9FFA1C0DAFFDE2A6D
:101FF000000EDD22A2C0D9FFA3C0DAFFDFCFA4F01C
:10200000020EDE26DFCFA5F0000EDD22A4C0D9FF30
:10201000A5C0DAFFDECFEEF0DDCFEFF0EFBF15EFBA
:1020200010F013EF10F050EF10F0F681EE6DEF1F8F
:10203000D8B0EF2B50EF10F0A0C0D9FFA1C0DAFF4D
:10204000DECF66F0DDCF67F010EC15F066C0EEF085
:1020500067C0EFF033EF10F0A0C0D9FFA1C0DAFFE6
:10206000DE2A000EDD22A0C0D9FFA1C0DAFFDECF3C
:10207000F6FFDDCFF7FF0800F5CFA4F0D00E00018A
:10208000A425A56FA66BFF0EA623A65109E10A0E93
:10209000A55DD8A04EEF10F050EF10F02CEF10F02F
:1020A000A0C0D9FFA1C0DAFFDECFB1F0DDCFB2F022
:1020B000B1C0F6FFB2C0F7FF0800F550640AD8B40B
:1020C00064EF10F066EF10F074EF10F0B1C0F6FF9F
:1020D000B2C0F7FF0800F550690AD8A472EF10F0FB
:1020E00074EF10F0B7EF10F0A2C0D9FFA3C0DAFF71
:1020F000DFCFA4F0020EDE26DFCFA5F0000EDD223A
:10210000A4C0D9FFA5C0DAFFDECFA7F0DDCFA8F0CD
:10211000000EA8BFFF0EA96FAA6FAB6FAC6FAD6FBB
:10212000AE6F010EB125A46F000EB221A56FA0C045
:10213000D9FFA1C0DAFFA4C0DEFFA5C0DDFF9EC0AD
:102140007BF09FC07CF0A7C07DF0A8C07EF0A9C046
:102150007FF0AAC080F0ABC081F0ACC082F0ADC00F
:1021600083F0AEC084F029EC0EF0D5EF10F0A0C0E3
:10217000D9FFA1C0DAFFDE2A000EDD22D5EF10F074
:10218000A0C0D9FFA1C0DAFFDECFF6FFDDCFF7FF99
:102190000800F5500001606F616B9EC062F09FC047
:1021A00063F04EEC18F0B7EF10F012009494000EAC
:1021B00000016E6F000E6F6F800E706F3F0E716FBB
:1021C000BAC060F0BBC061F0000E61BFFF0E626F6D
:1021D000636F010EE2EC11F060C072F061C073F049
:1021E00062C074F063C075F0B2EC0AF06EC0C3F068
:1021F0006FC0C4F070C0C5F071C0C6F0BD0E000164
:10220000C76F370EC86F860EC96F340ECA6FBCC059
:10221000CBF0000E8B6F000E8C6F800E8D6F400E1A
:102220008E6FC7C087F0C8C088F0C9C089F0CAC027
:102230008AF087EC06F087C0BFF088C0C0F089C084
:10224000C1F08AC0C2F0000E0001A46F000EA56F9D
:10225000800EA66FBF0EA76FCB51606F616B626B74
:10226000636B010EE2EC11F060C08BF061C08CF08A
:1022700062C08DF063C08EF0BFC087F0C0C088F030
:10228000C1C089F0C2C08AF087EC06F087C072F046
:1022900088C073F089C074F08AC075F0C3C06EF056
:1022A000C4C06FF0C5C070F0C6C071F0B2EC0AF0E7
:1022B0006EC0A0F06FC0A1F070C0A2F071C0A3F01A
:1022C00026EC04F0A0C0B0F0A1C0B1F0A2C0B2F002
:1022D000A3C0B3F050EC16F00001B051CB6EC7C0F4
:1022E0008BF0C8C08CF0C9C08DF0CAC08EF0CB5145
:1022F000606F616B626B636B010EE2EC11F060C0AA
:1023000087F061C088F062C089F063C08AF087EC12
:1023100006F087C072F088C073F089C074F08AC07C
:1023200075F0C3C06EF0C4C06FF0C5C070F0C6C019
:1023300071F0B2EC0AF06EC0B0F06FC0B1F070C0D6
:10234000B2F071C0B3F050EC16F0B0C0F4F0B1C010
:10235000F5F0000EBE6ECF0EBD16000ECA6EC1EFB8
:1023600011F0FC0ECA16DBEF11F0CA50FC0B01098C
:10237000CA6EDBEF11F0CA50FC0B0209CA6EDBEF2C
:1023800011F00001CB51BD6FBE6BBE51000AD8B435
:10239000CCEF11F0DBEF11F0BD51010AD8B4B1EF71
:1023A00011F0050AD8B4B5EF11F0140AD8B4BBEF98
:1023B00011F0DBEF11F0000ECC6EBD50F00B0C09EC
:1023C000BD6E12000001686F00016851D8B4EBEFD8
:1023D00011F0EDEF11F00FEF12F063BFF4EF11F019
:1023E000F2EF11F00FEF12F060C064F061C065F021
:1023F00062C066F063C067F0641F651F661F671FD9
:10240000642B000E65236623672364C06AF065C0F1
:102410006BF066C06CF067C06DF017EF12F060C033
:102420006AF061C06BF062C06CF063C06DF0605127
:10243000611162116311D8A420EF12F022EF12F0A3
:102440002CEF12F0000E606F000E616F000E626FD5
:10245000000E636FBDEF12F0960E696F36EF12F04B
:10246000692BD8906D336C336B336A33000E6A1569
:10247000646F000E6B15656F000E6C15666FFE0EB7
:102480006D15676F6451651166116711D8A44BEF24
:1024900012F04DEF12F030EF12F05BEF12F0692BFB
:1024A000010E6A27000E6B236C236D23D8906D33C9
:1024B0006C336B336A33000E6A15646F000E6B1554
:1024C000656F000E6C15666FFF0E6D15676F6451BA
:1024D000651166116711D8A470EF12F072EF12F057
:1024E0004FEF12F07AEF12F06907D8906A376B3726
:1024F0006C376D376CBF7FEF12F081EF12F089EF10
:1025000012F0020E696187EF12F089EF12F074EF9A
:1025100012F069B18EEF12F090EF12F091EF12F01D
:102520006C9FD890693369C064F0656B666B676BAC
:1025300064C067F0666B656B646B64516A136551C8
:102540006B1366516C1367516D136851D8B4ABEFC0
:1025500012F0ADEF12F0B5EF12F063BFB4EF12F06E
:10256000B2EF12F0B5EF12F06D8F6AC060F06BC081
:1025700061F06CC062F06DC063F012000F6E0F501E
:10258000D8B4C5EF12F0C7EF12F0E9EF12F00ABEAF
:10259000CEEF12F0CCEF12F0E9EF12F007C00BF023
:1025A00008C00CF009C00DF00AC00EF00B1E0C1E86
:1025B0000D1E0E1E0B2A000E0C220D220E220BC029
:1025C00011F00CC012F00DC013F00EC014F0F1EFBA
:1025D00012F007C011F008C012F009C013F00AC0D1
:1025E00014F00750081009100A10D8A4FAEF12F0DE
:1025F000FCEF12F006EF13F0000E076E000E086EEF
:10260000000E096E000E0A6E97EF13F0960E106E14
:1026100010EF13F0102AD890143213321232113204
:10262000000E11140B6E000E12140C6E000E13141B
:102630000D6EFE0E14140E6E0B500C100D100E10BD
:10264000D8A425EF13F027EF13F00AEF13F035EFBE
:1026500013F0102A010E1126000E1222132214224A
:10266000D8901432133212321132000E11140B6E44
:10267000000E12140C6E000E13140D6EFF0E1414C7
:102680000E6E0B500C100D100E10D8A44AEF13F064
:102690004CEF13F029EF13F054EF13F01006D8901D
:1026A000113612361336143613BE59EF13F05BEFA2
:1026B00013F063EF13F0020E106061EF13F063EF9D
:1026C00013F04EEF13F010B068EF13F06AEF13F051
:1026D0006BEF13F0139ED890103210C00BF00C6A01
:1026E0000D6A0E6A0BC00EF00D6A0C6A0B6A0B5075
:1026F00011120C5012120D5013120E5014120F50D2
:10270000D8B485EF13F087EF13F08FEF13F00ABE04
:102710008EEF13F08CEF13F08FEF13F0148E11C0C7
:1027200007F012C008F013C009F014C00AF012003C
:10273000000E0001716F6FBFA2EF13F0A0EF13F056
:10274000B4EF13F06F1F6E1F6D1F6C1F6B1F6A1F9E
:10275000691F686D000E69236A236B236C236D2348
:102760006E236F23010E716F67BFBBEF13F0B9EFDC
:1027700013F0CDEF13F0671F661F651F641F631F03
:10278000621F611F606D000E612362236323642357
:10279000652366236723010E711B20EE72F0070E7E
:1027A000DE6AE806FDE2685169116A116B116C116D
:1027B0006D116E116F11D8B4E0EF13F0E2EF13F06A
:1027C00034EF14F0010E706FF0EF13F0D89068370B
:1027D00069376A376B376C376D376E376F37702BE9
:1027E0006FAFF5EF13F0F7EF13F0E6EF13F0D890BB
:1027F0007237733774377537763777377837793775
:102800006851605D695161596A5162596B516359F0
:102810006C5164596D5165596E5166596F516759C4
:10282000D8A015EF14F017EF14F028EF14F068514A
:10283000605F6951615B6A51625B6B51635B6C51B4
:10284000645B6D51655B6E51665B6F51675B728156
:10285000D8906F336E336D336C336B336A336933B7
:102860006833702FF7EF13F07151D8B43AEF14F0CA
:102870003CEF14F04CEF14F0791F781F771F761F90
:10288000751F741F731F726D000E732374237523DD
:10289000762377237823792372C060F073C061F0C8
:1028A00074C062F075C063F076C064F077C065F004
:1028B00078C066F079C067F01200000E0001716FF9
:1028C00067BF67EF14F065EF14F079EF14F0671F3E
:1028D000661F651F641F631F621F611F606D000E0E
:1028E0006123622363236423652366236723010E28
:1028F000716F6FBF80EF14F07EEF14F090EF14F063
:102900006F1F6E1F6D1F6C1F6B1F6A1F691F686D25
:10291000000E69236A236B236C236D236E236F23C0
:10292000685169116A116B116C116D116E116F1183
:10293000D8B49DEF14F09FEF14F0E7EF14F0010E00
:10294000706FADEF14F0D890683769376A376B371E
:102950006C376D376E376F37702B6FAFB2EF14F087
:10296000B4EF14F0A3EF14F06851605D6951615940
:102970006A5162596B5163596C5164596D51655973
:102980006E5166596F516759D8A0C9EF14F0CBEF5B
:1029900014F0DBEF14F06851605F6951615B6A51BC
:1029A000625B6B51635B6C51645B6D51655B6E5137
:1029B000665B6F51675BD8906F336E336D336C33EA
:1029C0006B336A3369336833702FB4EF14F071518D
:1029D000D8B4EDEF14F0EFEF14F0FFEF14F0671F31
:1029E000661F651F641F631F621F611F606D000EFD
:1029F000612362236323642365236623672360C006
:102A000060F061C061F062C062F063C063F064C0F6
:102A100064F065C065F066C066F067C067F01200DC
:102A2000000E00016E6F000E6D6F000E6C6F000ED9
:102A30006B6F1DEF15F0664B672B66C0F6FF67C026
:102A4000F7FF0800F550200AD8B429EF15F02BEF56
:102A500015F01BEF15F066C0F6FF67C0F7FF080022
:102A6000F5CF68F0F70E6825696F6A6BFF0E6A2371
:102A70006A5109E1050E695DD8A041EF15F043EFF9
:102A800015F01BEF15F04DEF15F0000E6C6F010EF9
:102A90006B6F664B672B83EF15F066C0F6FF67C060
:102AA000F7FF0800F550686F696B6951000AD8B4E8
:102AB0005CEF15F083EF15F068512B0AD8B449EF9D
:102AC00015F0060AD8B445EF15F083EF15F06DC088
:102AD00060F06EC061F0000E636F0A0E626FBDECB5
:102AE0001BF066C0F6FF67C0F7FF0800F550000155
:102AF000605F000E615B300E60256D6F000E61211E
:102B00006E6F49EF15F066C0F6FF67C0F7FF08006B
:102B1000F5CF68F0D00E6825696F6A6BFF0E6A23E7
:102B20006A5109E10A0E695DD8A099EF15F09BEF93
:102B300015F067EF15F06B516C11D8A4A2EF15F0EA
:102B4000A4EF15F0B2EF15F06DC068F06EC069F03B
:102B5000681F691F684B692B68C066F069C067F021
:102B6000B6EF15F06DC066F06EC067F012000001A0
:102B7000626F9598959A959C959E8C988C9A8C9C52
:102B80008C9E8C92210EE82EFED700F062C060F081
:102B90000001603B0F0E6017010E6017603B8C5008
:102BA0006019EF0B60198C6E62C060F0050E616FEA
:102BB000D8906033612FD8EF15F0010E6017603B9D
:102BC00060478C506019DF0B60198C6E62C060F03A
:102BD000060E616FD8906033612FEAEF15F0010E99
:102BE0006017603B604760478C506019BF0B6019ED
:102BF0008C6E606B62AF01D0602B010E601760338A
:102C000060338C5060197F0B60198C6E8C82210EA2
:102C1000E82EFED700F08C9262C060F0010E000139
:102C20006017603B8C506019EF0B60198C6E62C0AE
:102C300060F0D8906033070E6017603B60478C509F
:102C40006019DF0B60198C6E62C060F0D890603341
:102C5000D8906033030E6017603B604760478C502C
:102C60006019BF0B60198C6E62C060F0D890603341
:102C7000D8906033D8906033010E601760336033B2
:102C80008C5060197F0B60198C6E8C82210EE82E9F
:102C9000FED700F08C929588958A958C958E1200BF
:102CA0000001B235B335B96FB951D8A45AEF16F057
:102CB0005CEF16F066EF16F0000EB06F000EB16F0D
:102CC000000EB26F000EB36FD3EF16F0B0C0B4F0C9
:102CD000B1C0B5F0B2C0B6F0B3C0B7F0200E76EF19
:102CE00016F0D890B733B633B533B433E82E71EF5E
:102CF00016F0B451B86FB28FFF0EB017FF0EB117B8
:102D0000FF0EB217000EB317960EB95FB9BF8DEF65
:102D100016F08BEF16F0A3EF16F0B951800A970F5B
:102D2000D8B095EF16F097EF16F099EF16F05CEF2C
:102D300016F0D890B333B233B133B033B93F99EF13
:102D400016F0BBEF16F01F0EB965A9EF16F0ABEF4A
:102D500016F0B3EF16F05CEF16F0D890B037B1373D
:102D6000B237B337B907B951D8A4B9EF16F0BBEFF2
:102D700016F0ADEF16F0B851D8B4C1EF16F0C3EFAE
:102D800016F0CBEF16F0B31FB21FB11FB06D000EDF
:102D9000B123B223B323B0C0B0F0B1C0B1F0B2C020
:102DA000B2F0B3C0B3F01200000E00016015686FFE
:102DB000000E6115696F800E62156A6F7F0E6315D4
:102DC0006B6F685169116A116B11D8A4EAEF16F0A4
:102DD000ECEF16F0F4EF16F0000E606F000E616F6E
:102DE000000E626F000E636F000E6415686F000EB8
:102DF0006515696F800E66156A6F7F0E67156B6FBC
:102E0000685169116A116B11D8A409EF17F00BEF23
:102E100017F013EF17F0000E646F000E656F000ED1
:102E2000666F000E676F63AF18EF17F01AEF17F0B9
:102E300023EF17F0606D611FD8B0612B621FD8B00F
:102E4000622B800E635767AF28EF17F02AEF17F059
:102E500033EF17F0646D651FD8B0652B661FD8B0CF
:102E6000662B800E6757000E601B000E611B000E64
:102E7000621B800E631B000E641B000E651B000EA0
:102E8000661B800E671B6451605D65516159665118
:102E9000625967516359D8B050EF17F052EF17F0ED
:102EA00055EF17F0D89056EF17F0D8801200303455
:102EB0003134376E3750D8A460EF17F062EF17F057
:102EC0006CEF17F0000E2E6E000E2F6E000E306E9F
:102ED000000E316ED9EF17F02EC032F02FC033F054
:102EE00030C034F031C035F0200E7CEF17F0D890B0
:102EF0003532343233323232E82E77EF17F0325037
:102F0000366E308EFF0E2E16FF0E2F16FF0E301669
:102F1000000E3116960E375E37BE93EF17F091EF25
:102F200017F0A9EF17F03750800A970FD8B09BEF32
:102F300017F09DEF17F09FEF17F062EF17F0D890A2
:102F4000313230322F322E32373E9FEF17F0C1EF41
:102F500017F01F0E3764AFEF17F0B1EF17F0B9EFAE
:102F600017F062EF17F0D8902E362F363036313604
:102F700037063750D8A4BFEF17F0C1EF17F0B3EF03
:102F800017F03650D8B4C7EF17F0C9EF17F0D1EFEC
:102F900017F0311E301E2F1E2E6C000E2F223022F5
:102FA00031222EC02EF02FC02FF030C030F031C0B3
:102FB00031F012000F0EC16E9368F28EF28CF29215
:102FC000F288F19C65EC19F00C0E00EC1CF04E0E32
:102FD0000001BB6F200EBA6F100EBC6FD6EC10F064
:102FE00017EC1CF0F4EC1BF015EC1CF0460E000185
:102FF000BB6F000EBC6F2B0EBD6F080EBE6FF2C014
:10300000BFF0F3C0C0F0C7EC1AF0010E0001686F0A
:10301000460E696F000E6A6F020E59EC1AF0460EEA
:103020000001BB6F000EBC6F3B0EBD6F080EBE6F84
:10303000010EC06F900EBF6FC7EC1AF0010E0001B9
:10304000686F460E696F000E6A6F030E59EC1AF036
:10305000F2C0B8F0F3C0B9F080EC0CF0B8C0EAF000
:10306000B9C0EBF0BAC0ECF0BBC0EDF0EAC0BAF00A
:10307000EBC0BBF0ECC0BCF0EDC0BDF0BDEC19F096
:10308000010E0001686F160E696F080E6A6F010E5F
:1030900059EC1AF0F6EF17F007EF00F0000162515B
:1030A0006311D8B456EF18F058EF18F061EF18F02C
:1030B00062516311D8A45FEF18F061EF18F066EF6A
:1030C00018F0605119EC1CF0B3EF18F020EE09F085
:1030D0006251D9266351DA22DE50DE10D8B473EF84
:1030E00018F075EF18F090EF18F020EE09F062512B
:1030F000D9266351DA2210EE03F06251E1266351C2
:10310000E222DE50E65CE650800A686FDE50800AFC
:103110006859D8B08EEF18F090EF18F0B3EF18F0B0
:1031200020EE03F06251D9266351DA22DECF64F03B
:10313000DDCF65F062C0D9FF63C0DAFFDECF66F095
:10314000DDCF67F064516625D96E65516721DA6E6F
:1031500060C0DFFF20EE03F06251D9266351DA220E
:10316000DE2A000EDD2212000600F3CF38F0F4CF85
:1031700039F0F2A2BEEF18F0C0EF18F0C3EF18F06C
:103180005B4A5C2AF292F2A4C8EF18F0CAEF18F07A
:1031900007EF19F03C0ED76EB00ED66E5A2A42C019
:1031A00019F043C01AF044C01BF045C01CF05BC0CE
:1031B00001F05CC002F0000E046E0A0E036ED1EC4A
:1031C0001BF001C007F002C008F0096A0A6A000E8D
:1031D000BEEC12F007C015F008C016F009C017F0D9
:1031E0000AC018F09DEC08F015C02EF016C02FF0A4
:1031F00017C030F018C031F057EC17F02EC0F2F0C5
:103200002FC0F3F0000E5C6E000E5B6EF29439C0BE
:10321000F4FF38C0F3FF5D9211000001F6A113EF37
:1032200019F015EF19F01FEF19F072C069F073C0B3
:103230006AF070C06BF071C06CF019EC1BF000010B
:1032400075BF25EF19F027EF19F02DEF19F074C0B5
:1032500079F075C07AF031EF19F0000E7A6F000E38
:10326000796F000E786F000E776F44EF19F0000E43
:10327000616F200E606F70C062F071C063F04EEC41
:1032800018F00001774B782B7951775D7851800ADF
:10329000766F7A51800A7659D8A051EF19F053EF22
:1032A00019F037EF19F0F6B158EF19F05AEF19F09D
:1032B00064EF19F072C069F073C06AF070C06BF00F
:1032C00071C06CF019EC1BF01200959095929598D6
:1032D000959A959C959E8C90140E0001636F790EC3
:1032E000E82EFED7632FFCD700D0300EB7EC15F0D8
:1032F000070E0001636F7D0EE82EFED7632FFCD70B
:10330000300EB7EC15F0210EE82EFED700F0320E8D
:10331000B7EC15F0210EE82EFED700F0210EE82EB6
:10332000FED700F02B0EB7EC15F0210EE82EFED7DD
:1033300000F0080EB7EC15F0210EE82EFED700F0D5
:103340000F0EB7EC15F0210EE82EFED700F0010E9F
:10335000B7EC15F0210EE82EFED700F0060EB7EC04
:1033600015F0210EE82EFED700F00F0EB7EC15F089
:10337000210EE82EFED700F01200000E0001726F41
:10338000000E736FFA0E746F430E756FBAC08BF038
:10339000BBC08CF0BCC08DF0BDC08EF0F4C060F03E
:1033A000F5C061F0000E61BFFF0E626F636F010E2A
:1033B000E2EC11F060C087F061C088F062C089F073
:1033C00063C08AF087EC06F087C06EF088C06FF0AB
:1033D00089C070F08AC071F0B2EC0AF06EC0B0F033
:1033E0006FC0B1F070C0B2F071C0B3F050EC16F025
:1033F000B0C0C0F0B1C0C1F0C0C0BEF0C1C0BFF02D
:103400000001BF35BF33BE33BF35BF33BE33BE51FE
:10341000BE6EC0C0BEF0030EBE17BE3BBD50BE198F
:10342000CF0BBE19BD6E12000001676F30EF1AF0AE
:1034300064517F0F00EC1CF04EEF1AF06451BF0F87
:1034400000EC1CF04EEF1AF06451930F00EC1CF0EE
:103450004EEF1AF06451D30F00EC1CF04EEF1AF04F
:1034600000016751656F666B6651000AD8B43BEF87
:103470001AF04EEF1AF06551010AD8B418EF1AF09D
:10348000030AD8B41EEF1AF0010AD8B424EF1AF0D8
:10349000070AD8B42AEF1AF04EEF1AF0820E000194
:1034A000656FDD0EE82EFED7652FFCD700D08C901F
:1034B000120000016B6F68C064F000016B5114ECE6
:1034C0001AF078EF1AF069C0F6FF6AC0F7FFF86AE1
:1034D000070EF76403D00800F55005D0F6CFE1FFE2
:1034E000F7CFE2FFE75009EC1CF00001694B6A2BB3
:1034F00069C0F6FF6AC0F7FFF86A070EF76403D0E9
:103500000800F55005D0F6CFE1FFF7CFE2FFE75016
:103510000009D8A48EEF1AF090EF1AF063EF1AF0BA
:103520001200240EF66E380EF76E000EF86E00EEE6
:10353000F7F010EE06F00900F5CFEEFFE550E15090
:10354000FAE1C80EF66E370EF76E000EF86E00EE5A
:103550003AF010EE20F00900F5CFEEFFE550E15013
:10356000FAE101EE00F0200EEE6AE806FDE100EE61
:10357000D6F0210EEE6AE806FDE15C6A5B6A5A6AE3
:103580005D905D92000EF86E0001DAEF17F0BF0E4D
:103590000001C16F000EC26FBBC0C3F0BCC0C4F05D
:1035A000000EC76F000EC66F000ECD6F000ECC6F01
:1035B000C30EB36F000EB46FBDC0B5F0BEC0B6F0A1
:1035C000C10EB76F000EB86FF0EC1AF00001C651D3
:1035D000BB25D96EC751BC21DA6E000EDF6E12001A
:1035E000B5C0B9F0B6C0BAF005EF1BF0B3C09EF09D
:1035F000B4C09FF0B90E0001A06F000EA16FB7C05C
:10360000A2F0B8C0A3F086EC0FF0B9C0F6FFBAC0C4
:10361000F7FF0800F5500009D8A411EF1BF013EFD5
:103620001BF0F6EF1AF0000E0001B46F000EB36F3E
:103630001200000E00016F6F000E6E6F2CEF1BF07A
:103640006DC060F0616B6BC062F06CC063F04EECFB
:1036500018F000016E4B6F2B6E516925D96E6F51BA
:103660006A21DA6EDF506D6F6D51D8A43AEF1BF00E
:103670003CEF1BF020EF1BF01200010E0001646F05
:10368000200E60196111D8B448EF1BF04AEF1BF00F
:103690005DEF1BF0F70E6025626FFF0E6121636F17
:1036A000635109E1050E625DD8A059EF1BF05BEF95
:1036B0001BF05DEF1BF0000E646F64C060F0616B87
:1036C0001200000E0001B41B000EB51B000EB61B4D
:1036D000800EB71BB0C0A0F0B1C0A1F0B2C0A2F084
:1036E000B3C0A3F0B4C0A4F0B5C0A5F0B6C0A6F0B6
:1036F000B7C0A7F026EC04F0A0C0B0F0A1C0B1F0B4
:10370000A2C0B2F0A3C0B3F01200000173BF93EFE8
:103710001BF0735106E17205D8B091EF1BF093EFE7
:103720001BF0A1EF1BF072C074F073C075F0741F32
:10373000751F744B752B74C072F075C073F0A5EFD4
:103740001BF072C072F073C073F01200D00E000153
:103750006025626FFF0E6121636F63510AE10A0EFB
:10376000625DD8A0B6EF1BF0B9EF1BF0010EBAEF07
:103770001BF0000E606F616B12000001605162036C
:10378000F3CF64F0F4CF65F060516303F350652725
:1037900061516203F350652764C060F065C061F059
:1037A000120001500302F3CF05F0F4CF06F00150F0
:1037B0000402F350062602500302F350062605C009
:1037C00001F006C002F012006F12833ACDCC4C3EDD
:1037D0000000004020000000000000000000000089
:1037E0000000000000000000F80ED516D596D59810
:1037F000D59AD59C3C0ED76EB00ED66EF28A1200CA
:103800000001636F8C9000016351B7EC15F08C9050
:1038100012000001636F8C8000016351B7EC15F05A
:103820008C9012000000803F9001D58E1200CA8457
:043830001200120070
:020000040020DA
:08000000FFFFFFFFFFFFFFFF00
:020000040030CA
:0E00000000001E1EFF8181FF0FC00FE00F40A9
:00000001FF
